{
  "_format": "hh-sol-artifact-1",
  "contractName": "BaseDareBounty",
  "sourceName": "contracts/BaseDareBounty.sol",
  "abi": [
    {
      "inputs": [
        {
          "internalType": "address",
          "name": "_usdc",
          "type": "address"
        },
        {
          "internalType": "address",
          "name": "_houseWallet",
          "type": "address"
        }
      ],
      "stateMutability": "nonpayable",
      "type": "constructor"
    },
    {
      "inputs": [
        {
          "internalType": "address",
          "name": "owner",
          "type": "address"
        }
      ],
      "name": "OwnableInvalidOwner",
      "type": "error"
    },
    {
      "inputs": [
        {
          "internalType": "address",
          "name": "account",
          "type": "address"
        }
      ],
      "name": "OwnableUnauthorizedAccount",
      "type": "error"
    },
    {
      "inputs": [],
      "name": "ReentrancyGuardReentrantCall",
      "type": "error"
    },
    {
      "anonymous": false,
      "inputs": [
        {
          "indexed": true,
          "internalType": "uint256",
          "name": "dareId",
          "type": "uint256"
        },
        {
          "indexed": false,
          "internalType": "uint256",
          "name": "streamerAmount",
          "type": "uint256"
        },
        {
          "indexed": false,
          "internalType": "uint256",
          "name": "houseFee",
          "type": "uint256"
        },
        {
          "indexed": false,
          "internalType": "uint256",
          "name": "referrerFee",
          "type": "uint256"
        }
      ],
      "name": "BountyPayout",
      "type": "event"
    },
    {
      "anonymous": false,
      "inputs": [
        {
          "indexed": true,
          "internalType": "uint256",
          "name": "dareId",
          "type": "uint256"
        },
        {
          "indexed": true,
          "internalType": "address",
          "name": "refundRecipient",
          "type": "address"
        },
        {
          "indexed": false,
          "internalType": "uint256",
          "name": "amount",
          "type": "uint256"
        }
      ],
      "name": "BountyRefund",
      "type": "event"
    },
    {
      "anonymous": false,
      "inputs": [
        {
          "indexed": true,
          "internalType": "uint256",
          "name": "dareId",
          "type": "uint256"
        },
        {
          "indexed": true,
          "internalType": "address",
          "name": "staker",
          "type": "address"
        },
        {
          "indexed": false,
          "internalType": "uint256",
          "name": "amount",
          "type": "uint256"
        }
      ],
      "name": "BountyStaked",
      "type": "event"
    },
    {
      "anonymous": false,
      "inputs": [
        {
          "indexed": true,
          "internalType": "uint256",
          "name": "dareId",
          "type": "uint256"
        },
        {
          "indexed": true,
          "internalType": "address",
          "name": "oldStaker",
          "type": "address"
        },
        {
          "indexed": true,
          "internalType": "address",
          "name": "newStaker",
          "type": "address"
        },
        {
          "indexed": false,
          "internalType": "uint256",
          "name": "oldAmount",
          "type": "uint256"
        },
        {
          "indexed": false,
          "internalType": "uint256",
          "name": "newAmount",
          "type": "uint256"
        },
        {
          "indexed": false,
          "internalType": "uint256",
          "name": "houseFee",
          "type": "uint256"
        }
      ],
      "name": "BountyStolen",
      "type": "event"
    },
    {
      "anonymous": false,
      "inputs": [
        {
          "indexed": true,
          "internalType": "address",
          "name": "previousOwner",
          "type": "address"
        },
        {
          "indexed": true,
          "internalType": "address",
          "name": "newOwner",
          "type": "address"
        }
      ],
      "name": "OwnershipTransferred",
      "type": "event"
    },
    {
      "inputs": [],
      "name": "AI_REFEREE_ADDRESS",
      "outputs": [
        {
          "internalType": "address",
          "name": "",
          "type": "address"
        }
      ],
      "stateMutability": "view",
      "type": "function"
    },
    {
      "inputs": [],
      "name": "HOUSE_WALLET",
      "outputs": [
        {
          "internalType": "address",
          "name": "",
          "type": "address"
        }
      ],
      "stateMutability": "view",
      "type": "function"
    },
    {
      "inputs": [],
      "name": "USDC",
      "outputs": [
        {
          "internalType": "contract IERC20",
          "name": "",
          "type": "address"
        }
      ],
      "stateMutability": "view",
      "type": "function"
    },
    {
      "inputs": [
        {
          "internalType": "uint256",
          "name": "",
          "type": "uint256"
        }
      ],
      "name": "bounties",
      "outputs": [
        {
          "internalType": "uint256",
          "name": "amount",
          "type": "uint256"
        },
        {
          "internalType": "address payable",
          "name": "streamer",
          "type": "address"
        },
        {
          "internalType": "address payable",
          "name": "referrer",
          "type": "address"
        },
        {
          "internalType": "address",
          "name": "staker",
          "type": "address"
        },
        {
          "internalType": "bool",
          "name": "isVerified",
          "type": "bool"
        }
      ],
      "stateMutability": "view",
      "type": "function"
    },
    {
      "inputs": [],
      "name": "owner",
      "outputs": [
        {
          "internalType": "address",
          "name": "",
          "type": "address"
        }
      ],
      "stateMutability": "view",
      "type": "function"
    },
    {
      "inputs": [
        {
          "internalType": "uint256",
          "name": "_dareId",
          "type": "uint256"
        },
        {
          "internalType": "address",
          "name": "_staker",
          "type": "address"
        }
      ],
      "name": "refundStaker",
      "outputs": [],
      "stateMutability": "nonpayable",
      "type": "function"
    },
    {
      "inputs": [],
      "name": "renounceOwnership",
      "outputs": [],
      "stateMutability": "nonpayable",
      "type": "function"
    },
    {
      "inputs": [
        {
          "internalType": "address",
          "name": "_token",
          "type": "address"
        },
        {
          "internalType": "uint256",
          "name": "_amount",
          "type": "uint256"
        }
      ],
      "name": "rescueERC20",
      "outputs": [],
      "stateMutability": "nonpayable",
      "type": "function"
    },
    {
      "inputs": [
        {
          "internalType": "address",
          "name": "_newReferee",
          "type": "address"
        }
      ],
      "name": "setAIRefereeAddress",
      "outputs": [],
      "stateMutability": "nonpayable",
      "type": "function"
    },
    {
      "inputs": [
        {
          "internalType": "uint256",
          "name": "_dareId",
          "type": "uint256"
        },
        {
          "internalType": "address",
          "name": "_streamer",
          "type": "address"
        },
        {
          "internalType": "address",
          "name": "_referrer",
          "type": "address"
        },
        {
          "internalType": "uint256",
          "name": "_amount",
          "type": "uint256"
        }
      ],
      "name": "stakeBounty",
      "outputs": [],
      "stateMutability": "nonpayable",
      "type": "function"
    },
    {
      "inputs": [
        {
          "internalType": "uint256",
          "name": "_dareId",
          "type": "uint256"
        },
        {
          "internalType": "uint256",
          "name": "_newAmount",
          "type": "uint256"
        }
      ],
      "name": "stealBounty",
      "outputs": [],
      "stateMutability": "nonpayable",
      "type": "function"
    },
    {
      "inputs": [
        {
          "internalType": "address",
          "name": "newOwner",
          "type": "address"
        }
      ],
      "name": "transferOwnership",
      "outputs": [],
      "stateMutability": "nonpayable",
      "type": "function"
    },
    {
      "inputs": [
        {
          "internalType": "uint256",
          "name": "_dareId",
          "type": "uint256"
        }
      ],
      "name": "verifyAndPayout",
      "outputs": [],
      "stateMutability": "nonpayable",
      "type": "function"
    }
  ],
  "bytecode": "0x60c06040523480156200001157600080fd5b50604051620016dc380380620016dc8339810160408190526200003491620000f0565b33806200005b57604051631e4fbdf760e01b81526000600482015260240160405180910390fd5b620000668162000083565b50600180556001600160a01b039182166080521660a05262000128565b600080546001600160a01b038381166001600160a01b0319831681178455604051919092169283917f8be0079c531659141344cd1fd0a4f28419497f9722a3daafe3b4186f6b6457e09190a35050565b80516001600160a01b0381168114620000eb57600080fd5b919050565b600080604083850312156200010457600080fd5b6200010f83620000d3565b91506200011f60208401620000d3565b90509250929050565b60805160a0516115426200019a6000396000818160d8015281816104ba0152610a8c01526000818161015f015281816103ea015281816104e9015281816105cd015281816108d5015281816109bc01528181610abb01528181610bf601528181610e44015261107101526115426000f3fe608060405234801561001057600080fd5b50600436106100ce5760003560e01c80638cd4426d1161008c578063d8f4eb8911610066578063d8f4eb89146101b8578063dc2f8744146101cb578063e08b504b14610255578063f2fde38b1461026857600080fd5b80638cd4426d146101815780638da5cb5b146101945780639513b324146101a557600080fd5b8062578353146100d35780634b9a7c931461011757806361c5d0e31461012c5780636f8f21991461013f578063715018a61461015257806389a302711461015a575b600080fd5b6100fa7f000000000000000000000000000000000000000000000000000000000000000081565b6040516001600160a01b0390911681526020015b60405180910390f35b61012a610125366004611308565b61027b565b005b61012a61013a366004611321565b610722565b6003546100fa906001600160a01b031681565b61012a610bd8565b6100fa7f000000000000000000000000000000000000000000000000000000000000000081565b61012a61018f36600461135f565b610bec565b6000546001600160a01b03166100fa565b61012a6101b3366004611389565b610d01565b61012a6101c63660046113ab565b610d2b565b61021d6101d9366004611308565b6002602081905260009182526040909120805460018201549282015460039092015490926001600160a01b039081169281169190811690600160a01b900460ff1685565b604080519586526001600160a01b0394851660208701529284169285019290925290911660608301521515608082015260a00161010e565b61012a6102633660046113d7565b610f91565b61012a610276366004611389565b611220565b61028361125b565b6003546001600160a01b031633146102e25760405162461bcd60e51b815260206004820152601a60248201527f426f756e74793a204e6f7420746865204149205265666572656500000000000060448201526064015b60405180910390fd5b600081815260026020526040902054819061030f5760405162461bcd60e51b81526004016102d99061141b565b6000828152600260205260409020600301548290600160a01b900460ff161561034a5760405162461bcd60e51b81526004016102d99061144b565b600083815260026020526040812060038101805460ff60a01b1916600160a01b17905580549091606461037e600184611498565b61038891906114b5565b905060006064610399600a85611498565b6103a391906114b5565b90506000816103b284866114d7565b6103bc91906114d7565b600286015460405163a9059cbb60e01b81526001600160a01b039182166004820152602481018690529192507f0000000000000000000000000000000000000000000000000000000000000000169063a9059cbb906044016020604051808303816000875af1158015610433573d6000803e3d6000fd5b505050506040513d601f19601f8201168201806040525081019061045791906114ea565b6104a35760405162461bcd60e51b815260206004820181905260248201527f5061796f75743a205265666572726572207472616e73666572206661696c656460448201526064016102d9565b60405163a9059cbb60e01b81526001600160a01b037f000000000000000000000000000000000000000000000000000000000000000081166004830152602482018490527f0000000000000000000000000000000000000000000000000000000000000000169063a9059cbb906044016020604051808303816000875af1158015610532573d6000803e3d6000fd5b505050506040513d601f19601f8201168201806040525081019061055691906114ea565b6105a25760405162461bcd60e51b815260206004820152601d60248201527f5061796f75743a20486f757365207472616e73666572206661696c656400000060448201526064016102d9565b600185015460405163a9059cbb60e01b81526001600160a01b039182166004820152602481018390527f00000000000000000000000000000000000000000000000000000000000000009091169063a9059cbb906044016020604051808303816000875af1158015610618573d6000803e3d6000fd5b505050506040513d601f19601f8201168201806040525081019061063c91906114ea565b6106885760405162461bcd60e51b815260206004820181905260248201527f5061796f75743a2053747265616d6572207472616e73666572206661696c656460448201526064016102d9565b604080518281526020810184905290810184905288907f42ce17271c51f5a58d1b95fcb0557bc1638da4c0072fd1429bc172e35b50e2159060600160405180910390a2505050600085815260026020819052604082209182556001820180546001600160a01b03199081169091559082018054909116905560030180546001600160a81b03191690555061071f9250611285915050565b50565b61072a61125b565b60008281526002602052604090205482906107575760405162461bcd60e51b81526004016102d99061141b565b6000838152600260205260409020600301548390600160a01b900460ff16156107925760405162461bcd60e51b81526004016102d99061144b565b6000848152600260205260409020805484116107fe5760405162461bcd60e51b815260206004820152602560248201527f537465616c3a204e657720616d6f756e74206d757374206578636565642063756044820152641c9c995b9d60da1b60648201526084016102d9565b60038101546001600160a01b0316330361085a5760405162461bcd60e51b815260206004820152601e60248201527f537465616c3a2043616e6e6f7420737465616c206f776e20626f756e7479000060448201526064016102d9565b600381015481546001600160a01b03909116906000606461087c600584611498565b61088691906114b5565b9050600061089482846114d7565b8886556003860180546001600160a01b031916339081179091556040516323b872dd60e01b81526004810191909152306024820152604481018a90529091507f00000000000000000000000000000000000000000000000000000000000000006001600160a01b0316906323b872dd906064016020604051808303816000875af1158015610926573d6000803e3d6000fd5b505050506040513d601f19601f8201168201806040525081019061094a91906114ea565b6109965760405162461bcd60e51b815260206004820152601b60248201527f537465616c3a2055534443207472616e73666572206661696c6564000000000060448201526064016102d9565b60405163a9059cbb60e01b81526001600160a01b038581166004830152602482018390527f0000000000000000000000000000000000000000000000000000000000000000169063a9059cbb906044016020604051808303816000875af1158015610a05573d6000803e3d6000fd5b505050506040513d601f19601f82011682018060405250810190610a2991906114ea565b610a755760405162461bcd60e51b815260206004820152601d60248201527f537465616c3a20526566756e64207472616e73666572206661696c656400000060448201526064016102d9565b60405163a9059cbb60e01b81526001600160a01b037f000000000000000000000000000000000000000000000000000000000000000081166004830152602482018490527f0000000000000000000000000000000000000000000000000000000000000000169063a9059cbb906044016020604051808303816000875af1158015610b04573d6000803e3d6000fd5b505050506040513d601f19601f82011682018060405250810190610b2891906114ea565b610b745760405162461bcd60e51b815260206004820181905260248201527f537465616c3a20486f75736520666565207472616e73666572206661696c656460448201526064016102d9565b60408051848152602081018a905290810183905233906001600160a01b038616908b907fd99dabce2bb82df3040289dc261a836e43dfd0b3ba1ee9bd99d6b7f29c7ad5e79060600160405180910390a450505050505050610bd460018055565b5050565b610be061128b565b610bea60006112b8565b565b610bf461128b565b7f00000000000000000000000000000000000000000000000000000000000000006001600160a01b0316826001600160a01b031603610c6a5760405162461bcd60e51b815260206004820152601260248201527143616e6e6f7420726573637565205553444360701b60448201526064016102d9565b816001600160a01b031663a9059cbb610c8b6000546001600160a01b031690565b6040516001600160e01b031960e084901b1681526001600160a01b039091166004820152602481018490526044016020604051808303816000875af1158015610cd8573d6000803e3d6000fd5b505050506040513d601f19601f82011682018060405250810190610cfc91906114ea565b505050565b610d0961128b565b600380546001600160a01b0319166001600160a01b0392909216919091179055565b610d3361125b565b6003546001600160a01b03163314610d8d5760405162461bcd60e51b815260206004820152601a60248201527f426f756e74793a204e6f7420746865204149205265666572656500000000000060448201526064016102d9565b6000828152600260205260409020548290610dba5760405162461bcd60e51b81526004016102d99061141b565b6000838152600260205260409020600301548390600160a01b900460ff1615610df55760405162461bcd60e51b81526004016102d99061144b565b6000848152600260205260409081902060038101805460ff60a01b1916600160a01b1790558054915163a9059cbb60e01b81526001600160a01b038681166004830152602482018490529192917f0000000000000000000000000000000000000000000000000000000000000000169063a9059cbb906044016020604051808303816000875af1158015610e8d573d6000803e3d6000fd5b505050506040513d601f19601f82011682018060405250810190610eb191906114ea565b610efd5760405162461bcd60e51b815260206004820152601e60248201527f526566756e643a205374616b6572207472616e73666572206661696c6564000060448201526064016102d9565b846001600160a01b0316867fd383a4e526cb44a42c48ae8f227b915fad994053b8b7c8d3d00dc263901ef42683604051610f3991815260200190565b60405180910390a3505050600083815260026020819052604082209182556001820180546001600160a01b03199081169091559082018054909116905560030180546001600160a81b031916905550610bd460018055565b610f9961125b565b60008111610ffa5760405162461bcd60e51b815260206004820152602860248201527f426f756e74793a20416d6f756e74206d7573742062652067726561746572207460448201526768616e207a65726f60c01b60648201526084016102d9565b6000848152600260205260409020541561104f5760405162461bcd60e51b8152602060048201526016602482015275426f756e74793a20416c72656164792065786973747360501b60448201526064016102d9565b6040516323b872dd60e01b8152336004820152306024820152604481018290527f00000000000000000000000000000000000000000000000000000000000000006001600160a01b0316906323b872dd906064016020604051808303816000875af11580156110c2573d6000803e3d6000fd5b505050506040513d601f19601f820116820180604052508101906110e691906114ea565b6111325760405162461bcd60e51b815260206004820152601c60248201527f426f756e74793a2055534443207472616e73666572206661696c65640000000060448201526064016102d9565b6040805160a0810182528281526001600160a01b03808616602080840191825286831684860190815233606086018181526000608088018181528d8252600295869052908990209751885594516001880180549188166001600160a01b031992831617905592519387018054948716949093169390931790915590516003909401805492511515600160a01b026001600160a81b03199093169490931693909317179055905185907f852aed4574f121f6856219b92287de44fdb12117c8163897bfed59e49a40bae0906112099085815260200190565b60405180910390a361121a60018055565b50505050565b61122861128b565b6001600160a01b03811661125257604051631e4fbdf760e01b8152600060048201526024016102d9565b61071f816112b8565b60026001540361127e57604051633ee5aeb560e01b815260040160405180910390fd5b6002600155565b60018055565b6000546001600160a01b03163314610bea5760405163118cdaa760e01b81523360048201526024016102d9565b600080546001600160a01b038381166001600160a01b0319831681178455604051919092169283917f8be0079c531659141344cd1fd0a4f28419497f9722a3daafe3b4186f6b6457e09190a35050565b60006020828403121561131a57600080fd5b5035919050565b6000806040838503121561133457600080fd5b50508035926020909101359150565b80356001600160a01b038116811461135a57600080fd5b919050565b6000806040838503121561137257600080fd5b61137b83611343565b946020939093013593505050565b60006020828403121561139b57600080fd5b6113a482611343565b9392505050565b600080604083850312156113be57600080fd5b823591506113ce60208401611343565b90509250929050565b600080600080608085870312156113ed57600080fd5b843593506113fd60208601611343565b925061140b60408601611343565b9396929550929360600135925050565b602080825260169082015275109bdd5b9d1e4e88111bd95cc81b9bdd08195e1a5cdd60521b604082015260600190565b60208082526019908201527f426f756e74793a20416c72656164792070726f63657373656400000000000000604082015260600190565b634e487b7160e01b600052601160045260246000fd5b80820281158282048414176114af576114af611482565b92915050565b6000826114d257634e487b7160e01b600052601260045260246000fd5b500490565b818103818111156114af576114af611482565b6000602082840312156114fc57600080fd5b815180151581146113a457600080fdfea26469706673582212206135af8141297a5de775d87c6d84deb8d6baa6433f7d2eedf3b862d528f31ad264736f6c63430008140033",
  "linkReferences": {},
  "deployedLinkReferences": {}
}