{
  "_format": "hh-sol-artifact-1",
  "contractName": "BaseDareBounty",
  "sourceName": "contracts/BaseDareBounty.sol",
  "abi": [
    {
      "inputs": [
        {
          "internalType": "address",
          "name": "_usdc",
          "type": "address"
        },
        {
          "internalType": "address",
          "name": "_houseWallet",
          "type": "address"
        }
      ],
      "stateMutability": "nonpayable",
      "type": "constructor"
    },
    {
      "inputs": [
        {
          "internalType": "address",
          "name": "owner",
          "type": "address"
        }
      ],
      "name": "OwnableInvalidOwner",
      "type": "error"
    },
    {
      "inputs": [
        {
          "internalType": "address",
          "name": "account",
          "type": "address"
        }
      ],
      "name": "OwnableUnauthorizedAccount",
      "type": "error"
    },
    {
      "anonymous": false,
      "inputs": [
        {
          "indexed": true,
          "internalType": "uint256",
          "name": "dareId",
          "type": "uint256"
        },
        {
          "indexed": false,
          "internalType": "uint256",
          "name": "streamerAmount",
          "type": "uint256"
        },
        {
          "indexed": false,
          "internalType": "uint256",
          "name": "houseFee",
          "type": "uint256"
        },
        {
          "indexed": false,
          "internalType": "uint256",
          "name": "referrerFee",
          "type": "uint256"
        }
      ],
      "name": "BountyPayout",
      "type": "event"
    },
    {
      "anonymous": false,
      "inputs": [
        {
          "indexed": true,
          "internalType": "uint256",
          "name": "dareId",
          "type": "uint256"
        },
        {
          "indexed": true,
          "internalType": "address",
          "name": "refundRecipient",
          "type": "address"
        },
        {
          "indexed": false,
          "internalType": "uint256",
          "name": "amount",
          "type": "uint256"
        }
      ],
      "name": "BountyRefund",
      "type": "event"
    },
    {
      "anonymous": false,
      "inputs": [
        {
          "indexed": true,
          "internalType": "uint256",
          "name": "dareId",
          "type": "uint256"
        },
        {
          "indexed": true,
          "internalType": "address",
          "name": "staker",
          "type": "address"
        },
        {
          "indexed": false,
          "internalType": "uint256",
          "name": "amount",
          "type": "uint256"
        }
      ],
      "name": "BountyStaked",
      "type": "event"
    },
    {
      "anonymous": false,
      "inputs": [
        {
          "indexed": true,
          "internalType": "address",
          "name": "previousOwner",
          "type": "address"
        },
        {
          "indexed": true,
          "internalType": "address",
          "name": "newOwner",
          "type": "address"
        }
      ],
      "name": "OwnershipTransferred",
      "type": "event"
    },
    {
      "inputs": [],
      "name": "AI_REFEREE_ADDRESS",
      "outputs": [
        {
          "internalType": "address",
          "name": "",
          "type": "address"
        }
      ],
      "stateMutability": "view",
      "type": "function"
    },
    {
      "inputs": [],
      "name": "HOUSE_WALLET",
      "outputs": [
        {
          "internalType": "address",
          "name": "",
          "type": "address"
        }
      ],
      "stateMutability": "view",
      "type": "function"
    },
    {
      "inputs": [],
      "name": "USDC",
      "outputs": [
        {
          "internalType": "contract IERC20",
          "name": "",
          "type": "address"
        }
      ],
      "stateMutability": "view",
      "type": "function"
    },
    {
      "inputs": [
        {
          "internalType": "uint256",
          "name": "",
          "type": "uint256"
        }
      ],
      "name": "bounties",
      "outputs": [
        {
          "internalType": "uint256",
          "name": "amount",
          "type": "uint256"
        },
        {
          "internalType": "address payable",
          "name": "streamer",
          "type": "address"
        },
        {
          "internalType": "address payable",
          "name": "referrer",
          "type": "address"
        },
        {
          "internalType": "bool",
          "name": "isVerified",
          "type": "bool"
        }
      ],
      "stateMutability": "view",
      "type": "function"
    },
    {
      "inputs": [],
      "name": "owner",
      "outputs": [
        {
          "internalType": "address",
          "name": "",
          "type": "address"
        }
      ],
      "stateMutability": "view",
      "type": "function"
    },
    {
      "inputs": [
        {
          "internalType": "uint256",
          "name": "_dareId",
          "type": "uint256"
        },
        {
          "internalType": "address",
          "name": "_staker",
          "type": "address"
        }
      ],
      "name": "refundStaker",
      "outputs": [],
      "stateMutability": "nonpayable",
      "type": "function"
    },
    {
      "inputs": [],
      "name": "renounceOwnership",
      "outputs": [],
      "stateMutability": "nonpayable",
      "type": "function"
    },
    {
      "inputs": [
        {
          "internalType": "address",
          "name": "_token",
          "type": "address"
        },
        {
          "internalType": "uint256",
          "name": "_amount",
          "type": "uint256"
        }
      ],
      "name": "rescueERC20",
      "outputs": [],
      "stateMutability": "nonpayable",
      "type": "function"
    },
    {
      "inputs": [
        {
          "internalType": "address",
          "name": "_newReferee",
          "type": "address"
        }
      ],
      "name": "setAIRefereeAddress",
      "outputs": [],
      "stateMutability": "nonpayable",
      "type": "function"
    },
    {
      "inputs": [
        {
          "internalType": "uint256",
          "name": "_dareId",
          "type": "uint256"
        },
        {
          "internalType": "address",
          "name": "_streamer",
          "type": "address"
        },
        {
          "internalType": "address",
          "name": "_referrer",
          "type": "address"
        },
        {
          "internalType": "uint256",
          "name": "_amount",
          "type": "uint256"
        }
      ],
      "name": "stakeBounty",
      "outputs": [],
      "stateMutability": "nonpayable",
      "type": "function"
    },
    {
      "inputs": [
        {
          "internalType": "address",
          "name": "newOwner",
          "type": "address"
        }
      ],
      "name": "transferOwnership",
      "outputs": [],
      "stateMutability": "nonpayable",
      "type": "function"
    },
    {
      "inputs": [
        {
          "internalType": "uint256",
          "name": "_dareId",
          "type": "uint256"
        }
      ],
      "name": "verifyAndPayout",
      "outputs": [],
      "stateMutability": "nonpayable",
      "type": "function"
    }
  ],
  "bytecode": "0x60c060405234801561001057600080fd5b5060405161111338038061111383398101604081905261002f916100e2565b338061005557604051631e4fbdf760e01b81526000600482015260240160405180910390fd5b61005e81610076565b506001600160a01b039182166080521660a052610115565b600080546001600160a01b038381166001600160a01b0319831681178455604051919092169283917f8be0079c531659141344cd1fd0a4f28419497f9722a3daafe3b4186f6b6457e09190a35050565b80516001600160a01b03811681146100dd57600080fd5b919050565b600080604083850312156100f557600080fd5b6100fe836100c6565b915061010c602084016100c6565b90509250929050565b60805160a051610fa961016a6000396000818160bd01526104b9015260008181610131015281816103e9015281816104e8015281816105cc01528181610724015281816109ac0152610bbb0152610fa96000f3fe608060405234801561001057600080fd5b50600436106100b35760003560e01c80638da5cb5b116100715780638da5cb5b146101665780639513b32414610177578063d8f4eb891461018a578063dc2f87441461019d578063e08b504b14610216578063f2fde38b1461022957600080fd5b8062578353146100b85780634b9a7c93146100fc5780636f8f219914610111578063715018a61461012457806389a302711461012c5780638cd4426d14610153575b600080fd5b6100df7f000000000000000000000000000000000000000000000000000000000000000081565b6040516001600160a01b0390911681526020015b60405180910390f35b61010f61010a366004610df8565b61023c565b005b6002546100df906001600160a01b031681565b61010f610706565b6100df7f000000000000000000000000000000000000000000000000000000000000000081565b61010f610161366004610e2d565b61071a565b6000546001600160a01b03166100df565b61010f610185366004610e57565b61082f565b61010f610198366004610e79565b610859565b6101e46101ab366004610df8565b60016020819052600091825260409091208054918101546002909101546001600160a01b0391821691811690600160a01b900460ff1684565b6040516100f394939291909384526001600160a01b039283166020850152911660408301521515606082015260800190565b61010f610224366004610ea5565b610ae3565b61010f610237366004610e57565b610d3d565b6002546001600160a01b0316331461029b5760405162461bcd60e51b815260206004820152601a60248201527f426f756e74793a204e6f7420746865204149205265666572656500000000000060448201526064015b60405180910390fd5b60008181526001602052604090205481906102f15760405162461bcd60e51b8152602060048201526016602482015275109bdd5b9d1e4e88111bd95cc81b9bdd08195e1a5cdd60521b6044820152606401610292565b60008281526001602052604090206002810154600160a01b900460ff16156103575760405162461bcd60e51b8152602060048201526019602482015278109bdd5b9d1e4e88105b1c9958591e481c1c9bd8d95cdcd959603a1b6044820152606401610292565b60028101805460ff60a01b1916600160a01b17905580546000606461037d600184610eff565b6103879190610f1c565b905060006064610398600a85610eff565b6103a29190610f1c565b90506000816103b18486610f3e565b6103bb9190610f3e565b600286015460405163a9059cbb60e01b81526001600160a01b039182166004820152602481018690529192507f0000000000000000000000000000000000000000000000000000000000000000169063a9059cbb906044016020604051808303816000875af1158015610432573d6000803e3d6000fd5b505050506040513d601f19601f820116820180604052508101906104569190610f51565b6104a25760405162461bcd60e51b815260206004820181905260248201527f5061796f75743a205265666572726572207472616e73666572206661696c65646044820152606401610292565b60405163a9059cbb60e01b81526001600160a01b037f000000000000000000000000000000000000000000000000000000000000000081166004830152602482018490527f0000000000000000000000000000000000000000000000000000000000000000169063a9059cbb906044016020604051808303816000875af1158015610531573d6000803e3d6000fd5b505050506040513d601f19601f820116820180604052508101906105559190610f51565b6105a15760405162461bcd60e51b815260206004820152601d60248201527f5061796f75743a20486f757365207472616e73666572206661696c65640000006044820152606401610292565b600185015460405163a9059cbb60e01b81526001600160a01b039182166004820152602481018390527f00000000000000000000000000000000000000000000000000000000000000009091169063a9059cbb906044016020604051808303816000875af1158015610617573d6000803e3d6000fd5b505050506040513d601f19601f8201168201806040525081019061063b9190610f51565b6106875760405162461bcd60e51b815260206004820181905260248201527f5061796f75743a2053747265616d6572207472616e73666572206661696c65646044820152606401610292565b604080518281526020810184905290810184905287907f42ce17271c51f5a58d1b95fcb0557bc1638da4c0072fd1429bc172e35b50e2159060600160405180910390a2505050600093845250506001602081905260408320928355820180546001600160a01b03191690555060020180546001600160a81b0319169055565b61070e610d7b565b6107186000610da8565b565b610722610d7b565b7f00000000000000000000000000000000000000000000000000000000000000006001600160a01b0316826001600160a01b0316036107985760405162461bcd60e51b815260206004820152601260248201527143616e6e6f7420726573637565205553444360701b6044820152606401610292565b816001600160a01b031663a9059cbb6107b96000546001600160a01b031690565b6040516001600160e01b031960e084901b1681526001600160a01b039091166004820152602481018490526044016020604051808303816000875af1158015610806573d6000803e3d6000fd5b505050506040513d601f19601f8201168201806040525081019061082a9190610f51565b505050565b610837610d7b565b600280546001600160a01b0319166001600160a01b0392909216919091179055565b6002546001600160a01b031633146108b35760405162461bcd60e51b815260206004820152601a60248201527f426f756e74793a204e6f742074686520414920526566657265650000000000006044820152606401610292565b60008281526001602052604090205482906109095760405162461bcd60e51b8152602060048201526016602482015275109bdd5b9d1e4e88111bd95cc81b9bdd08195e1a5cdd60521b6044820152606401610292565b60008381526001602052604090206002810154600160a01b900460ff161561096f5760405162461bcd60e51b8152602060048201526019602482015278109bdd5b9d1e4e88105b1c9958591e481c1c9bd8d95cdcd959603a1b6044820152606401610292565b60028101805460ff60a01b1916600160a01b179055805460405163a9059cbb60e01b81526001600160a01b038581166004830152602482018390527f0000000000000000000000000000000000000000000000000000000000000000169063a9059cbb906044016020604051808303816000875af11580156109f5573d6000803e3d6000fd5b505050506040513d601f19601f82011682018060405250810190610a199190610f51565b610a655760405162461bcd60e51b815260206004820152601e60248201527f526566756e643a205374616b6572207472616e73666572206661696c656400006044820152606401610292565b836001600160a01b0316857fd383a4e526cb44a42c48ae8f227b915fad994053b8b7c8d3d00dc263901ef42683604051610aa191815260200190565b60405180910390a35050506000918252506001602081905260408220918255810180546001600160a01b031916905560020180546001600160a81b0319169055565b60008111610b445760405162461bcd60e51b815260206004820152602860248201527f426f756e74793a20416d6f756e74206d7573742062652067726561746572207460448201526768616e207a65726f60c01b6064820152608401610292565b60008481526001602052604090205415610b995760405162461bcd60e51b8152602060048201526016602482015275426f756e74793a20416c72656164792065786973747360501b6044820152606401610292565b6040516323b872dd60e01b8152336004820152306024820152604481018290527f00000000000000000000000000000000000000000000000000000000000000006001600160a01b0316906323b872dd906064016020604051808303816000875af1158015610c0c573d6000803e3d6000fd5b505050506040513d601f19601f82011682018060405250810190610c309190610f51565b610c7c5760405162461bcd60e51b815260206004820152601c60248201527f426f756e74793a2055534443207472616e73666572206661696c6564000000006044820152606401610292565b604080516080810182528281526001600160a01b0385811660208084019182528683168486019081526000606086018181528b825260018085529188902096518755935190860180549186166001600160a01b0319909216919091179055516002909401805492511515600160a01b026001600160a81b031990931694909316939093171790559051828152339186917f852aed4574f121f6856219b92287de44fdb12117c8163897bfed59e49a40bae0910160405180910390a350505050565b610d45610d7b565b6001600160a01b038116610d6f57604051631e4fbdf760e01b815260006004820152602401610292565b610d7881610da8565b50565b6000546001600160a01b031633146107185760405163118cdaa760e01b8152336004820152602401610292565b600080546001600160a01b038381166001600160a01b0319831681178455604051919092169283917f8be0079c531659141344cd1fd0a4f28419497f9722a3daafe3b4186f6b6457e09190a35050565b600060208284031215610e0a57600080fd5b5035919050565b80356001600160a01b0381168114610e2857600080fd5b919050565b60008060408385031215610e4057600080fd5b610e4983610e11565b946020939093013593505050565b600060208284031215610e6957600080fd5b610e7282610e11565b9392505050565b60008060408385031215610e8c57600080fd5b82359150610e9c60208401610e11565b90509250929050565b60008060008060808587031215610ebb57600080fd5b84359350610ecb60208601610e11565b9250610ed960408601610e11565b9396929550929360600135925050565b634e487b7160e01b600052601160045260246000fd5b8082028115828204841417610f1657610f16610ee9565b92915050565b600082610f3957634e487b7160e01b600052601260045260246000fd5b500490565b81810381811115610f1657610f16610ee9565b600060208284031215610f6357600080fd5b81518015158114610e7257600080fdfea2646970667358221220821414c0482bf096dc9210be9f0264afd14dcfe08cc2fdfa7c2a2476f1683fab64736f6c63430008140033",
  "linkReferences": {},
  "deployedLinkReferences": {}
}