{
  "_format": "hh-sol-artifact-1",
  "contractName": "BaseDareBounty",
  "sourceName": "contracts/BaseDareBounty.sol",
  "abi": [
    {
      "inputs": [
        {
          "internalType": "address",
          "name": "_usdc",
          "type": "address"
        },
        {
          "internalType": "address",
          "name": "_platformWallet",
          "type": "address"
        }
      ],
      "stateMutability": "nonpayable",
      "type": "constructor"
    },
    {
      "inputs": [
        {
          "internalType": "address",
          "name": "owner",
          "type": "address"
        }
      ],
      "name": "OwnableInvalidOwner",
      "type": "error"
    },
    {
      "inputs": [
        {
          "internalType": "address",
          "name": "account",
          "type": "address"
        }
      ],
      "name": "OwnableUnauthorizedAccount",
      "type": "error"
    },
    {
      "inputs": [],
      "name": "ReentrancyGuardReentrantCall",
      "type": "error"
    },
    {
      "anonymous": false,
      "inputs": [
        {
          "indexed": true,
          "internalType": "uint256",
          "name": "dareId",
          "type": "uint256"
        },
        {
          "indexed": true,
          "internalType": "address",
          "name": "backer",
          "type": "address"
        },
        {
          "indexed": false,
          "internalType": "uint256",
          "name": "amount",
          "type": "uint256"
        }
      ],
      "name": "BountyFunded",
      "type": "event"
    },
    {
      "anonymous": false,
      "inputs": [
        {
          "indexed": true,
          "internalType": "uint256",
          "name": "dareId",
          "type": "uint256"
        },
        {
          "indexed": false,
          "internalType": "uint256",
          "name": "streamerAmount",
          "type": "uint256"
        },
        {
          "indexed": false,
          "internalType": "uint256",
          "name": "platformFee",
          "type": "uint256"
        },
        {
          "indexed": false,
          "internalType": "uint256",
          "name": "referrerFee",
          "type": "uint256"
        }
      ],
      "name": "BountyPayout",
      "type": "event"
    },
    {
      "anonymous": false,
      "inputs": [
        {
          "indexed": true,
          "internalType": "uint256",
          "name": "dareId",
          "type": "uint256"
        },
        {
          "indexed": true,
          "internalType": "address",
          "name": "refundRecipient",
          "type": "address"
        },
        {
          "indexed": false,
          "internalType": "uint256",
          "name": "amount",
          "type": "uint256"
        }
      ],
      "name": "BountyRefund",
      "type": "event"
    },
    {
      "anonymous": false,
      "inputs": [
        {
          "indexed": true,
          "internalType": "address",
          "name": "previousOwner",
          "type": "address"
        },
        {
          "indexed": true,
          "internalType": "address",
          "name": "newOwner",
          "type": "address"
        }
      ],
      "name": "OwnershipTransferred",
      "type": "event"
    },
    {
      "inputs": [],
      "name": "AI_REFEREE_ADDRESS",
      "outputs": [
        {
          "internalType": "address",
          "name": "",
          "type": "address"
        }
      ],
      "stateMutability": "view",
      "type": "function"
    },
    {
      "inputs": [],
      "name": "PLATFORM_WALLET",
      "outputs": [
        {
          "internalType": "address",
          "name": "",
          "type": "address"
        }
      ],
      "stateMutability": "view",
      "type": "function"
    },
    {
      "inputs": [],
      "name": "USDC",
      "outputs": [
        {
          "internalType": "contract IERC20",
          "name": "",
          "type": "address"
        }
      ],
      "stateMutability": "view",
      "type": "function"
    },
    {
      "inputs": [
        {
          "internalType": "uint256",
          "name": "",
          "type": "uint256"
        }
      ],
      "name": "bounties",
      "outputs": [
        {
          "internalType": "uint256",
          "name": "amount",
          "type": "uint256"
        },
        {
          "internalType": "address payable",
          "name": "streamer",
          "type": "address"
        },
        {
          "internalType": "address payable",
          "name": "referrer",
          "type": "address"
        },
        {
          "internalType": "address",
          "name": "backer",
          "type": "address"
        },
        {
          "internalType": "bool",
          "name": "isVerified",
          "type": "bool"
        }
      ],
      "stateMutability": "view",
      "type": "function"
    },
    {
      "inputs": [
        {
          "internalType": "uint256",
          "name": "_dareId",
          "type": "uint256"
        },
        {
          "internalType": "address",
          "name": "_streamer",
          "type": "address"
        },
        {
          "internalType": "address",
          "name": "_referrer",
          "type": "address"
        },
        {
          "internalType": "uint256",
          "name": "_amount",
          "type": "uint256"
        }
      ],
      "name": "fundBounty",
      "outputs": [],
      "stateMutability": "nonpayable",
      "type": "function"
    },
    {
      "inputs": [],
      "name": "owner",
      "outputs": [
        {
          "internalType": "address",
          "name": "",
          "type": "address"
        }
      ],
      "stateMutability": "view",
      "type": "function"
    },
    {
      "inputs": [
        {
          "internalType": "uint256",
          "name": "_dareId",
          "type": "uint256"
        }
      ],
      "name": "refundBacker",
      "outputs": [],
      "stateMutability": "nonpayable",
      "type": "function"
    },
    {
      "inputs": [],
      "name": "renounceOwnership",
      "outputs": [],
      "stateMutability": "nonpayable",
      "type": "function"
    },
    {
      "inputs": [
        {
          "internalType": "address",
          "name": "_token",
          "type": "address"
        },
        {
          "internalType": "uint256",
          "name": "_amount",
          "type": "uint256"
        }
      ],
      "name": "rescueERC20",
      "outputs": [],
      "stateMutability": "nonpayable",
      "type": "function"
    },
    {
      "inputs": [
        {
          "internalType": "address",
          "name": "_newReferee",
          "type": "address"
        }
      ],
      "name": "setAIRefereeAddress",
      "outputs": [],
      "stateMutability": "nonpayable",
      "type": "function"
    },
    {
      "inputs": [
        {
          "internalType": "address",
          "name": "newOwner",
          "type": "address"
        }
      ],
      "name": "transferOwnership",
      "outputs": [],
      "stateMutability": "nonpayable",
      "type": "function"
    },
    {
      "inputs": [
        {
          "internalType": "uint256",
          "name": "_dareId",
          "type": "uint256"
        }
      ],
      "name": "verifyAndPayout",
      "outputs": [],
      "stateMutability": "nonpayable",
      "type": "function"
    }
  ],
  "bytecode": "0x60c060405234801561001057600080fd5b5060405161121a38038061121a83398101604081905261002f916100e6565b338061005557604051631e4fbdf760e01b81526000600482015260240160405180910390fd5b61005e8161007a565b50600180556001600160a01b039182166080521660a052610119565b600080546001600160a01b038381166001600160a01b0319831681178455604051919092169283917f8be0079c531659141344cd1fd0a4f28419497f9722a3daafe3b4186f6b6457e09190a35050565b80516001600160a01b03811681146100e157600080fd5b919050565b600080604083850312156100f957600080fd5b610102836100ca565b9150610110602084016100ca565b90509250929050565b60805160a0516110ab61016f6000396000818161021901526104e201526000818161010b0152818161041201528181610511015281816105f50152818161076801528181610a600152610c8f01526110ab6000f3fe608060405234801561001057600080fd5b50600436106100b45760003560e01c80639513b324116100715780639513b32414610151578063aec208c514610164578063d382787814610177578063dc2f87441461018a578063eb8b12d414610214578063f2fde38b1461023b57600080fd5b80634b9a7c93146100b95780636f8f2199146100ce578063715018a6146100fe57806389a30271146101065780638cd4426d1461012d5780638da5cb5b14610140575b600080fd5b6100cc6100c7366004610f26565b61024e565b005b6003546100e1906001600160a01b031681565b6040516001600160a01b0390911681526020015b60405180910390f35b6100cc61074a565b6100e17f000000000000000000000000000000000000000000000000000000000000000081565b6100cc61013b366004610f5b565b61075e565b6000546001600160a01b03166100e1565b6100cc61015f366004610f85565b610873565b6100cc610172366004610f26565b61089d565b6100cc610185366004610fa7565b610baf565b6101dc610198366004610f26565b6002602081905260009182526040909120805460018201549282015460039092015490926001600160a01b039081169281169190811690600160a01b900460ff1685565b604080519586526001600160a01b0394851660208701529284169285019290925290911660608301521515608082015260a0016100f5565b6100e17f000000000000000000000000000000000000000000000000000000000000000081565b6100cc610249366004610f85565b610e3e565b610256610e79565b6003546001600160a01b031633146102b55760405162461bcd60e51b815260206004820152601a60248201527f426f756e74793a204e6f7420746865204149205265666572656500000000000060448201526064015b60405180910390fd5b600081815260026020526040902054819061030b5760405162461bcd60e51b8152602060048201526016602482015275109bdd5b9d1e4e88111bd95cc81b9bdd08195e1a5cdd60521b60448201526064016102ac565b6000828152600260205260409020600301548290600160a01b900460ff16156103725760405162461bcd60e51b8152602060048201526019602482015278109bdd5b9d1e4e88105b1c9958591e481c1c9bd8d95cdcd959603a1b60448201526064016102ac565b600083815260026020526040812060038101805460ff60a01b1916600160a01b1790558054909160646103a6600184611001565b6103b0919061101e565b9050600060646103c1600a85611001565b6103cb919061101e565b90506000816103da8486611040565b6103e49190611040565b600286015460405163a9059cbb60e01b81526001600160a01b039182166004820152602481018690529192507f0000000000000000000000000000000000000000000000000000000000000000169063a9059cbb906044016020604051808303816000875af115801561045b573d6000803e3d6000fd5b505050506040513d601f19601f8201168201806040525081019061047f9190611053565b6104cb5760405162461bcd60e51b815260206004820181905260248201527f5061796f75743a205265666572726572207472616e73666572206661696c656460448201526064016102ac565b60405163a9059cbb60e01b81526001600160a01b037f000000000000000000000000000000000000000000000000000000000000000081166004830152602482018490527f0000000000000000000000000000000000000000000000000000000000000000169063a9059cbb906044016020604051808303816000875af115801561055a573d6000803e3d6000fd5b505050506040513d601f19601f8201168201806040525081019061057e9190611053565b6105ca5760405162461bcd60e51b815260206004820181905260248201527f5061796f75743a20506c6174666f726d207472616e73666572206661696c656460448201526064016102ac565b600185015460405163a9059cbb60e01b81526001600160a01b039182166004820152602481018390527f00000000000000000000000000000000000000000000000000000000000000009091169063a9059cbb906044016020604051808303816000875af1158015610640573d6000803e3d6000fd5b505050506040513d601f19601f820116820180604052508101906106649190611053565b6106b05760405162461bcd60e51b815260206004820181905260248201527f5061796f75743a2053747265616d6572207472616e73666572206661696c656460448201526064016102ac565b604080518281526020810184905290810184905288907f42ce17271c51f5a58d1b95fcb0557bc1638da4c0072fd1429bc172e35b50e2159060600160405180910390a2505050600085815260026020819052604082209182556001820180546001600160a01b03199081169091559082018054909116905560030180546001600160a81b0319169055506107479250610ea3915050565b50565b610752610ea9565b61075c6000610ed6565b565b610766610ea9565b7f00000000000000000000000000000000000000000000000000000000000000006001600160a01b0316826001600160a01b0316036107dc5760405162461bcd60e51b815260206004820152601260248201527143616e6e6f7420726573637565205553444360701b60448201526064016102ac565b816001600160a01b031663a9059cbb6107fd6000546001600160a01b031690565b6040516001600160e01b031960e084901b1681526001600160a01b039091166004820152602481018490526044016020604051808303816000875af115801561084a573d6000803e3d6000fd5b505050506040513d601f19601f8201168201806040525081019061086e9190611053565b505050565b61087b610ea9565b600380546001600160a01b0319166001600160a01b0392909216919091179055565b6108a5610e79565b6003546001600160a01b031633146108ff5760405162461bcd60e51b815260206004820152601a60248201527f426f756e74793a204e6f7420746865204149205265666572656500000000000060448201526064016102ac565b60008181526002602052604090205481906109555760405162461bcd60e51b8152602060048201526016602482015275109bdd5b9d1e4e88111bd95cc81b9bdd08195e1a5cdd60521b60448201526064016102ac565b6000828152600260205260409020600301548290600160a01b900460ff16156109bc5760405162461bcd60e51b8152602060048201526019602482015278109bdd5b9d1e4e88105b1c9958591e481c1c9bd8d95cdcd959603a1b60448201526064016102ac565b600083815260026020526040902060038101805460ff60a01b198116600160a01b179091558154906001600160a01b031680610a3a5760405162461bcd60e51b815260206004820152601e60248201527f526566756e643a20496e76616c6964206261636b65722061646472657373000060448201526064016102ac565b60405163a9059cbb60e01b81526001600160a01b038281166004830152602482018490527f0000000000000000000000000000000000000000000000000000000000000000169063a9059cbb906044016020604051808303816000875af1158015610aa9573d6000803e3d6000fd5b505050506040513d601f19601f82011682018060405250810190610acd9190611053565b610b195760405162461bcd60e51b815260206004820152601e60248201527f526566756e643a204261636b6572207472616e73666572206661696c6564000060448201526064016102ac565b806001600160a01b0316867fd383a4e526cb44a42c48ae8f227b915fad994053b8b7c8d3d00dc263901ef42684604051610b5591815260200190565b60405180910390a3505050600083815260026020819052604082209182556001820180546001600160a01b03199081169091559082018054909116905560030180546001600160a81b031916905550610747905060018055565b610bb7610e79565b60008111610c185760405162461bcd60e51b815260206004820152602860248201527f426f756e74793a20416d6f756e74206d7573742062652067726561746572207460448201526768616e207a65726f60c01b60648201526084016102ac565b60008481526002602052604090205415610c6d5760405162461bcd60e51b8152602060048201526016602482015275426f756e74793a20416c72656164792065786973747360501b60448201526064016102ac565b6040516323b872dd60e01b8152336004820152306024820152604481018290527f00000000000000000000000000000000000000000000000000000000000000006001600160a01b0316906323b872dd906064016020604051808303816000875af1158015610ce0573d6000803e3d6000fd5b505050506040513d601f19601f82011682018060405250810190610d049190611053565b610d505760405162461bcd60e51b815260206004820152601c60248201527f426f756e74793a2055534443207472616e73666572206661696c65640000000060448201526064016102ac565b6040805160a0810182528281526001600160a01b03808616602080840191825286831684860190815233606086018181526000608088018181528d8252600295869052908990209751885594516001880180549188166001600160a01b031992831617905592519387018054948716949093169390931790915590516003909401805492511515600160a01b026001600160a81b03199093169490931693909317179055905185907f3e825074c5c000d3dd548e44a783fbeaffc4c7839bc6bd4d7e0a475f28dd794a90610e279085815260200190565b60405180910390a3610e3860018055565b50505050565b610e46610ea9565b6001600160a01b038116610e7057604051631e4fbdf760e01b8152600060048201526024016102ac565b61074781610ed6565b600260015403610e9c57604051633ee5aeb560e01b815260040160405180910390fd5b6002600155565b60018055565b6000546001600160a01b0316331461075c5760405163118cdaa760e01b81523360048201526024016102ac565b600080546001600160a01b038381166001600160a01b0319831681178455604051919092169283917f8be0079c531659141344cd1fd0a4f28419497f9722a3daafe3b4186f6b6457e09190a35050565b600060208284031215610f3857600080fd5b5035919050565b80356001600160a01b0381168114610f5657600080fd5b919050565b60008060408385031215610f6e57600080fd5b610f7783610f3f565b946020939093013593505050565b600060208284031215610f9757600080fd5b610fa082610f3f565b9392505050565b60008060008060808587031215610fbd57600080fd5b84359350610fcd60208601610f3f565b9250610fdb60408601610f3f565b9396929550929360600135925050565b634e487b7160e01b600052601160045260246000fd5b808202811582820484141761101857611018610feb565b92915050565b60008261103b57634e487b7160e01b600052601260045260246000fd5b500490565b8181038181111561101857611018610feb565b60006020828403121561106557600080fd5b81518015158114610fa057600080fdfea2646970667358221220e1df8b60256129003b33ef8d7c254d9b5b0140c51dac0a55d4405436858104df64736f6c63430008140033",
  "linkReferences": {},
  "deployedLinkReferences": {}
}