{"contracts/BaseDareProtocol.sol":{"BaseDareProtocol":{"abi":[{"inputs":[{"internalType":"address","name":"_oracleAddress","type":"address"},{"internalType":"address","name":"_usdcAddress","type":"address"}],"stateMutability":"nonpayable","type":"constructor"},{"inputs":[],"name":"EnforcedPause","type":"error"},{"inputs":[],"name":"ExpectedPause","type":"error"},{"inputs":[{"internalType":"address","name":"owner","type":"address"}],"name":"OwnableInvalidOwner","type":"error"},{"inputs":[{"internalType":"address","name":"account","type":"address"}],"name":"OwnableUnauthorizedAccount","type":"error"},{"inputs":[],"name":"ReentrancyGuardReentrantCall","type":"error"},{"inputs":[{"internalType":"address","name":"token","type":"address"}],"name":"SafeERC20FailedOperation","type":"error"},{"anonymous":false,"inputs":[{"indexed":true,"internalType":"uint256","name":"dareId","type":"uint256"},{"indexed":true,"internalType":"address","name":"backer","type":"address"},{"indexed":false,"internalType":"uint256","name":"amount","type":"uint256"}],"name":"CapitalInjected","type":"event"},{"anonymous":false,"inputs":[{"indexed":true,"internalType":"uint256","name":"dareId","type":"uint256"},{"indexed":true,"internalType":"address","name":"streamer","type":"address"},{"indexed":false,"internalType":"uint256","name":"amount","type":"uint256"},{"indexed":false,"internalType":"address","name":"referrer","type":"address"}],"name":"DareCreated","type":"event"},{"anonymous":false,"inputs":[{"indexed":true,"internalType":"uint256","name":"dareId","type":"uint256"},{"indexed":false,"internalType":"bytes","name":"proof","type":"bytes"},{"indexed":false,"internalType":"uint256","name":"payout","type":"uint256"}],"name":"DareVerified","type":"event"},{"anonymous":false,"inputs":[{"indexed":true,"internalType":"address","name":"owner","type":"address"},{"indexed":false,"internalType":"uint256","name":"amount","type":"uint256"}],"name":"FeesWithdrawn","type":"event"},{"anonymous":false,"inputs":[{"indexed":false,"internalType":"address","name":"newOracle","type":"address"}],"name":"OracleUpdated","type":"event"},{"anonymous":false,"inputs":[{"indexed":true,"internalType":"address","name":"previousOwner","type":"address"},{"indexed":true,"internalType":"address","name":"newOwner","type":"address"}],"name":"OwnershipTransferred","type":"event"},{"anonymous":false,"inputs":[{"indexed":false,"internalType":"address","name":"account","type":"address"}],"name":"Paused","type":"event"},{"anonymous":false,"inputs":[{"indexed":false,"internalType":"address","name":"account","type":"address"}],"name":"Unpaused","type":"event"},{"inputs":[],"name":"BASIS_POINTS","outputs":[{"internalType":"uint256","name":"","type":"uint256"}],"stateMutability":"view","type":"function"},{"inputs":[],"name":"accumulatedFees","outputs":[{"internalType":"uint256","name":"","type":"uint256"}],"stateMutability":"view","type":"function"},{"inputs":[{"internalType":"address","name":"_streamer","type":"address"},{"internalType":"uint256","name":"_amount","type":"uint256"},{"internalType":"address","name":"_referrer","type":"address"}],"name":"createDare","outputs":[],"stateMutability":"nonpayable","type":"function"},{"inputs":[{"internalType":"uint256","name":"","type":"uint256"}],"name":"dares","outputs":[{"internalType":"uint256","name":"id","type":"uint256"},{"internalType":"address","name":"creator","type":"address"},{"internalType":"address","name":"streamer","type":"address"},{"internalType":"uint256","name":"totalPot","type":"uint256"},{"internalType":"enum BaseDareProtocol.DareStatus","name":"status","type":"uint8"},{"internalType":"bool","name":"isBrandSponsored","type":"bool"},{"internalType":"bytes","name":"verificationProof","type":"bytes"},{"internalType":"address","name":"referrer","type":"address"}],"stateMutability":"view","type":"function"},{"inputs":[{"internalType":"uint256","name":"_dareId","type":"uint256"},{"internalType":"uint256","name":"_amount","type":"uint256"}],"name":"injectCapital","outputs":[],"stateMutability":"nonpayable","type":"function"},{"inputs":[],"name":"nextDareId","outputs":[{"internalType":"uint256","name":"","type":"uint256"}],"stateMutability":"view","type":"function"},{"inputs":[],"name":"oracleAddress","outputs":[{"internalType":"address","name":"","type":"address"}],"stateMutability":"view","type":"function"},{"inputs":[],"name":"owner","outputs":[{"internalType":"address","name":"","type":"address"}],"stateMutability":"view","type":"function"},{"inputs":[],"name":"pause","outputs":[],"stateMutability":"nonpayable","type":"function"},{"inputs":[],"name":"paused","outputs":[{"internalType":"bool","name":"","type":"bool"}],"stateMutability":"view","type":"function"},{"inputs":[],"name":"protocolFee","outputs":[{"internalType":"uint256","name":"","type":"uint256"}],"stateMutability":"view","type":"function"},{"inputs":[],"name":"referralFee","outputs":[{"internalType":"uint256","name":"","type":"uint256"}],"stateMutability":"view","type":"function"},{"inputs":[],"name":"renounceOwnership","outputs":[],"stateMutability":"nonpayable","type":"function"},{"inputs":[{"internalType":"address","name":"_newOracle","type":"address"}],"name":"setOracle","outputs":[],"stateMutability":"nonpayable","type":"function"},{"inputs":[{"internalType":"address","name":"newOwner","type":"address"}],"name":"transferOwnership","outputs":[],"stateMutability":"nonpayable","type":"function"},{"inputs":[],"name":"unpause","outputs":[],"stateMutability":"nonpayable","type":"function"},{"inputs":[],"name":"usdc","outputs":[{"internalType":"contract IERC20","name":"","type":"address"}],"stateMutability":"view","type":"function"},{"inputs":[{"internalType":"uint256","name":"_dareId","type":"uint256"},{"internalType":"bytes","name":"_proof","type":"bytes"}],"name":"verifyAndPayout","outputs":[],"stateMutability":"nonpayable","type":"function"},{"inputs":[],"name":"withdrawFees","outputs":[],"stateMutability":"nonpayable","type":"function"}],"evm":{"bytecode":{"linkReferences":{},"object":"60a06040526101f460035560646004553480156200001c57600080fd5b506040516200140f3803806200140f8339810160408190526200003f916200010e565b33806200006657604051631e4fbdf760e01b81526000600482015260240160405180910390fd5b6200007181620000a1565b506001805560028054610100600160a81b0319166101006001600160a01b03948516021790551660805262000146565b600080546001600160a01b038381166001600160a01b0319831681178455604051919092169283917f8be0079c531659141344cd1fd0a4f28419497f9722a3daafe3b4186f6b6457e09190a35050565b80516001600160a01b03811681146200010957600080fd5b919050565b600080604083850312156200012257600080fd5b6200012d83620000f1565b91506200013d60208401620000f1565b90509250929050565b60805161128a6200018560003960008181610153015281816103590152818161054f015281816105c10152818161067a01526108c1015261128a6000f3fe608060405234801561001057600080fd5b50600436106101215760003560e01c80637adbf973116100ad578063a89ae4ba11610071578063a89ae4ba1461023c578063b0e21e8a14610254578063bf7c0fa21461025d578063e1f1c4a714610270578063f2fde38b1461027957600080fd5b80637adbf973146101e05780638456cb59146101f357806384ae2bc6146101fb5780638da5cb5b146102045780639b95c1731461021557600080fd5b8063476343ee116100f4578063476343ee1461019a578063587f5ed7146101a25780635c975abb146101b9578063715018a6146101cf57806372c39e07146101d757600080fd5b8063386db353146101265780633cbcb9a71461013b5780633e413bee1461014e5780633f4ba83a14610192575b600080fd5b610139610134366004610d5d565b61028c565b005b610139610149366004610d7f565b6103eb565b6101757f000000000000000000000000000000000000000000000000000000000000000081565b6040516001600160a01b0390911681526020015b60405180910390f35b610139610638565b61013961064a565b6101ab60075481565b604051908152602001610189565b60025460ff166040519015158152602001610189565b6101396106f2565b6101ab60055481565b6101396101ee366004610e17565b610704565b610139610768565b6101ab60045481565b6000546001600160a01b0316610175565b610228610223366004610e39565b610778565b604051610189989796959493929190610e68565b6002546101759061010090046001600160a01b031681565b6101ab60035481565b61013961026b366004610f2c565b610862565b6101ab61271081565b610139610287366004610e17565b610a93565b610294610ad1565b61029c610af5565b60008281526006602052604081206004015460ff1660038111156102c2576102c2610e52565b146103065760405162461bcd60e51b815260206004820152600f60248201526e44617265206e6f742061637469766560881b60448201526064015b60405180910390fd5b6000811161034c5760405162461bcd60e51b8152602060048201526013602482015272139bc818d85c1a5d185b081c1c9bdd9a591959606a1b60448201526064016102fd565b6103816001600160a01b037f000000000000000000000000000000000000000000000000000000000000000016333084610b1f565b600082815260066020526040812060030180548392906103a2908490610f7e565b9091555050604051818152339083907f3df69e08425f97ba4e789c9ce9f8f2642e9a12b2855854855aff3d954071b4f99060200160405180910390a36103e760018055565b5050565b60025461010090046001600160a01b0316331461044a5760405162461bcd60e51b815260206004820152601d60248201527f4f6e6c79205472757468204d616368696e652063616e2076657269667900000060448201526064016102fd565b610452610ad1565b61045a610af5565b600083815260066020526040812090600482015460ff16600381111561048257610482610e52565b146104c15760405162461bcd60e51b815260206004820152600f60248201526e44617265206e6f742061637469766560881b60448201526064016102fd565b60048101805460ff19166002179055600581016104df838583611035565b50600061271060035483600301546104f791906110f6565b610501919061110d565b60068301549091506000906001600160a01b03161561057857612710600454846003015461052f91906110f6565b610539919061110d565b6006840154909150610578906001600160a01b037f00000000000000000000000000000000000000000000000000000000000000008116911683610b8c565b60008183856003015461058b919061112f565b610595919061112f565b905082600760008282546105a99190610f7e565b909155505060028401546105ea906001600160a01b037f00000000000000000000000000000000000000000000000000000000000000008116911683610b8c565b867f72deb7e2c34110882a2b0f69da11703dcb5c402b686755f58ba854b051b017e287878460405161061e93929190611142565b60405180910390a25050505061063360018055565b505050565b610640610bbd565b610648610bea565b565b610652610bbd565b6007805460009091556106a16106706000546001600160a01b031690565b6001600160a01b037f0000000000000000000000000000000000000000000000000000000000000000169083610b8c565b6000546001600160a01b03166001600160a01b03167fc0819c13be868895eb93e40eaceb96de976442fa1d404e5c55f14bb65a8c489a826040516106e791815260200190565b60405180910390a250565b6106fa610bbd565b6106486000610c3c565b61070c610bbd565b60028054610100600160a81b0319166101006001600160a01b038416908102919091179091556040519081527f3df77beb5db05fcdd70a30fc8adf3f83f9501b68579455adbd100b81809403949060200160405180910390a150565b610770610bbd565b610648610c8c565b60066020526000908152604090208054600182015460028301546003840154600485015460058601805495966001600160a01b03958616969490951694929360ff80841694610100909404169291906107d090610fad565b80601f01602080910402602001604051908101604052809291908181526020018280546107fc90610fad565b80156108495780601f1061081e57610100808354040283529160200191610849565b820191906000526020600020905b81548152906001019060200180831161082c57829003601f168201915b505050600690930154919250506001600160a01b031688565b61086a610ad1565b610872610af5565b600082116108b45760405162461bcd60e51b815260206004820152600f60248201526e4d757374207374616b65205553444360881b60448201526064016102fd565b6108e96001600160a01b037f000000000000000000000000000000000000000000000000000000000000000016333085610b1f565b60058054600091826108fa8361117b565b919050559050604051806101000160405280828152602001336001600160a01b03168152602001856001600160a01b031681526020018481526020016000600381111561094957610949610e52565b815260006020808301829052604080518083018252838152818501526001600160a01b0380881660609586015286845260068352928190208551815591850151600183810180549286166001600160a01b031993841617905591860151600284018054919095169116179092559183015160038084019190915560808401516004840180549193909260ff199092169184908111156109ea576109ea610e52565b021790555060a08201516004820180549115156101000261ff001990921691909117905560c08201516005820190610a229082611194565b5060e09190910151600690910180546001600160a01b0319166001600160a01b039283161790556040805185815284831660208201529186169183917ffe715f52f3769836ae98447cbab0ec46b29dbdc33509bc0dbb23b5800099a12c910160405180910390a35061063360018055565b610a9b610bbd565b6001600160a01b038116610ac557604051631e4fbdf760e01b8152600060048201526024016102fd565b610ace81610c3c565b50565b60025460ff16156106485760405163d93c066560e01b815260040160405180910390fd5b600260015403610b1857604051633ee5aeb560e01b815260040160405180910390fd5b6002600155565b6040516001600160a01b038481166024830152838116604483015260648201839052610b869186918216906323b872dd906084015b604051602081830303815290604052915060e01b6020820180516001600160e01b038381831617835250505050610cc9565b50505050565b6040516001600160a01b0383811660248301526044820183905261063391859182169063a9059cbb90606401610b54565b6000546001600160a01b031633146106485760405163118cdaa760e01b81523360048201526024016102fd565b610bf2610d3a565b6002805460ff191690557f5db9ee0a495bf2e6ff9c91a7834c1ba4fdd244a5e8aa4e537bd38aeae4b073aa335b6040516001600160a01b03909116815260200160405180910390a1565b600080546001600160a01b038381166001600160a01b0319831681178455604051919092169283917f8be0079c531659141344cd1fd0a4f28419497f9722a3daafe3b4186f6b6457e09190a35050565b610c94610ad1565b6002805460ff191660011790557f62e78cea01bee320cd4e420270b5ea74000d11b0c9f74754ebdbfc544b05a258610c1f3390565b600080602060008451602086016000885af180610cec576040513d6000823e3d81fd5b50506000513d91508115610d04578060011415610d11565b6001600160a01b0384163b155b15610b8657604051635274afe760e01b81526001600160a01b03851660048201526024016102fd565b60025460ff1661064857604051638dfc202b60e01b815260040160405180910390fd5b60008060408385031215610d7057600080fd5b50508035926020909101359150565b600080600060408486031215610d9457600080fd5b83359250602084013567ffffffffffffffff80821115610db357600080fd5b818601915086601f830112610dc757600080fd5b813581811115610dd657600080fd5b876020828501011115610de857600080fd5b6020830194508093505050509250925092565b80356001600160a01b0381168114610e1257600080fd5b919050565b600060208284031215610e2957600080fd5b610e3282610dfb565b9392505050565b600060208284031215610e4b57600080fd5b5035919050565b634e487b7160e01b600052602160045260246000fd5b60006101008a8352602060018060a01b03808c1682860152808b1660408601525088606085015260048810610ead57634e487b7160e01b600052602160045260246000fd5b87608085015286151560a08501528160c085015285518083860152600092505b80831015610eec57868301820151858401610120015291810191610ecd565b6101209250600083828701015282601f19601f8301168601019350505050610f1f60e08301846001600160a01b03169052565b9998505050505050505050565b600080600060608486031215610f4157600080fd5b610f4a84610dfb565b925060208401359150610f5f60408501610dfb565b90509250925092565b634e487b7160e01b600052601160045260246000fd5b80820180821115610f9157610f91610f68565b92915050565b634e487b7160e01b600052604160045260246000fd5b600181811c90821680610fc157607f821691505b602082108103610fe157634e487b7160e01b600052602260045260246000fd5b50919050565b601f82111561063357600081815260208120601f850160051c8101602086101561100e5750805b601f850160051c820191505b8181101561102d5782815560010161101a565b505050505050565b67ffffffffffffffff83111561104d5761104d610f97565b6110618361105b8354610fad565b83610fe7565b6000601f841160018114611095576000851561107d5750838201355b600019600387901b1c1916600186901b1783556110ef565b600083815260209020601f19861690835b828110156110c657868501358255602094850194600190920191016110a6565b50868210156110e35760001960f88860031b161c19848701351681555b505060018560011b0183555b5050505050565b8082028115828204841417610f9157610f91610f68565b60008261112a57634e487b7160e01b600052601260045260246000fd5b500490565b81810381811115610f9157610f91610f68565b604081528260408201528284606083013760006060848301015260006060601f19601f8601168301019050826020830152949350505050565b60006001820161118d5761118d610f68565b5060010190565b815167ffffffffffffffff8111156111ae576111ae610f97565b6111c2816111bc8454610fad565b84610fe7565b602080601f8311600181146111f757600084156111df5750858301515b600019600386901b1c1916600185901b17855561102d565b600085815260208120601f198616915b8281101561122657888601518255948401946001909101908401611207565b50858210156112445787850151600019600388901b60f8161c191681555b5050505050600190811b0190555056fea2646970667358221220dbb55724f3d76f47663598d82b9a9be99331ef373ff49d1da3a1e3cfb38b88a864736f6c63430008140033","opcodes":"PUSH1 0xA0 PUSH1 0x40 MSTORE PUSH2 0x1F4 PUSH1 0x3 SSTORE PUSH1 0x64 PUSH1 0x4 SSTORE CALLVALUE DUP1 ISZERO PUSH3 0x1C JUMPI PUSH1 0x0 DUP1 REVERT JUMPDEST POP PUSH1 0x40 MLOAD PUSH3 0x140F CODESIZE SUB DUP1 PUSH3 0x140F DUP4 CODECOPY DUP2 ADD PUSH1 0x40 DUP2 SWAP1 MSTORE PUSH3 0x3F SWAP2 PUSH3 0x10E JUMP JUMPDEST CALLER DUP1 PUSH3 0x66 JUMPI PUSH1 0x40 MLOAD PUSH4 0x1E4FBDF7 PUSH1 0xE0 SHL DUP2 MSTORE PUSH1 0x0 PUSH1 0x4 DUP3 ADD MSTORE PUSH1 0x24 ADD PUSH1 0x40 MLOAD DUP1 SWAP2 SUB SWAP1 REVERT JUMPDEST PUSH3 0x71 DUP2 PUSH3 0xA1 JUMP JUMPDEST POP PUSH1 0x1 DUP1 SSTORE PUSH1 0x2 DUP1 SLOAD PUSH2 0x100 PUSH1 0x1 PUSH1 0xA8 SHL SUB NOT AND PUSH2 0x100 PUSH1 0x1 PUSH1 0x1 PUSH1 0xA0 SHL SUB SWAP5 DUP6 AND MUL OR SWAP1 SSTORE AND PUSH1 0x80 MSTORE PUSH3 0x146 JUMP JUMPDEST PUSH1 0x0 DUP1 SLOAD PUSH1 0x1 PUSH1 0x1 PUSH1 0xA0 SHL SUB DUP4 DUP2 AND PUSH1 0x1 PUSH1 0x1 PUSH1 0xA0 SHL SUB NOT DUP4 AND DUP2 OR DUP5 SSTORE PUSH1 0x40 MLOAD SWAP2 SWAP1 SWAP3 AND SWAP3 DUP4 SWAP2 PUSH32 0x8BE0079C531659141344CD1FD0A4F28419497F9722A3DAAFE3B4186F6B6457E0 SWAP2 SWAP1 LOG3 POP POP JUMP JUMPDEST DUP1 MLOAD PUSH1 0x1 PUSH1 0x1 PUSH1 0xA0 SHL SUB DUP2 AND DUP2 EQ PUSH3 0x109 JUMPI PUSH1 0x0 DUP1 REVERT JUMPDEST SWAP2 SWAP1 POP JUMP JUMPDEST PUSH1 0x0 DUP1 PUSH1 0x40 DUP4 DUP6 SUB SLT ISZERO PUSH3 0x122 JUMPI PUSH1 0x0 DUP1 REVERT JUMPDEST PUSH3 0x12D DUP4 PUSH3 0xF1 JUMP JUMPDEST SWAP2 POP PUSH3 0x13D PUSH1 0x20 DUP5 ADD PUSH3 0xF1 JUMP JUMPDEST SWAP1 POP SWAP3 POP SWAP3 SWAP1 POP JUMP JUMPDEST PUSH1 0x80 MLOAD PUSH2 0x128A PUSH3 0x185 PUSH1 0x0 CODECOPY PUSH1 0x0 DUP2 DUP2 PUSH2 0x153 ADD MSTORE DUP2 DUP2 PUSH2 0x359 ADD MSTORE DUP2 DUP2 PUSH2 0x54F ADD MSTORE DUP2 DUP2 PUSH2 0x5C1 ADD MSTORE DUP2 DUP2 PUSH2 0x67A ADD MSTORE PUSH2 0x8C1 ADD MSTORE PUSH2 0x128A PUSH1 0x0 RETURN INVALID PUSH1 0x80 PUSH1 0x40 MSTORE CALLVALUE DUP1 ISZERO PUSH2 0x10 JUMPI PUSH1 0x0 DUP1 REVERT JUMPDEST POP PUSH1 0x4 CALLDATASIZE LT PUSH2 0x121 JUMPI PUSH1 0x0 CALLDATALOAD PUSH1 0xE0 SHR DUP1 PUSH4 0x7ADBF973 GT PUSH2 0xAD JUMPI DUP1 PUSH4 0xA89AE4BA GT PUSH2 0x71 JUMPI DUP1 PUSH4 0xA89AE4BA EQ PUSH2 0x23C JUMPI DUP1 PUSH4 0xB0E21E8A EQ PUSH2 0x254 JUMPI DUP1 PUSH4 0xBF7C0FA2 EQ PUSH2 0x25D JUMPI DUP1 PUSH4 0xE1F1C4A7 EQ PUSH2 0x270 JUMPI DUP1 PUSH4 0xF2FDE38B EQ PUSH2 0x279 JUMPI PUSH1 0x0 DUP1 REVERT JUMPDEST DUP1 PUSH4 0x7ADBF973 EQ PUSH2 0x1E0 JUMPI DUP1 PUSH4 0x8456CB59 EQ PUSH2 0x1F3 JUMPI DUP1 PUSH4 0x84AE2BC6 EQ PUSH2 0x1FB JUMPI DUP1 PUSH4 0x8DA5CB5B EQ PUSH2 0x204 JUMPI DUP1 PUSH4 0x9B95C173 EQ PUSH2 0x215 JUMPI PUSH1 0x0 DUP1 REVERT JUMPDEST DUP1 PUSH4 0x476343EE GT PUSH2 0xF4 JUMPI DUP1 PUSH4 0x476343EE EQ PUSH2 0x19A JUMPI DUP1 PUSH4 0x587F5ED7 EQ PUSH2 0x1A2 JUMPI DUP1 PUSH4 0x5C975ABB EQ PUSH2 0x1B9 JUMPI DUP1 PUSH4 0x715018A6 EQ PUSH2 0x1CF JUMPI DUP1 PUSH4 0x72C39E07 EQ PUSH2 0x1D7 JUMPI PUSH1 0x0 DUP1 REVERT JUMPDEST DUP1 PUSH4 0x386DB353 EQ PUSH2 0x126 JUMPI DUP1 PUSH4 0x3CBCB9A7 EQ PUSH2 0x13B JUMPI DUP1 PUSH4 0x3E413BEE EQ PUSH2 0x14E JUMPI DUP1 PUSH4 0x3F4BA83A EQ PUSH2 0x192 JUMPI JUMPDEST PUSH1 0x0 DUP1 REVERT JUMPDEST PUSH2 0x139 PUSH2 0x134 CALLDATASIZE PUSH1 0x4 PUSH2 0xD5D JUMP JUMPDEST PUSH2 0x28C JUMP JUMPDEST STOP JUMPDEST PUSH2 0x139 PUSH2 0x149 CALLDATASIZE PUSH1 0x4 PUSH2 0xD7F JUMP JUMPDEST PUSH2 0x3EB JUMP JUMPDEST PUSH2 0x175 PUSH32 0x0 DUP2 JUMP JUMPDEST PUSH1 0x40 MLOAD PUSH1 0x1 PUSH1 0x1 PUSH1 0xA0 SHL SUB SWAP1 SWAP2 AND DUP2 MSTORE PUSH1 0x20 ADD JUMPDEST PUSH1 0x40 MLOAD DUP1 SWAP2 SUB SWAP1 RETURN JUMPDEST PUSH2 0x139 PUSH2 0x638 JUMP JUMPDEST PUSH2 0x139 PUSH2 0x64A JUMP JUMPDEST PUSH2 0x1AB PUSH1 0x7 SLOAD DUP2 JUMP JUMPDEST PUSH1 0x40 MLOAD SWAP1 DUP2 MSTORE PUSH1 0x20 ADD PUSH2 0x189 JUMP JUMPDEST PUSH1 0x2 SLOAD PUSH1 0xFF AND PUSH1 0x40 MLOAD SWAP1 ISZERO ISZERO DUP2 MSTORE PUSH1 0x20 ADD PUSH2 0x189 JUMP JUMPDEST PUSH2 0x139 PUSH2 0x6F2 JUMP JUMPDEST PUSH2 0x1AB PUSH1 0x5 SLOAD DUP2 JUMP JUMPDEST PUSH2 0x139 PUSH2 0x1EE CALLDATASIZE PUSH1 0x4 PUSH2 0xE17 JUMP JUMPDEST PUSH2 0x704 JUMP JUMPDEST PUSH2 0x139 PUSH2 0x768 JUMP JUMPDEST PUSH2 0x1AB PUSH1 0x4 SLOAD DUP2 JUMP JUMPDEST PUSH1 0x0 SLOAD PUSH1 0x1 PUSH1 0x1 PUSH1 0xA0 SHL SUB AND PUSH2 0x175 JUMP JUMPDEST PUSH2 0x228 PUSH2 0x223 CALLDATASIZE PUSH1 0x4 PUSH2 0xE39 JUMP JUMPDEST PUSH2 0x778 JUMP JUMPDEST PUSH1 0x40 MLOAD PUSH2 0x189 SWAP9 SWAP8 SWAP7 SWAP6 SWAP5 SWAP4 SWAP3 SWAP2 SWAP1 PUSH2 0xE68 JUMP JUMPDEST PUSH1 0x2 SLOAD PUSH2 0x175 SWAP1 PUSH2 0x100 SWAP1 DIV PUSH1 0x1 PUSH1 0x1 PUSH1 0xA0 SHL SUB AND DUP2 JUMP JUMPDEST PUSH2 0x1AB PUSH1 0x3 SLOAD DUP2 JUMP JUMPDEST PUSH2 0x139 PUSH2 0x26B CALLDATASIZE PUSH1 0x4 PUSH2 0xF2C JUMP JUMPDEST PUSH2 0x862 JUMP JUMPDEST PUSH2 0x1AB PUSH2 0x2710 DUP2 JUMP JUMPDEST PUSH2 0x139 PUSH2 0x287 CALLDATASIZE PUSH1 0x4 PUSH2 0xE17 JUMP JUMPDEST PUSH2 0xA93 JUMP JUMPDEST PUSH2 0x294 PUSH2 0xAD1 JUMP JUMPDEST PUSH2 0x29C PUSH2 0xAF5 JUMP JUMPDEST PUSH1 0x0 DUP3 DUP2 MSTORE PUSH1 0x6 PUSH1 0x20 MSTORE PUSH1 0x40 DUP2 KECCAK256 PUSH1 0x4 ADD SLOAD PUSH1 0xFF AND PUSH1 0x3 DUP2 GT ISZERO PUSH2 0x2C2 JUMPI PUSH2 0x2C2 PUSH2 0xE52 JUMP JUMPDEST EQ PUSH2 0x306 JUMPI PUSH1 0x40 MLOAD PUSH3 0x461BCD PUSH1 0xE5 SHL DUP2 MSTORE PUSH1 0x20 PUSH1 0x4 DUP3 ADD MSTORE PUSH1 0xF PUSH1 0x24 DUP3 ADD MSTORE PUSH15 0x44617265206E6F7420616374697665 PUSH1 0x88 SHL PUSH1 0x44 DUP3 ADD MSTORE PUSH1 0x64 ADD JUMPDEST PUSH1 0x40 MLOAD DUP1 SWAP2 SUB SWAP1 REVERT JUMPDEST PUSH1 0x0 DUP2 GT PUSH2 0x34C JUMPI PUSH1 0x40 MLOAD PUSH3 0x461BCD PUSH1 0xE5 SHL DUP2 MSTORE PUSH1 0x20 PUSH1 0x4 DUP3 ADD MSTORE PUSH1 0x13 PUSH1 0x24 DUP3 ADD MSTORE PUSH19 0x139BC818D85C1A5D185B081C1C9BDD9A591959 PUSH1 0x6A SHL PUSH1 0x44 DUP3 ADD MSTORE PUSH1 0x64 ADD PUSH2 0x2FD JUMP JUMPDEST PUSH2 0x381 PUSH1 0x1 PUSH1 0x1 PUSH1 0xA0 SHL SUB PUSH32 0x0 AND CALLER ADDRESS DUP5 PUSH2 0xB1F JUMP JUMPDEST PUSH1 0x0 DUP3 DUP2 MSTORE PUSH1 0x6 PUSH1 0x20 MSTORE PUSH1 0x40 DUP2 KECCAK256 PUSH1 0x3 ADD DUP1 SLOAD DUP4 SWAP3 SWAP1 PUSH2 0x3A2 SWAP1 DUP5 SWAP1 PUSH2 0xF7E JUMP JUMPDEST SWAP1 SWAP2 SSTORE POP POP PUSH1 0x40 MLOAD DUP2 DUP2 MSTORE CALLER SWAP1 DUP4 SWAP1 PUSH32 0x3DF69E08425F97BA4E789C9CE9F8F2642E9A12B2855854855AFF3D954071B4F9 SWAP1 PUSH1 0x20 ADD PUSH1 0x40 MLOAD DUP1 SWAP2 SUB SWAP1 LOG3 PUSH2 0x3E7 PUSH1 0x1 DUP1 SSTORE JUMP JUMPDEST POP POP JUMP JUMPDEST PUSH1 0x2 SLOAD PUSH2 0x100 SWAP1 DIV PUSH1 0x1 PUSH1 0x1 PUSH1 0xA0 SHL SUB AND CALLER EQ PUSH2 0x44A JUMPI PUSH1 0x40 MLOAD PUSH3 0x461BCD PUSH1 0xE5 SHL DUP2 MSTORE PUSH1 0x20 PUSH1 0x4 DUP3 ADD MSTORE PUSH1 0x1D PUSH1 0x24 DUP3 ADD MSTORE PUSH32 0x4F6E6C79205472757468204D616368696E652063616E20766572696679000000 PUSH1 0x44 DUP3 ADD MSTORE PUSH1 0x64 ADD PUSH2 0x2FD JUMP JUMPDEST PUSH2 0x452 PUSH2 0xAD1 JUMP JUMPDEST PUSH2 0x45A PUSH2 0xAF5 JUMP JUMPDEST PUSH1 0x0 DUP4 DUP2 MSTORE PUSH1 0x6 PUSH1 0x20 MSTORE PUSH1 0x40 DUP2 KECCAK256 SWAP1 PUSH1 0x4 DUP3 ADD SLOAD PUSH1 0xFF AND PUSH1 0x3 DUP2 GT ISZERO PUSH2 0x482 JUMPI PUSH2 0x482 PUSH2 0xE52 JUMP JUMPDEST EQ PUSH2 0x4C1 JUMPI PUSH1 0x40 MLOAD PUSH3 0x461BCD PUSH1 0xE5 SHL DUP2 MSTORE PUSH1 0x20 PUSH1 0x4 DUP3 ADD MSTORE PUSH1 0xF PUSH1 0x24 DUP3 ADD MSTORE PUSH15 0x44617265206E6F7420616374697665 PUSH1 0x88 SHL PUSH1 0x44 DUP3 ADD MSTORE PUSH1 0x64 ADD PUSH2 0x2FD JUMP JUMPDEST PUSH1 0x4 DUP2 ADD DUP1 SLOAD PUSH1 0xFF NOT AND PUSH1 0x2 OR SWAP1 SSTORE PUSH1 0x5 DUP2 ADD PUSH2 0x4DF DUP4 DUP6 DUP4 PUSH2 0x1035 JUMP JUMPDEST POP PUSH1 0x0 PUSH2 0x2710 PUSH1 0x3 SLOAD DUP4 PUSH1 0x3 ADD SLOAD PUSH2 0x4F7 SWAP2 SWAP1 PUSH2 0x10F6 JUMP JUMPDEST PUSH2 0x501 SWAP2 SWAP1 PUSH2 0x110D JUMP JUMPDEST PUSH1 0x6 DUP4 ADD SLOAD SWAP1 SWAP2 POP PUSH1 0x0 SWAP1 PUSH1 0x1 PUSH1 0x1 PUSH1 0xA0 SHL SUB AND ISZERO PUSH2 0x578 JUMPI PUSH2 0x2710 PUSH1 0x4 SLOAD DUP5 PUSH1 0x3 ADD SLOAD PUSH2 0x52F SWAP2 SWAP1 PUSH2 0x10F6 JUMP JUMPDEST PUSH2 0x539 SWAP2 SWAP1 PUSH2 0x110D JUMP JUMPDEST PUSH1 0x6 DUP5 ADD SLOAD SWAP1 SWAP2 POP PUSH2 0x578 SWAP1 PUSH1 0x1 PUSH1 0x1 PUSH1 0xA0 SHL SUB PUSH32 0x0 DUP2 AND SWAP2 AND DUP4 PUSH2 0xB8C JUMP JUMPDEST PUSH1 0x0 DUP2 DUP4 DUP6 PUSH1 0x3 ADD SLOAD PUSH2 0x58B SWAP2 SWAP1 PUSH2 0x112F JUMP JUMPDEST PUSH2 0x595 SWAP2 SWAP1 PUSH2 0x112F JUMP JUMPDEST SWAP1 POP DUP3 PUSH1 0x7 PUSH1 0x0 DUP3 DUP3 SLOAD PUSH2 0x5A9 SWAP2 SWAP1 PUSH2 0xF7E JUMP JUMPDEST SWAP1 SWAP2 SSTORE POP POP PUSH1 0x2 DUP5 ADD SLOAD PUSH2 0x5EA SWAP1 PUSH1 0x1 PUSH1 0x1 PUSH1 0xA0 SHL SUB PUSH32 0x0 DUP2 AND SWAP2 AND DUP4 PUSH2 0xB8C JUMP JUMPDEST DUP7 PUSH32 0x72DEB7E2C34110882A2B0F69DA11703DCB5C402B686755F58BA854B051B017E2 DUP8 DUP8 DUP5 PUSH1 0x40 MLOAD PUSH2 0x61E SWAP4 SWAP3 SWAP2 SWAP1 PUSH2 0x1142 JUMP JUMPDEST PUSH1 0x40 MLOAD DUP1 SWAP2 SUB SWAP1 LOG2 POP POP POP POP PUSH2 0x633 PUSH1 0x1 DUP1 SSTORE JUMP JUMPDEST POP POP POP JUMP JUMPDEST PUSH2 0x640 PUSH2 0xBBD JUMP JUMPDEST PUSH2 0x648 PUSH2 0xBEA JUMP JUMPDEST JUMP JUMPDEST PUSH2 0x652 PUSH2 0xBBD JUMP JUMPDEST PUSH1 0x7 DUP1 SLOAD PUSH1 0x0 SWAP1 SWAP2 SSTORE PUSH2 0x6A1 PUSH2 0x670 PUSH1 0x0 SLOAD PUSH1 0x1 PUSH1 0x1 PUSH1 0xA0 SHL SUB AND SWAP1 JUMP JUMPDEST PUSH1 0x1 PUSH1 0x1 PUSH1 0xA0 SHL SUB PUSH32 0x0 AND SWAP1 DUP4 PUSH2 0xB8C JUMP JUMPDEST PUSH1 0x0 SLOAD PUSH1 0x1 PUSH1 0x1 PUSH1 0xA0 SHL SUB AND PUSH1 0x1 PUSH1 0x1 PUSH1 0xA0 SHL SUB AND PUSH32 0xC0819C13BE868895EB93E40EACEB96DE976442FA1D404E5C55F14BB65A8C489A DUP3 PUSH1 0x40 MLOAD PUSH2 0x6E7 SWAP2 DUP2 MSTORE PUSH1 0x20 ADD SWAP1 JUMP JUMPDEST PUSH1 0x40 MLOAD DUP1 SWAP2 SUB SWAP1 LOG2 POP JUMP JUMPDEST PUSH2 0x6FA PUSH2 0xBBD JUMP JUMPDEST PUSH2 0x648 PUSH1 0x0 PUSH2 0xC3C JUMP JUMPDEST PUSH2 0x70C PUSH2 0xBBD JUMP JUMPDEST PUSH1 0x2 DUP1 SLOAD PUSH2 0x100 PUSH1 0x1 PUSH1 0xA8 SHL SUB NOT AND PUSH2 0x100 PUSH1 0x1 PUSH1 0x1 PUSH1 0xA0 SHL SUB DUP5 AND SWAP1 DUP2 MUL SWAP2 SWAP1 SWAP2 OR SWAP1 SWAP2 SSTORE PUSH1 0x40 MLOAD SWAP1 DUP2 MSTORE PUSH32 0x3DF77BEB5DB05FCDD70A30FC8ADF3F83F9501B68579455ADBD100B8180940394 SWAP1 PUSH1 0x20 ADD PUSH1 0x40 MLOAD DUP1 SWAP2 SUB SWAP1 LOG1 POP JUMP JUMPDEST PUSH2 0x770 PUSH2 0xBBD JUMP JUMPDEST PUSH2 0x648 PUSH2 0xC8C JUMP JUMPDEST PUSH1 0x6 PUSH1 0x20 MSTORE PUSH1 0x0 SWAP1 DUP2 MSTORE PUSH1 0x40 SWAP1 KECCAK256 DUP1 SLOAD PUSH1 0x1 DUP3 ADD SLOAD PUSH1 0x2 DUP4 ADD SLOAD PUSH1 0x3 DUP5 ADD SLOAD PUSH1 0x4 DUP6 ADD SLOAD PUSH1 0x5 DUP7 ADD DUP1 SLOAD SWAP6 SWAP7 PUSH1 0x1 PUSH1 0x1 PUSH1 0xA0 SHL SUB SWAP6 DUP7 AND SWAP7 SWAP5 SWAP1 SWAP6 AND SWAP5 SWAP3 SWAP4 PUSH1 0xFF DUP1 DUP5 AND SWAP5 PUSH2 0x100 SWAP1 SWAP5 DIV AND SWAP3 SWAP2 SWAP1 PUSH2 0x7D0 SWAP1 PUSH2 0xFAD JUMP JUMPDEST DUP1 PUSH1 0x1F ADD PUSH1 0x20 DUP1 SWAP2 DIV MUL PUSH1 0x20 ADD PUSH1 0x40 MLOAD SWAP1 DUP2 ADD PUSH1 0x40 MSTORE DUP1 SWAP3 SWAP2 SWAP1 DUP2 DUP2 MSTORE PUSH1 0x20 ADD DUP3 DUP1 SLOAD PUSH2 0x7FC SWAP1 PUSH2 0xFAD JUMP JUMPDEST DUP1 ISZERO PUSH2 0x849 JUMPI DUP1 PUSH1 0x1F LT PUSH2 0x81E JUMPI PUSH2 0x100 DUP1 DUP4 SLOAD DIV MUL DUP4 MSTORE SWAP2 PUSH1 0x20 ADD SWAP2 PUSH2 0x849 JUMP JUMPDEST DUP3 ADD SWAP2 SWAP1 PUSH1 0x0 MSTORE PUSH1 0x20 PUSH1 0x0 KECCAK256 SWAP1 JUMPDEST DUP2 SLOAD DUP2 MSTORE SWAP1 PUSH1 0x1 ADD SWAP1 PUSH1 0x20 ADD DUP1 DUP4 GT PUSH2 0x82C JUMPI DUP3 SWAP1 SUB PUSH1 0x1F AND DUP3 ADD SWAP2 JUMPDEST POP POP POP PUSH1 0x6 SWAP1 SWAP4 ADD SLOAD SWAP2 SWAP3 POP POP PUSH1 0x1 PUSH1 0x1 PUSH1 0xA0 SHL SUB AND DUP9 JUMP JUMPDEST PUSH2 0x86A PUSH2 0xAD1 JUMP JUMPDEST PUSH2 0x872 PUSH2 0xAF5 JUMP JUMPDEST PUSH1 0x0 DUP3 GT PUSH2 0x8B4 JUMPI PUSH1 0x40 MLOAD PUSH3 0x461BCD PUSH1 0xE5 SHL DUP2 MSTORE PUSH1 0x20 PUSH1 0x4 DUP3 ADD MSTORE PUSH1 0xF PUSH1 0x24 DUP3 ADD MSTORE PUSH15 0x4D757374207374616B652055534443 PUSH1 0x88 SHL PUSH1 0x44 DUP3 ADD MSTORE PUSH1 0x64 ADD PUSH2 0x2FD JUMP JUMPDEST PUSH2 0x8E9 PUSH1 0x1 PUSH1 0x1 PUSH1 0xA0 SHL SUB PUSH32 0x0 AND CALLER ADDRESS DUP6 PUSH2 0xB1F JUMP JUMPDEST PUSH1 0x5 DUP1 SLOAD PUSH1 0x0 SWAP2 DUP3 PUSH2 0x8FA DUP4 PUSH2 0x117B JUMP JUMPDEST SWAP2 SWAP1 POP SSTORE SWAP1 POP PUSH1 0x40 MLOAD DUP1 PUSH2 0x100 ADD PUSH1 0x40 MSTORE DUP1 DUP3 DUP2 MSTORE PUSH1 0x20 ADD CALLER PUSH1 0x1 PUSH1 0x1 PUSH1 0xA0 SHL SUB AND DUP2 MSTORE PUSH1 0x20 ADD DUP6 PUSH1 0x1 PUSH1 0x1 PUSH1 0xA0 SHL SUB AND DUP2 MSTORE PUSH1 0x20 ADD DUP5 DUP2 MSTORE PUSH1 0x20 ADD PUSH1 0x0 PUSH1 0x3 DUP2 GT ISZERO PUSH2 0x949 JUMPI PUSH2 0x949 PUSH2 0xE52 JUMP JUMPDEST DUP2 MSTORE PUSH1 0x0 PUSH1 0x20 DUP1 DUP4 ADD DUP3 SWAP1 MSTORE PUSH1 0x40 DUP1 MLOAD DUP1 DUP4 ADD DUP3 MSTORE DUP4 DUP2 MSTORE DUP2 DUP6 ADD MSTORE PUSH1 0x1 PUSH1 0x1 PUSH1 0xA0 SHL SUB DUP1 DUP9 AND PUSH1 0x60 SWAP6 DUP7 ADD MSTORE DUP7 DUP5 MSTORE PUSH1 0x6 DUP4 MSTORE SWAP3 DUP2 SWAP1 KECCAK256 DUP6 MLOAD DUP2 SSTORE SWAP2 DUP6 ADD MLOAD PUSH1 0x1 DUP4 DUP2 ADD DUP1 SLOAD SWAP3 DUP7 AND PUSH1 0x1 PUSH1 0x1 PUSH1 0xA0 SHL SUB NOT SWAP4 DUP5 AND OR SWAP1 SSTORE SWAP2 DUP7 ADD MLOAD PUSH1 0x2 DUP5 ADD DUP1 SLOAD SWAP2 SWAP1 SWAP6 AND SWAP2 AND OR SWAP1 SWAP3 SSTORE SWAP2 DUP4 ADD MLOAD PUSH1 0x3 DUP1 DUP5 ADD SWAP2 SWAP1 SWAP2 SSTORE PUSH1 0x80 DUP5 ADD MLOAD PUSH1 0x4 DUP5 ADD DUP1 SLOAD SWAP2 SWAP4 SWAP1 SWAP3 PUSH1 0xFF NOT SWAP1 SWAP3 AND SWAP2 DUP5 SWAP1 DUP2 GT ISZERO PUSH2 0x9EA JUMPI PUSH2 0x9EA PUSH2 0xE52 JUMP JUMPDEST MUL OR SWAP1 SSTORE POP PUSH1 0xA0 DUP3 ADD MLOAD PUSH1 0x4 DUP3 ADD DUP1 SLOAD SWAP2 ISZERO ISZERO PUSH2 0x100 MUL PUSH2 0xFF00 NOT SWAP1 SWAP3 AND SWAP2 SWAP1 SWAP2 OR SWAP1 SSTORE PUSH1 0xC0 DUP3 ADD MLOAD PUSH1 0x5 DUP3 ADD SWAP1 PUSH2 0xA22 SWAP1 DUP3 PUSH2 0x1194 JUMP JUMPDEST POP PUSH1 0xE0 SWAP2 SWAP1 SWAP2 ADD MLOAD PUSH1 0x6 SWAP1 SWAP2 ADD DUP1 SLOAD PUSH1 0x1 PUSH1 0x1 PUSH1 0xA0 SHL SUB NOT AND PUSH1 0x1 PUSH1 0x1 PUSH1 0xA0 SHL SUB SWAP3 DUP4 AND OR SWAP1 SSTORE PUSH1 0x40 DUP1 MLOAD DUP6 DUP2 MSTORE DUP5 DUP4 AND PUSH1 0x20 DUP3 ADD MSTORE SWAP2 DUP7 AND SWAP2 DUP4 SWAP2 PUSH32 0xFE715F52F3769836AE98447CBAB0EC46B29DBDC33509BC0DBB23B5800099A12C SWAP2 ADD PUSH1 0x40 MLOAD DUP1 SWAP2 SUB SWAP1 LOG3 POP PUSH2 0x633 PUSH1 0x1 DUP1 SSTORE JUMP JUMPDEST PUSH2 0xA9B PUSH2 0xBBD JUMP JUMPDEST PUSH1 0x1 PUSH1 0x1 PUSH1 0xA0 SHL SUB DUP2 AND PUSH2 0xAC5 JUMPI PUSH1 0x40 MLOAD PUSH4 0x1E4FBDF7 PUSH1 0xE0 SHL DUP2 MSTORE PUSH1 0x0 PUSH1 0x4 DUP3 ADD MSTORE PUSH1 0x24 ADD PUSH2 0x2FD JUMP JUMPDEST PUSH2 0xACE DUP2 PUSH2 0xC3C JUMP JUMPDEST POP JUMP JUMPDEST PUSH1 0x2 SLOAD PUSH1 0xFF AND ISZERO PUSH2 0x648 JUMPI PUSH1 0x40 MLOAD PUSH4 0xD93C0665 PUSH1 0xE0 SHL DUP2 MSTORE PUSH1 0x4 ADD PUSH1 0x40 MLOAD DUP1 SWAP2 SUB SWAP1 REVERT JUMPDEST PUSH1 0x2 PUSH1 0x1 SLOAD SUB PUSH2 0xB18 JUMPI PUSH1 0x40 MLOAD PUSH4 0x3EE5AEB5 PUSH1 0xE0 SHL DUP2 MSTORE PUSH1 0x4 ADD PUSH1 0x40 MLOAD DUP1 SWAP2 SUB SWAP1 REVERT JUMPDEST PUSH1 0x2 PUSH1 0x1 SSTORE JUMP JUMPDEST PUSH1 0x40 MLOAD PUSH1 0x1 PUSH1 0x1 PUSH1 0xA0 SHL SUB DUP5 DUP2 AND PUSH1 0x24 DUP4 ADD MSTORE DUP4 DUP2 AND PUSH1 0x44 DUP4 ADD MSTORE PUSH1 0x64 DUP3 ADD DUP4 SWAP1 MSTORE PUSH2 0xB86 SWAP2 DUP7 SWAP2 DUP3 AND SWAP1 PUSH4 0x23B872DD SWAP1 PUSH1 0x84 ADD JUMPDEST PUSH1 0x40 MLOAD PUSH1 0x20 DUP2 DUP4 SUB SUB DUP2 MSTORE SWAP1 PUSH1 0x40 MSTORE SWAP2 POP PUSH1 0xE0 SHL PUSH1 0x20 DUP3 ADD DUP1 MLOAD PUSH1 0x1 PUSH1 0x1 PUSH1 0xE0 SHL SUB DUP4 DUP2 DUP4 AND OR DUP4 MSTORE POP POP POP POP PUSH2 0xCC9 JUMP JUMPDEST POP POP POP POP JUMP JUMPDEST PUSH1 0x40 MLOAD PUSH1 0x1 PUSH1 0x1 PUSH1 0xA0 SHL SUB DUP4 DUP2 AND PUSH1 0x24 DUP4 ADD MSTORE PUSH1 0x44 DUP3 ADD DUP4 SWAP1 MSTORE PUSH2 0x633 SWAP2 DUP6 SWAP2 DUP3 AND SWAP1 PUSH4 0xA9059CBB SWAP1 PUSH1 0x64 ADD PUSH2 0xB54 JUMP JUMPDEST PUSH1 0x0 SLOAD PUSH1 0x1 PUSH1 0x1 PUSH1 0xA0 SHL SUB AND CALLER EQ PUSH2 0x648 JUMPI PUSH1 0x40 MLOAD PUSH4 0x118CDAA7 PUSH1 0xE0 SHL DUP2 MSTORE CALLER PUSH1 0x4 DUP3 ADD MSTORE PUSH1 0x24 ADD PUSH2 0x2FD JUMP JUMPDEST PUSH2 0xBF2 PUSH2 0xD3A JUMP JUMPDEST PUSH1 0x2 DUP1 SLOAD PUSH1 0xFF NOT AND SWAP1 SSTORE PUSH32 0x5DB9EE0A495BF2E6FF9C91A7834C1BA4FDD244A5E8AA4E537BD38AEAE4B073AA CALLER JUMPDEST PUSH1 0x40 MLOAD PUSH1 0x1 PUSH1 0x1 PUSH1 0xA0 SHL SUB SWAP1 SWAP2 AND DUP2 MSTORE PUSH1 0x20 ADD PUSH1 0x40 MLOAD DUP1 SWAP2 SUB SWAP1 LOG1 JUMP JUMPDEST PUSH1 0x0 DUP1 SLOAD PUSH1 0x1 PUSH1 0x1 PUSH1 0xA0 SHL SUB DUP4 DUP2 AND PUSH1 0x1 PUSH1 0x1 PUSH1 0xA0 SHL SUB NOT DUP4 AND DUP2 OR DUP5 SSTORE PUSH1 0x40 MLOAD SWAP2 SWAP1 SWAP3 AND SWAP3 DUP4 SWAP2 PUSH32 0x8BE0079C531659141344CD1FD0A4F28419497F9722A3DAAFE3B4186F6B6457E0 SWAP2 SWAP1 LOG3 POP POP JUMP JUMPDEST PUSH2 0xC94 PUSH2 0xAD1 JUMP JUMPDEST PUSH1 0x2 DUP1 SLOAD PUSH1 0xFF NOT AND PUSH1 0x1 OR SWAP1 SSTORE PUSH32 0x62E78CEA01BEE320CD4E420270B5EA74000D11B0C9F74754EBDBFC544B05A258 PUSH2 0xC1F CALLER SWAP1 JUMP JUMPDEST PUSH1 0x0 DUP1 PUSH1 0x20 PUSH1 0x0 DUP5 MLOAD PUSH1 0x20 DUP7 ADD PUSH1 0x0 DUP9 GAS CALL DUP1 PUSH2 0xCEC JUMPI PUSH1 0x40 MLOAD RETURNDATASIZE PUSH1 0x0 DUP3 RETURNDATACOPY RETURNDATASIZE DUP2 REVERT JUMPDEST POP POP PUSH1 0x0 MLOAD RETURNDATASIZE SWAP2 POP DUP2 ISZERO PUSH2 0xD04 JUMPI DUP1 PUSH1 0x1 EQ ISZERO PUSH2 0xD11 JUMP JUMPDEST PUSH1 0x1 PUSH1 0x1 PUSH1 0xA0 SHL SUB DUP5 AND EXTCODESIZE ISZERO JUMPDEST ISZERO PUSH2 0xB86 JUMPI PUSH1 0x40 MLOAD PUSH4 0x5274AFE7 PUSH1 0xE0 SHL DUP2 MSTORE PUSH1 0x1 PUSH1 0x1 PUSH1 0xA0 SHL SUB DUP6 AND PUSH1 0x4 DUP3 ADD MSTORE PUSH1 0x24 ADD PUSH2 0x2FD JUMP JUMPDEST PUSH1 0x2 SLOAD PUSH1 0xFF AND PUSH2 0x648 JUMPI PUSH1 0x40 MLOAD PUSH4 0x8DFC202B PUSH1 0xE0 SHL DUP2 MSTORE PUSH1 0x4 ADD PUSH1 0x40 MLOAD DUP1 SWAP2 SUB SWAP1 REVERT JUMPDEST PUSH1 0x0 DUP1 PUSH1 0x40 DUP4 DUP6 SUB SLT ISZERO PUSH2 0xD70 JUMPI PUSH1 0x0 DUP1 REVERT JUMPDEST POP POP DUP1 CALLDATALOAD SWAP3 PUSH1 0x20 SWAP1 SWAP2 ADD CALLDATALOAD SWAP2 POP JUMP JUMPDEST PUSH1 0x0 DUP1 PUSH1 0x0 PUSH1 0x40 DUP5 DUP7 SUB SLT ISZERO PUSH2 0xD94 JUMPI PUSH1 0x0 DUP1 REVERT JUMPDEST DUP4 CALLDATALOAD SWAP3 POP PUSH1 0x20 DUP5 ADD CALLDATALOAD PUSH8 0xFFFFFFFFFFFFFFFF DUP1 DUP3 GT ISZERO PUSH2 0xDB3 JUMPI PUSH1 0x0 DUP1 REVERT JUMPDEST DUP2 DUP7 ADD SWAP2 POP DUP7 PUSH1 0x1F DUP4 ADD SLT PUSH2 0xDC7 JUMPI PUSH1 0x0 DUP1 REVERT JUMPDEST DUP2 CALLDATALOAD DUP2 DUP2 GT ISZERO PUSH2 0xDD6 JUMPI PUSH1 0x0 DUP1 REVERT JUMPDEST DUP8 PUSH1 0x20 DUP3 DUP6 ADD ADD GT ISZERO PUSH2 0xDE8 JUMPI PUSH1 0x0 DUP1 REVERT JUMPDEST PUSH1 0x20 DUP4 ADD SWAP5 POP DUP1 SWAP4 POP POP POP POP SWAP3 POP SWAP3 POP SWAP3 JUMP JUMPDEST DUP1 CALLDATALOAD PUSH1 0x1 PUSH1 0x1 PUSH1 0xA0 SHL SUB DUP2 AND DUP2 EQ PUSH2 0xE12 JUMPI PUSH1 0x0 DUP1 REVERT JUMPDEST SWAP2 SWAP1 POP JUMP JUMPDEST PUSH1 0x0 PUSH1 0x20 DUP3 DUP5 SUB SLT ISZERO PUSH2 0xE29 JUMPI PUSH1 0x0 DUP1 REVERT JUMPDEST PUSH2 0xE32 DUP3 PUSH2 0xDFB JUMP JUMPDEST SWAP4 SWAP3 POP POP POP JUMP JUMPDEST PUSH1 0x0 PUSH1 0x20 DUP3 DUP5 SUB SLT ISZERO PUSH2 0xE4B JUMPI PUSH1 0x0 DUP1 REVERT JUMPDEST POP CALLDATALOAD SWAP2 SWAP1 POP JUMP JUMPDEST PUSH4 0x4E487B71 PUSH1 0xE0 SHL PUSH1 0x0 MSTORE PUSH1 0x21 PUSH1 0x4 MSTORE PUSH1 0x24 PUSH1 0x0 REVERT JUMPDEST PUSH1 0x0 PUSH2 0x100 DUP11 DUP4 MSTORE PUSH1 0x20 PUSH1 0x1 DUP1 PUSH1 0xA0 SHL SUB DUP1 DUP13 AND DUP3 DUP7 ADD MSTORE DUP1 DUP12 AND PUSH1 0x40 DUP7 ADD MSTORE POP DUP9 PUSH1 0x60 DUP6 ADD MSTORE PUSH1 0x4 DUP9 LT PUSH2 0xEAD JUMPI PUSH4 0x4E487B71 PUSH1 0xE0 SHL PUSH1 0x0 MSTORE PUSH1 0x21 PUSH1 0x4 MSTORE PUSH1 0x24 PUSH1 0x0 REVERT JUMPDEST DUP8 PUSH1 0x80 DUP6 ADD MSTORE DUP7 ISZERO ISZERO PUSH1 0xA0 DUP6 ADD MSTORE DUP2 PUSH1 0xC0 DUP6 ADD MSTORE DUP6 MLOAD DUP1 DUP4 DUP7 ADD MSTORE PUSH1 0x0 SWAP3 POP JUMPDEST DUP1 DUP4 LT ISZERO PUSH2 0xEEC JUMPI DUP7 DUP4 ADD DUP3 ADD MLOAD DUP6 DUP5 ADD PUSH2 0x120 ADD MSTORE SWAP2 DUP2 ADD SWAP2 PUSH2 0xECD JUMP JUMPDEST PUSH2 0x120 SWAP3 POP PUSH1 0x0 DUP4 DUP3 DUP8 ADD ADD MSTORE DUP3 PUSH1 0x1F NOT PUSH1 0x1F DUP4 ADD AND DUP7 ADD ADD SWAP4 POP POP POP POP PUSH2 0xF1F PUSH1 0xE0 DUP4 ADD DUP5 PUSH1 0x1 PUSH1 0x1 PUSH1 0xA0 SHL SUB AND SWAP1 MSTORE JUMP JUMPDEST SWAP10 SWAP9 POP POP POP POP POP POP POP POP POP JUMP JUMPDEST PUSH1 0x0 DUP1 PUSH1 0x0 PUSH1 0x60 DUP5 DUP7 SUB SLT ISZERO PUSH2 0xF41 JUMPI PUSH1 0x0 DUP1 REVERT JUMPDEST PUSH2 0xF4A DUP5 PUSH2 0xDFB JUMP JUMPDEST SWAP3 POP PUSH1 0x20 DUP5 ADD CALLDATALOAD SWAP2 POP PUSH2 0xF5F PUSH1 0x40 DUP6 ADD PUSH2 0xDFB JUMP JUMPDEST SWAP1 POP SWAP3 POP SWAP3 POP SWAP3 JUMP JUMPDEST PUSH4 0x4E487B71 PUSH1 0xE0 SHL PUSH1 0x0 MSTORE PUSH1 0x11 PUSH1 0x4 MSTORE PUSH1 0x24 PUSH1 0x0 REVERT JUMPDEST DUP1 DUP3 ADD DUP1 DUP3 GT ISZERO PUSH2 0xF91 JUMPI PUSH2 0xF91 PUSH2 0xF68 JUMP JUMPDEST SWAP3 SWAP2 POP POP JUMP JUMPDEST PUSH4 0x4E487B71 PUSH1 0xE0 SHL PUSH1 0x0 MSTORE PUSH1 0x41 PUSH1 0x4 MSTORE PUSH1 0x24 PUSH1 0x0 REVERT JUMPDEST PUSH1 0x1 DUP2 DUP2 SHR SWAP1 DUP3 AND DUP1 PUSH2 0xFC1 JUMPI PUSH1 0x7F DUP3 AND SWAP2 POP JUMPDEST PUSH1 0x20 DUP3 LT DUP2 SUB PUSH2 0xFE1 JUMPI PUSH4 0x4E487B71 PUSH1 0xE0 SHL PUSH1 0x0 MSTORE PUSH1 0x22 PUSH1 0x4 MSTORE PUSH1 0x24 PUSH1 0x0 REVERT JUMPDEST POP SWAP2 SWAP1 POP JUMP JUMPDEST PUSH1 0x1F DUP3 GT ISZERO PUSH2 0x633 JUMPI PUSH1 0x0 DUP2 DUP2 MSTORE PUSH1 0x20 DUP2 KECCAK256 PUSH1 0x1F DUP6 ADD PUSH1 0x5 SHR DUP2 ADD PUSH1 0x20 DUP7 LT ISZERO PUSH2 0x100E JUMPI POP DUP1 JUMPDEST PUSH1 0x1F DUP6 ADD PUSH1 0x5 SHR DUP3 ADD SWAP2 POP JUMPDEST DUP2 DUP2 LT ISZERO PUSH2 0x102D JUMPI DUP3 DUP2 SSTORE PUSH1 0x1 ADD PUSH2 0x101A JUMP JUMPDEST POP POP POP POP POP POP JUMP JUMPDEST PUSH8 0xFFFFFFFFFFFFFFFF DUP4 GT ISZERO PUSH2 0x104D JUMPI PUSH2 0x104D PUSH2 0xF97 JUMP JUMPDEST PUSH2 0x1061 DUP4 PUSH2 0x105B DUP4 SLOAD PUSH2 0xFAD JUMP JUMPDEST DUP4 PUSH2 0xFE7 JUMP JUMPDEST PUSH1 0x0 PUSH1 0x1F DUP5 GT PUSH1 0x1 DUP2 EQ PUSH2 0x1095 JUMPI PUSH1 0x0 DUP6 ISZERO PUSH2 0x107D JUMPI POP DUP4 DUP3 ADD CALLDATALOAD JUMPDEST PUSH1 0x0 NOT PUSH1 0x3 DUP8 SWAP1 SHL SHR NOT AND PUSH1 0x1 DUP7 SWAP1 SHL OR DUP4 SSTORE PUSH2 0x10EF JUMP JUMPDEST PUSH1 0x0 DUP4 DUP2 MSTORE PUSH1 0x20 SWAP1 KECCAK256 PUSH1 0x1F NOT DUP7 AND SWAP1 DUP4 JUMPDEST DUP3 DUP2 LT ISZERO PUSH2 0x10C6 JUMPI DUP7 DUP6 ADD CALLDATALOAD DUP3 SSTORE PUSH1 0x20 SWAP5 DUP6 ADD SWAP5 PUSH1 0x1 SWAP1 SWAP3 ADD SWAP2 ADD PUSH2 0x10A6 JUMP JUMPDEST POP DUP7 DUP3 LT ISZERO PUSH2 0x10E3 JUMPI PUSH1 0x0 NOT PUSH1 0xF8 DUP9 PUSH1 0x3 SHL AND SHR NOT DUP5 DUP8 ADD CALLDATALOAD AND DUP2 SSTORE JUMPDEST POP POP PUSH1 0x1 DUP6 PUSH1 0x1 SHL ADD DUP4 SSTORE JUMPDEST POP POP POP POP POP JUMP JUMPDEST DUP1 DUP3 MUL DUP2 ISZERO DUP3 DUP3 DIV DUP5 EQ OR PUSH2 0xF91 JUMPI PUSH2 0xF91 PUSH2 0xF68 JUMP JUMPDEST PUSH1 0x0 DUP3 PUSH2 0x112A JUMPI PUSH4 0x4E487B71 PUSH1 0xE0 SHL PUSH1 0x0 MSTORE PUSH1 0x12 PUSH1 0x4 MSTORE PUSH1 0x24 PUSH1 0x0 REVERT JUMPDEST POP DIV SWAP1 JUMP JUMPDEST DUP2 DUP2 SUB DUP2 DUP2 GT ISZERO PUSH2 0xF91 JUMPI PUSH2 0xF91 PUSH2 0xF68 JUMP JUMPDEST PUSH1 0x40 DUP2 MSTORE DUP3 PUSH1 0x40 DUP3 ADD MSTORE DUP3 DUP5 PUSH1 0x60 DUP4 ADD CALLDATACOPY PUSH1 0x0 PUSH1 0x60 DUP5 DUP4 ADD ADD MSTORE PUSH1 0x0 PUSH1 0x60 PUSH1 0x1F NOT PUSH1 0x1F DUP7 ADD AND DUP4 ADD ADD SWAP1 POP DUP3 PUSH1 0x20 DUP4 ADD MSTORE SWAP5 SWAP4 POP POP POP POP JUMP JUMPDEST PUSH1 0x0 PUSH1 0x1 DUP3 ADD PUSH2 0x118D JUMPI PUSH2 0x118D PUSH2 0xF68 JUMP JUMPDEST POP PUSH1 0x1 ADD SWAP1 JUMP JUMPDEST DUP2 MLOAD PUSH8 0xFFFFFFFFFFFFFFFF DUP2 GT ISZERO PUSH2 0x11AE JUMPI PUSH2 0x11AE PUSH2 0xF97 JUMP JUMPDEST PUSH2 0x11C2 DUP2 PUSH2 0x11BC DUP5 SLOAD PUSH2 0xFAD JUMP JUMPDEST DUP5 PUSH2 0xFE7 JUMP JUMPDEST PUSH1 0x20 DUP1 PUSH1 0x1F DUP4 GT PUSH1 0x1 DUP2 EQ PUSH2 0x11F7 JUMPI PUSH1 0x0 DUP5 ISZERO PUSH2 0x11DF JUMPI POP DUP6 DUP4 ADD MLOAD JUMPDEST PUSH1 0x0 NOT PUSH1 0x3 DUP7 SWAP1 SHL SHR NOT AND PUSH1 0x1 DUP6 SWAP1 SHL OR DUP6 SSTORE PUSH2 0x102D JUMP JUMPDEST PUSH1 0x0 DUP6 DUP2 MSTORE PUSH1 0x20 DUP2 KECCAK256 PUSH1 0x1F NOT DUP7 AND SWAP2 JUMPDEST DUP3 DUP2 LT ISZERO PUSH2 0x1226 JUMPI DUP9 DUP7 ADD MLOAD DUP3 SSTORE SWAP5 DUP5 ADD SWAP5 PUSH1 0x1 SWAP1 SWAP2 ADD SWAP1 DUP5 ADD PUSH2 0x1207 JUMP JUMPDEST POP DUP6 DUP3 LT ISZERO PUSH2 0x1244 JUMPI DUP8 DUP6 ADD MLOAD PUSH1 0x0 NOT PUSH1 0x3 DUP9 SWAP1 SHL PUSH1 0xF8 AND SHR NOT AND DUP2 SSTORE JUMPDEST POP POP POP POP POP PUSH1 0x1 SWAP1 DUP2 SHL ADD SWAP1 SSTORE POP JUMP INVALID LOG2 PUSH5 0x6970667358 0x22 SLT KECCAK256 0xDB 0xB5 JUMPI 0x24 RETURN 0xD7 PUSH16 0x47663598D82B9A9BE99331EF373FF49D SAR LOG3 LOG1 0xE3 0xCF 0xB3 DUP12 DUP9 0xA8 PUSH5 0x736F6C6343 STOP ADDMOD EQ STOP CALLER "},"methodIdentifiers":{"BASIS_POINTS()":"e1f1c4a7","accumulatedFees()":"587f5ed7","createDare(address,uint256,address)":"bf7c0fa2","dares(uint256)":"9b95c173","injectCapital(uint256,uint256)":"386db353","nextDareId()":"72c39e07","oracleAddress()":"a89ae4ba","owner()":"8da5cb5b","pause()":"8456cb59","paused()":"5c975abb","protocolFee()":"b0e21e8a","referralFee()":"84ae2bc6","renounceOwnership()":"715018a6","setOracle(address)":"7adbf973","transferOwnership(address)":"f2fde38b","unpause()":"3f4ba83a","usdc()":"3e413bee","verifyAndPayout(uint256,bytes)":"3cbcb9a7","withdrawFees()":"476343ee"}}}}}