{"contracts/BaseDareBounty.sol":{"BaseDareBounty":{"abi":[{"inputs":[{"internalType":"address","name":"_usdc","type":"address"},{"internalType":"address","name":"_houseWallet","type":"address"}],"stateMutability":"nonpayable","type":"constructor"},{"inputs":[{"internalType":"address","name":"owner","type":"address"}],"name":"OwnableInvalidOwner","type":"error"},{"inputs":[{"internalType":"address","name":"account","type":"address"}],"name":"OwnableUnauthorizedAccount","type":"error"},{"inputs":[],"name":"ReentrancyGuardReentrantCall","type":"error"},{"anonymous":false,"inputs":[{"indexed":true,"internalType":"uint256","name":"dareId","type":"uint256"},{"indexed":false,"internalType":"uint256","name":"streamerAmount","type":"uint256"},{"indexed":false,"internalType":"uint256","name":"houseFee","type":"uint256"},{"indexed":false,"internalType":"uint256","name":"referrerFee","type":"uint256"}],"name":"BountyPayout","type":"event"},{"anonymous":false,"inputs":[{"indexed":true,"internalType":"uint256","name":"dareId","type":"uint256"},{"indexed":true,"internalType":"address","name":"refundRecipient","type":"address"},{"indexed":false,"internalType":"uint256","name":"amount","type":"uint256"}],"name":"BountyRefund","type":"event"},{"anonymous":false,"inputs":[{"indexed":true,"internalType":"uint256","name":"dareId","type":"uint256"},{"indexed":true,"internalType":"address","name":"staker","type":"address"},{"indexed":false,"internalType":"uint256","name":"amount","type":"uint256"}],"name":"BountyStaked","type":"event"},{"anonymous":false,"inputs":[{"indexed":true,"internalType":"uint256","name":"dareId","type":"uint256"},{"indexed":true,"internalType":"address","name":"oldStaker","type":"address"},{"indexed":true,"internalType":"address","name":"newStaker","type":"address"},{"indexed":false,"internalType":"uint256","name":"oldAmount","type":"uint256"},{"indexed":false,"internalType":"uint256","name":"newAmount","type":"uint256"},{"indexed":false,"internalType":"uint256","name":"houseFee","type":"uint256"}],"name":"BountyStolen","type":"event"},{"anonymous":false,"inputs":[{"indexed":true,"internalType":"address","name":"previousOwner","type":"address"},{"indexed":true,"internalType":"address","name":"newOwner","type":"address"}],"name":"OwnershipTransferred","type":"event"},{"inputs":[],"name":"AI_REFEREE_ADDRESS","outputs":[{"internalType":"address","name":"","type":"address"}],"stateMutability":"view","type":"function"},{"inputs":[],"name":"HOUSE_WALLET","outputs":[{"internalType":"address","name":"","type":"address"}],"stateMutability":"view","type":"function"},{"inputs":[],"name":"USDC","outputs":[{"internalType":"contract IERC20","name":"","type":"address"}],"stateMutability":"view","type":"function"},{"inputs":[{"internalType":"uint256","name":"","type":"uint256"}],"name":"bounties","outputs":[{"internalType":"uint256","name":"amount","type":"uint256"},{"internalType":"address payable","name":"streamer","type":"address"},{"internalType":"address payable","name":"referrer","type":"address"},{"internalType":"address","name":"staker","type":"address"},{"internalType":"bool","name":"isVerified","type":"bool"}],"stateMutability":"view","type":"function"},{"inputs":[],"name":"owner","outputs":[{"internalType":"address","name":"","type":"address"}],"stateMutability":"view","type":"function"},{"inputs":[{"internalType":"uint256","name":"_dareId","type":"uint256"},{"internalType":"address","name":"_staker","type":"address"}],"name":"refundStaker","outputs":[],"stateMutability":"nonpayable","type":"function"},{"inputs":[],"name":"renounceOwnership","outputs":[],"stateMutability":"nonpayable","type":"function"},{"inputs":[{"internalType":"address","name":"_token","type":"address"},{"internalType":"uint256","name":"_amount","type":"uint256"}],"name":"rescueERC20","outputs":[],"stateMutability":"nonpayable","type":"function"},{"inputs":[{"internalType":"address","name":"_newReferee","type":"address"}],"name":"setAIRefereeAddress","outputs":[],"stateMutability":"nonpayable","type":"function"},{"inputs":[{"internalType":"uint256","name":"_dareId","type":"uint256"},{"internalType":"address","name":"_streamer","type":"address"},{"internalType":"address","name":"_referrer","type":"address"},{"internalType":"uint256","name":"_amount","type":"uint256"}],"name":"stakeBounty","outputs":[],"stateMutability":"nonpayable","type":"function"},{"inputs":[{"internalType":"uint256","name":"_dareId","type":"uint256"},{"internalType":"uint256","name":"_newAmount","type":"uint256"}],"name":"stealBounty","outputs":[],"stateMutability":"nonpayable","type":"function"},{"inputs":[{"internalType":"address","name":"newOwner","type":"address"}],"name":"transferOwnership","outputs":[],"stateMutability":"nonpayable","type":"function"},{"inputs":[{"internalType":"uint256","name":"_dareId","type":"uint256"}],"name":"verifyAndPayout","outputs":[],"stateMutability":"nonpayable","type":"function"}],"evm":{"bytecode":{"linkReferences":{},"object":"60c06040523480156200001157600080fd5b50604051620016dc380380620016dc8339810160408190526200003491620000f0565b33806200005b57604051631e4fbdf760e01b81526000600482015260240160405180910390fd5b620000668162000083565b50600180556001600160a01b039182166080521660a05262000128565b600080546001600160a01b038381166001600160a01b0319831681178455604051919092169283917f8be0079c531659141344cd1fd0a4f28419497f9722a3daafe3b4186f6b6457e09190a35050565b80516001600160a01b0381168114620000eb57600080fd5b919050565b600080604083850312156200010457600080fd5b6200010f83620000d3565b91506200011f60208401620000d3565b90509250929050565b60805160a0516115426200019a6000396000818160d8015281816104ba0152610a8c01526000818161015f015281816103ea015281816104e9015281816105cd015281816108d5015281816109bc01528181610abb01528181610bf601528181610e44015261107101526115426000f3fe608060405234801561001057600080fd5b50600436106100ce5760003560e01c80638cd4426d1161008c578063d8f4eb8911610066578063d8f4eb89146101b8578063dc2f8744146101cb578063e08b504b14610255578063f2fde38b1461026857600080fd5b80638cd4426d146101815780638da5cb5b146101945780639513b324146101a557600080fd5b8062578353146100d35780634b9a7c931461011757806361c5d0e31461012c5780636f8f21991461013f578063715018a61461015257806389a302711461015a575b600080fd5b6100fa7f000000000000000000000000000000000000000000000000000000000000000081565b6040516001600160a01b0390911681526020015b60405180910390f35b61012a610125366004611308565b61027b565b005b61012a61013a366004611321565b610722565b6003546100fa906001600160a01b031681565b61012a610bd8565b6100fa7f000000000000000000000000000000000000000000000000000000000000000081565b61012a61018f36600461135f565b610bec565b6000546001600160a01b03166100fa565b61012a6101b3366004611389565b610d01565b61012a6101c63660046113ab565b610d2b565b61021d6101d9366004611308565b6002602081905260009182526040909120805460018201549282015460039092015490926001600160a01b039081169281169190811690600160a01b900460ff1685565b604080519586526001600160a01b0394851660208701529284169285019290925290911660608301521515608082015260a00161010e565b61012a6102633660046113d7565b610f91565b61012a610276366004611389565b611220565b61028361125b565b6003546001600160a01b031633146102e25760405162461bcd60e51b815260206004820152601a60248201527f426f756e74793a204e6f7420746865204149205265666572656500000000000060448201526064015b60405180910390fd5b600081815260026020526040902054819061030f5760405162461bcd60e51b81526004016102d99061141b565b6000828152600260205260409020600301548290600160a01b900460ff161561034a5760405162461bcd60e51b81526004016102d99061144b565b600083815260026020526040812060038101805460ff60a01b1916600160a01b17905580549091606461037e600184611498565b61038891906114b5565b905060006064610399600a85611498565b6103a391906114b5565b90506000816103b284866114d7565b6103bc91906114d7565b600286015460405163a9059cbb60e01b81526001600160a01b039182166004820152602481018690529192507f0000000000000000000000000000000000000000000000000000000000000000169063a9059cbb906044016020604051808303816000875af1158015610433573d6000803e3d6000fd5b505050506040513d601f19601f8201168201806040525081019061045791906114ea565b6104a35760405162461bcd60e51b815260206004820181905260248201527f5061796f75743a205265666572726572207472616e73666572206661696c656460448201526064016102d9565b60405163a9059cbb60e01b81526001600160a01b037f000000000000000000000000000000000000000000000000000000000000000081166004830152602482018490527f0000000000000000000000000000000000000000000000000000000000000000169063a9059cbb906044016020604051808303816000875af1158015610532573d6000803e3d6000fd5b505050506040513d601f19601f8201168201806040525081019061055691906114ea565b6105a25760405162461bcd60e51b815260206004820152601d60248201527f5061796f75743a20486f757365207472616e73666572206661696c656400000060448201526064016102d9565b600185015460405163a9059cbb60e01b81526001600160a01b039182166004820152602481018390527f00000000000000000000000000000000000000000000000000000000000000009091169063a9059cbb906044016020604051808303816000875af1158015610618573d6000803e3d6000fd5b505050506040513d601f19601f8201168201806040525081019061063c91906114ea565b6106885760405162461bcd60e51b815260206004820181905260248201527f5061796f75743a2053747265616d6572207472616e73666572206661696c656460448201526064016102d9565b604080518281526020810184905290810184905288907f42ce17271c51f5a58d1b95fcb0557bc1638da4c0072fd1429bc172e35b50e2159060600160405180910390a2505050600085815260026020819052604082209182556001820180546001600160a01b03199081169091559082018054909116905560030180546001600160a81b03191690555061071f9250611285915050565b50565b61072a61125b565b60008281526002602052604090205482906107575760405162461bcd60e51b81526004016102d99061141b565b6000838152600260205260409020600301548390600160a01b900460ff16156107925760405162461bcd60e51b81526004016102d99061144b565b6000848152600260205260409020805484116107fe5760405162461bcd60e51b815260206004820152602560248201527f537465616c3a204e657720616d6f756e74206d757374206578636565642063756044820152641c9c995b9d60da1b60648201526084016102d9565b60038101546001600160a01b0316330361085a5760405162461bcd60e51b815260206004820152601e60248201527f537465616c3a2043616e6e6f7420737465616c206f776e20626f756e7479000060448201526064016102d9565b600381015481546001600160a01b03909116906000606461087c600584611498565b61088691906114b5565b9050600061089482846114d7565b8886556003860180546001600160a01b031916339081179091556040516323b872dd60e01b81526004810191909152306024820152604481018a90529091507f00000000000000000000000000000000000000000000000000000000000000006001600160a01b0316906323b872dd906064016020604051808303816000875af1158015610926573d6000803e3d6000fd5b505050506040513d601f19601f8201168201806040525081019061094a91906114ea565b6109965760405162461bcd60e51b815260206004820152601b60248201527f537465616c3a2055534443207472616e73666572206661696c6564000000000060448201526064016102d9565b60405163a9059cbb60e01b81526001600160a01b038581166004830152602482018390527f0000000000000000000000000000000000000000000000000000000000000000169063a9059cbb906044016020604051808303816000875af1158015610a05573d6000803e3d6000fd5b505050506040513d601f19601f82011682018060405250810190610a2991906114ea565b610a755760405162461bcd60e51b815260206004820152601d60248201527f537465616c3a20526566756e64207472616e73666572206661696c656400000060448201526064016102d9565b60405163a9059cbb60e01b81526001600160a01b037f000000000000000000000000000000000000000000000000000000000000000081166004830152602482018490527f0000000000000000000000000000000000000000000000000000000000000000169063a9059cbb906044016020604051808303816000875af1158015610b04573d6000803e3d6000fd5b505050506040513d601f19601f82011682018060405250810190610b2891906114ea565b610b745760405162461bcd60e51b815260206004820181905260248201527f537465616c3a20486f75736520666565207472616e73666572206661696c656460448201526064016102d9565b60408051848152602081018a905290810183905233906001600160a01b038616908b907fd99dabce2bb82df3040289dc261a836e43dfd0b3ba1ee9bd99d6b7f29c7ad5e79060600160405180910390a450505050505050610bd460018055565b5050565b610be061128b565b610bea60006112b8565b565b610bf461128b565b7f00000000000000000000000000000000000000000000000000000000000000006001600160a01b0316826001600160a01b031603610c6a5760405162461bcd60e51b815260206004820152601260248201527143616e6e6f7420726573637565205553444360701b60448201526064016102d9565b816001600160a01b031663a9059cbb610c8b6000546001600160a01b031690565b6040516001600160e01b031960e084901b1681526001600160a01b039091166004820152602481018490526044016020604051808303816000875af1158015610cd8573d6000803e3d6000fd5b505050506040513d601f19601f82011682018060405250810190610cfc91906114ea565b505050565b610d0961128b565b600380546001600160a01b0319166001600160a01b0392909216919091179055565b610d3361125b565b6003546001600160a01b03163314610d8d5760405162461bcd60e51b815260206004820152601a60248201527f426f756e74793a204e6f7420746865204149205265666572656500000000000060448201526064016102d9565b6000828152600260205260409020548290610dba5760405162461bcd60e51b81526004016102d99061141b565b6000838152600260205260409020600301548390600160a01b900460ff1615610df55760405162461bcd60e51b81526004016102d99061144b565b6000848152600260205260409081902060038101805460ff60a01b1916600160a01b1790558054915163a9059cbb60e01b81526001600160a01b038681166004830152602482018490529192917f0000000000000000000000000000000000000000000000000000000000000000169063a9059cbb906044016020604051808303816000875af1158015610e8d573d6000803e3d6000fd5b505050506040513d601f19601f82011682018060405250810190610eb191906114ea565b610efd5760405162461bcd60e51b815260206004820152601e60248201527f526566756e643a205374616b6572207472616e73666572206661696c6564000060448201526064016102d9565b846001600160a01b0316867fd383a4e526cb44a42c48ae8f227b915fad994053b8b7c8d3d00dc263901ef42683604051610f3991815260200190565b60405180910390a3505050600083815260026020819052604082209182556001820180546001600160a01b03199081169091559082018054909116905560030180546001600160a81b031916905550610bd460018055565b610f9961125b565b60008111610ffa5760405162461bcd60e51b815260206004820152602860248201527f426f756e74793a20416d6f756e74206d7573742062652067726561746572207460448201526768616e207a65726f60c01b60648201526084016102d9565b6000848152600260205260409020541561104f5760405162461bcd60e51b8152602060048201526016602482015275426f756e74793a20416c72656164792065786973747360501b60448201526064016102d9565b6040516323b872dd60e01b8152336004820152306024820152604481018290527f00000000000000000000000000000000000000000000000000000000000000006001600160a01b0316906323b872dd906064016020604051808303816000875af11580156110c2573d6000803e3d6000fd5b505050506040513d601f19601f820116820180604052508101906110e691906114ea565b6111325760405162461bcd60e51b815260206004820152601c60248201527f426f756e74793a2055534443207472616e73666572206661696c65640000000060448201526064016102d9565b6040805160a0810182528281526001600160a01b03808616602080840191825286831684860190815233606086018181526000608088018181528d8252600295869052908990209751885594516001880180549188166001600160a01b031992831617905592519387018054948716949093169390931790915590516003909401805492511515600160a01b026001600160a81b03199093169490931693909317179055905185907f852aed4574f121f6856219b92287de44fdb12117c8163897bfed59e49a40bae0906112099085815260200190565b60405180910390a361121a60018055565b50505050565b61122861128b565b6001600160a01b03811661125257604051631e4fbdf760e01b8152600060048201526024016102d9565b61071f816112b8565b60026001540361127e57604051633ee5aeb560e01b815260040160405180910390fd5b6002600155565b60018055565b6000546001600160a01b03163314610bea5760405163118cdaa760e01b81523360048201526024016102d9565b600080546001600160a01b038381166001600160a01b0319831681178455604051919092169283917f8be0079c531659141344cd1fd0a4f28419497f9722a3daafe3b4186f6b6457e09190a35050565b60006020828403121561131a57600080fd5b5035919050565b6000806040838503121561133457600080fd5b50508035926020909101359150565b80356001600160a01b038116811461135a57600080fd5b919050565b6000806040838503121561137257600080fd5b61137b83611343565b946020939093013593505050565b60006020828403121561139b57600080fd5b6113a482611343565b9392505050565b600080604083850312156113be57600080fd5b823591506113ce60208401611343565b90509250929050565b600080600080608085870312156113ed57600080fd5b843593506113fd60208601611343565b925061140b60408601611343565b9396929550929360600135925050565b602080825260169082015275109bdd5b9d1e4e88111bd95cc81b9bdd08195e1a5cdd60521b604082015260600190565b60208082526019908201527f426f756e74793a20416c72656164792070726f63657373656400000000000000604082015260600190565b634e487b7160e01b600052601160045260246000fd5b80820281158282048414176114af576114af611482565b92915050565b6000826114d257634e487b7160e01b600052601260045260246000fd5b500490565b818103818111156114af576114af611482565b6000602082840312156114fc57600080fd5b815180151581146113a457600080fdfea26469706673582212206135af8141297a5de775d87c6d84deb8d6baa6433f7d2eedf3b862d528f31ad264736f6c63430008140033","opcodes":"PUSH1 0xC0 PUSH1 0x40 MSTORE CALLVALUE DUP1 ISZERO PUSH3 0x11 JUMPI PUSH1 0x0 DUP1 REVERT JUMPDEST POP PUSH1 0x40 MLOAD PUSH3 0x16DC CODESIZE SUB DUP1 PUSH3 0x16DC DUP4 CODECOPY DUP2 ADD PUSH1 0x40 DUP2 SWAP1 MSTORE PUSH3 0x34 SWAP2 PUSH3 0xF0 JUMP JUMPDEST CALLER DUP1 PUSH3 0x5B JUMPI PUSH1 0x40 MLOAD PUSH4 0x1E4FBDF7 PUSH1 0xE0 SHL DUP2 MSTORE PUSH1 0x0 PUSH1 0x4 DUP3 ADD MSTORE PUSH1 0x24 ADD PUSH1 0x40 MLOAD DUP1 SWAP2 SUB SWAP1 REVERT JUMPDEST PUSH3 0x66 DUP2 PUSH3 0x83 JUMP JUMPDEST POP PUSH1 0x1 DUP1 SSTORE PUSH1 0x1 PUSH1 0x1 PUSH1 0xA0 SHL SUB SWAP2 DUP3 AND PUSH1 0x80 MSTORE AND PUSH1 0xA0 MSTORE PUSH3 0x128 JUMP JUMPDEST PUSH1 0x0 DUP1 SLOAD PUSH1 0x1 PUSH1 0x1 PUSH1 0xA0 SHL SUB DUP4 DUP2 AND PUSH1 0x1 PUSH1 0x1 PUSH1 0xA0 SHL SUB NOT DUP4 AND DUP2 OR DUP5 SSTORE PUSH1 0x40 MLOAD SWAP2 SWAP1 SWAP3 AND SWAP3 DUP4 SWAP2 PUSH32 0x8BE0079C531659141344CD1FD0A4F28419497F9722A3DAAFE3B4186F6B6457E0 SWAP2 SWAP1 LOG3 POP POP JUMP JUMPDEST DUP1 MLOAD PUSH1 0x1 PUSH1 0x1 PUSH1 0xA0 SHL SUB DUP2 AND DUP2 EQ PUSH3 0xEB JUMPI PUSH1 0x0 DUP1 REVERT JUMPDEST SWAP2 SWAP1 POP JUMP JUMPDEST PUSH1 0x0 DUP1 PUSH1 0x40 DUP4 DUP6 SUB SLT ISZERO PUSH3 0x104 JUMPI PUSH1 0x0 DUP1 REVERT JUMPDEST PUSH3 0x10F DUP4 PUSH3 0xD3 JUMP JUMPDEST SWAP2 POP PUSH3 0x11F PUSH1 0x20 DUP5 ADD PUSH3 0xD3 JUMP JUMPDEST SWAP1 POP SWAP3 POP SWAP3 SWAP1 POP JUMP JUMPDEST PUSH1 0x80 MLOAD PUSH1 0xA0 MLOAD PUSH2 0x1542 PUSH3 0x19A PUSH1 0x0 CODECOPY PUSH1 0x0 DUP2 DUP2 PUSH1 0xD8 ADD MSTORE DUP2 DUP2 PUSH2 0x4BA ADD MSTORE PUSH2 0xA8C ADD MSTORE PUSH1 0x0 DUP2 DUP2 PUSH2 0x15F ADD MSTORE DUP2 DUP2 PUSH2 0x3EA ADD MSTORE DUP2 DUP2 PUSH2 0x4E9 ADD MSTORE DUP2 DUP2 PUSH2 0x5CD ADD MSTORE DUP2 DUP2 PUSH2 0x8D5 ADD MSTORE DUP2 DUP2 PUSH2 0x9BC ADD MSTORE DUP2 DUP2 PUSH2 0xABB ADD MSTORE DUP2 DUP2 PUSH2 0xBF6 ADD MSTORE DUP2 DUP2 PUSH2 0xE44 ADD MSTORE PUSH2 0x1071 ADD MSTORE PUSH2 0x1542 PUSH1 0x0 RETURN INVALID PUSH1 0x80 PUSH1 0x40 MSTORE CALLVALUE DUP1 ISZERO PUSH2 0x10 JUMPI PUSH1 0x0 DUP1 REVERT JUMPDEST POP PUSH1 0x4 CALLDATASIZE LT PUSH2 0xCE JUMPI PUSH1 0x0 CALLDATALOAD PUSH1 0xE0 SHR DUP1 PUSH4 0x8CD4426D GT PUSH2 0x8C JUMPI DUP1 PUSH4 0xD8F4EB89 GT PUSH2 0x66 JUMPI DUP1 PUSH4 0xD8F4EB89 EQ PUSH2 0x1B8 JUMPI DUP1 PUSH4 0xDC2F8744 EQ PUSH2 0x1CB JUMPI DUP1 PUSH4 0xE08B504B EQ PUSH2 0x255 JUMPI DUP1 PUSH4 0xF2FDE38B EQ PUSH2 0x268 JUMPI PUSH1 0x0 DUP1 REVERT JUMPDEST DUP1 PUSH4 0x8CD4426D EQ PUSH2 0x181 JUMPI DUP1 PUSH4 0x8DA5CB5B EQ PUSH2 0x194 JUMPI DUP1 PUSH4 0x9513B324 EQ PUSH2 0x1A5 JUMPI PUSH1 0x0 DUP1 REVERT JUMPDEST DUP1 PUSH3 0x578353 EQ PUSH2 0xD3 JUMPI DUP1 PUSH4 0x4B9A7C93 EQ PUSH2 0x117 JUMPI DUP1 PUSH4 0x61C5D0E3 EQ PUSH2 0x12C JUMPI DUP1 PUSH4 0x6F8F2199 EQ PUSH2 0x13F JUMPI DUP1 PUSH4 0x715018A6 EQ PUSH2 0x152 JUMPI DUP1 PUSH4 0x89A30271 EQ PUSH2 0x15A JUMPI JUMPDEST PUSH1 0x0 DUP1 REVERT JUMPDEST PUSH2 0xFA PUSH32 0x0 DUP2 JUMP JUMPDEST PUSH1 0x40 MLOAD PUSH1 0x1 PUSH1 0x1 PUSH1 0xA0 SHL SUB SWAP1 SWAP2 AND DUP2 MSTORE PUSH1 0x20 ADD JUMPDEST PUSH1 0x40 MLOAD DUP1 SWAP2 SUB SWAP1 RETURN JUMPDEST PUSH2 0x12A PUSH2 0x125 CALLDATASIZE PUSH1 0x4 PUSH2 0x1308 JUMP JUMPDEST PUSH2 0x27B JUMP JUMPDEST STOP JUMPDEST PUSH2 0x12A PUSH2 0x13A CALLDATASIZE PUSH1 0x4 PUSH2 0x1321 JUMP JUMPDEST PUSH2 0x722 JUMP JUMPDEST PUSH1 0x3 SLOAD PUSH2 0xFA SWAP1 PUSH1 0x1 PUSH1 0x1 PUSH1 0xA0 SHL SUB AND DUP2 JUMP JUMPDEST PUSH2 0x12A PUSH2 0xBD8 JUMP JUMPDEST PUSH2 0xFA PUSH32 0x0 DUP2 JUMP JUMPDEST PUSH2 0x12A PUSH2 0x18F CALLDATASIZE PUSH1 0x4 PUSH2 0x135F JUMP JUMPDEST PUSH2 0xBEC JUMP JUMPDEST PUSH1 0x0 SLOAD PUSH1 0x1 PUSH1 0x1 PUSH1 0xA0 SHL SUB AND PUSH2 0xFA JUMP JUMPDEST PUSH2 0x12A PUSH2 0x1B3 CALLDATASIZE PUSH1 0x4 PUSH2 0x1389 JUMP JUMPDEST PUSH2 0xD01 JUMP JUMPDEST PUSH2 0x12A PUSH2 0x1C6 CALLDATASIZE PUSH1 0x4 PUSH2 0x13AB JUMP JUMPDEST PUSH2 0xD2B JUMP JUMPDEST PUSH2 0x21D PUSH2 0x1D9 CALLDATASIZE PUSH1 0x4 PUSH2 0x1308 JUMP JUMPDEST PUSH1 0x2 PUSH1 0x20 DUP2 SWAP1 MSTORE PUSH1 0x0 SWAP2 DUP3 MSTORE PUSH1 0x40 SWAP1 SWAP2 KECCAK256 DUP1 SLOAD PUSH1 0x1 DUP3 ADD SLOAD SWAP3 DUP3 ADD SLOAD PUSH1 0x3 SWAP1 SWAP3 ADD SLOAD SWAP1 SWAP3 PUSH1 0x1 PUSH1 0x1 PUSH1 0xA0 SHL SUB SWAP1 DUP2 AND SWAP3 DUP2 AND SWAP2 SWAP1 DUP2 AND SWAP1 PUSH1 0x1 PUSH1 0xA0 SHL SWAP1 DIV PUSH1 0xFF AND DUP6 JUMP JUMPDEST PUSH1 0x40 DUP1 MLOAD SWAP6 DUP7 MSTORE PUSH1 0x1 PUSH1 0x1 PUSH1 0xA0 SHL SUB SWAP5 DUP6 AND PUSH1 0x20 DUP8 ADD MSTORE SWAP3 DUP5 AND SWAP3 DUP6 ADD SWAP3 SWAP1 SWAP3 MSTORE SWAP1 SWAP2 AND PUSH1 0x60 DUP4 ADD MSTORE ISZERO ISZERO PUSH1 0x80 DUP3 ADD MSTORE PUSH1 0xA0 ADD PUSH2 0x10E JUMP JUMPDEST PUSH2 0x12A PUSH2 0x263 CALLDATASIZE PUSH1 0x4 PUSH2 0x13D7 JUMP JUMPDEST PUSH2 0xF91 JUMP JUMPDEST PUSH2 0x12A PUSH2 0x276 CALLDATASIZE PUSH1 0x4 PUSH2 0x1389 JUMP JUMPDEST PUSH2 0x1220 JUMP JUMPDEST PUSH2 0x283 PUSH2 0x125B JUMP JUMPDEST PUSH1 0x3 SLOAD PUSH1 0x1 PUSH1 0x1 PUSH1 0xA0 SHL SUB AND CALLER EQ PUSH2 0x2E2 JUMPI PUSH1 0x40 MLOAD PUSH3 0x461BCD PUSH1 0xE5 SHL DUP2 MSTORE PUSH1 0x20 PUSH1 0x4 DUP3 ADD MSTORE PUSH1 0x1A PUSH1 0x24 DUP3 ADD MSTORE PUSH32 0x426F756E74793A204E6F74207468652041492052656665726565000000000000 PUSH1 0x44 DUP3 ADD MSTORE PUSH1 0x64 ADD JUMPDEST PUSH1 0x40 MLOAD DUP1 SWAP2 SUB SWAP1 REVERT JUMPDEST PUSH1 0x0 DUP2 DUP2 MSTORE PUSH1 0x2 PUSH1 0x20 MSTORE PUSH1 0x40 SWAP1 KECCAK256 SLOAD DUP2 SWAP1 PUSH2 0x30F JUMPI PUSH1 0x40 MLOAD PUSH3 0x461BCD PUSH1 0xE5 SHL DUP2 MSTORE PUSH1 0x4 ADD PUSH2 0x2D9 SWAP1 PUSH2 0x141B JUMP JUMPDEST PUSH1 0x0 DUP3 DUP2 MSTORE PUSH1 0x2 PUSH1 0x20 MSTORE PUSH1 0x40 SWAP1 KECCAK256 PUSH1 0x3 ADD SLOAD DUP3 SWAP1 PUSH1 0x1 PUSH1 0xA0 SHL SWAP1 DIV PUSH1 0xFF AND ISZERO PUSH2 0x34A JUMPI PUSH1 0x40 MLOAD PUSH3 0x461BCD PUSH1 0xE5 SHL DUP2 MSTORE PUSH1 0x4 ADD PUSH2 0x2D9 SWAP1 PUSH2 0x144B JUMP JUMPDEST PUSH1 0x0 DUP4 DUP2 MSTORE PUSH1 0x2 PUSH1 0x20 MSTORE PUSH1 0x40 DUP2 KECCAK256 PUSH1 0x3 DUP2 ADD DUP1 SLOAD PUSH1 0xFF PUSH1 0xA0 SHL NOT AND PUSH1 0x1 PUSH1 0xA0 SHL OR SWAP1 SSTORE DUP1 SLOAD SWAP1 SWAP2 PUSH1 0x64 PUSH2 0x37E PUSH1 0x1 DUP5 PUSH2 0x1498 JUMP JUMPDEST PUSH2 0x388 SWAP2 SWAP1 PUSH2 0x14B5 JUMP JUMPDEST SWAP1 POP PUSH1 0x0 PUSH1 0x64 PUSH2 0x399 PUSH1 0xA DUP6 PUSH2 0x1498 JUMP JUMPDEST PUSH2 0x3A3 SWAP2 SWAP1 PUSH2 0x14B5 JUMP JUMPDEST SWAP1 POP PUSH1 0x0 DUP2 PUSH2 0x3B2 DUP5 DUP7 PUSH2 0x14D7 JUMP JUMPDEST PUSH2 0x3BC SWAP2 SWAP1 PUSH2 0x14D7 JUMP JUMPDEST PUSH1 0x2 DUP7 ADD SLOAD PUSH1 0x40 MLOAD PUSH4 0xA9059CBB PUSH1 0xE0 SHL DUP2 MSTORE PUSH1 0x1 PUSH1 0x1 PUSH1 0xA0 SHL SUB SWAP2 DUP3 AND PUSH1 0x4 DUP3 ADD MSTORE PUSH1 0x24 DUP2 ADD DUP7 SWAP1 MSTORE SWAP2 SWAP3 POP PUSH32 0x0 AND SWAP1 PUSH4 0xA9059CBB SWAP1 PUSH1 0x44 ADD PUSH1 0x20 PUSH1 0x40 MLOAD DUP1 DUP4 SUB DUP2 PUSH1 0x0 DUP8 GAS CALL ISZERO DUP1 ISZERO PUSH2 0x433 JUMPI RETURNDATASIZE PUSH1 0x0 DUP1 RETURNDATACOPY RETURNDATASIZE PUSH1 0x0 REVERT JUMPDEST POP POP POP POP PUSH1 0x40 MLOAD RETURNDATASIZE PUSH1 0x1F NOT PUSH1 0x1F DUP3 ADD AND DUP3 ADD DUP1 PUSH1 0x40 MSTORE POP DUP2 ADD SWAP1 PUSH2 0x457 SWAP2 SWAP1 PUSH2 0x14EA JUMP JUMPDEST PUSH2 0x4A3 JUMPI PUSH1 0x40 MLOAD PUSH3 0x461BCD PUSH1 0xE5 SHL DUP2 MSTORE PUSH1 0x20 PUSH1 0x4 DUP3 ADD DUP2 SWAP1 MSTORE PUSH1 0x24 DUP3 ADD MSTORE PUSH32 0x5061796F75743A205265666572726572207472616E73666572206661696C6564 PUSH1 0x44 DUP3 ADD MSTORE PUSH1 0x64 ADD PUSH2 0x2D9 JUMP JUMPDEST PUSH1 0x40 MLOAD PUSH4 0xA9059CBB PUSH1 0xE0 SHL DUP2 MSTORE PUSH1 0x1 PUSH1 0x1 PUSH1 0xA0 SHL SUB PUSH32 0x0 DUP2 AND PUSH1 0x4 DUP4 ADD MSTORE PUSH1 0x24 DUP3 ADD DUP5 SWAP1 MSTORE PUSH32 0x0 AND SWAP1 PUSH4 0xA9059CBB SWAP1 PUSH1 0x44 ADD PUSH1 0x20 PUSH1 0x40 MLOAD DUP1 DUP4 SUB DUP2 PUSH1 0x0 DUP8 GAS CALL ISZERO DUP1 ISZERO PUSH2 0x532 JUMPI RETURNDATASIZE PUSH1 0x0 DUP1 RETURNDATACOPY RETURNDATASIZE PUSH1 0x0 REVERT JUMPDEST POP POP POP POP PUSH1 0x40 MLOAD RETURNDATASIZE PUSH1 0x1F NOT PUSH1 0x1F DUP3 ADD AND DUP3 ADD DUP1 PUSH1 0x40 MSTORE POP DUP2 ADD SWAP1 PUSH2 0x556 SWAP2 SWAP1 PUSH2 0x14EA JUMP JUMPDEST PUSH2 0x5A2 JUMPI PUSH1 0x40 MLOAD PUSH3 0x461BCD PUSH1 0xE5 SHL DUP2 MSTORE PUSH1 0x20 PUSH1 0x4 DUP3 ADD MSTORE PUSH1 0x1D PUSH1 0x24 DUP3 ADD MSTORE PUSH32 0x5061796F75743A20486F757365207472616E73666572206661696C6564000000 PUSH1 0x44 DUP3 ADD MSTORE PUSH1 0x64 ADD PUSH2 0x2D9 JUMP JUMPDEST PUSH1 0x1 DUP6 ADD SLOAD PUSH1 0x40 MLOAD PUSH4 0xA9059CBB PUSH1 0xE0 SHL DUP2 MSTORE PUSH1 0x1 PUSH1 0x1 PUSH1 0xA0 SHL SUB SWAP2 DUP3 AND PUSH1 0x4 DUP3 ADD MSTORE PUSH1 0x24 DUP2 ADD DUP4 SWAP1 MSTORE PUSH32 0x0 SWAP1 SWAP2 AND SWAP1 PUSH4 0xA9059CBB SWAP1 PUSH1 0x44 ADD PUSH1 0x20 PUSH1 0x40 MLOAD DUP1 DUP4 SUB DUP2 PUSH1 0x0 DUP8 GAS CALL ISZERO DUP1 ISZERO PUSH2 0x618 JUMPI RETURNDATASIZE PUSH1 0x0 DUP1 RETURNDATACOPY RETURNDATASIZE PUSH1 0x0 REVERT JUMPDEST POP POP POP POP PUSH1 0x40 MLOAD RETURNDATASIZE PUSH1 0x1F NOT PUSH1 0x1F DUP3 ADD AND DUP3 ADD DUP1 PUSH1 0x40 MSTORE POP DUP2 ADD SWAP1 PUSH2 0x63C SWAP2 SWAP1 PUSH2 0x14EA JUMP JUMPDEST PUSH2 0x688 JUMPI PUSH1 0x40 MLOAD PUSH3 0x461BCD PUSH1 0xE5 SHL DUP2 MSTORE PUSH1 0x20 PUSH1 0x4 DUP3 ADD DUP2 SWAP1 MSTORE PUSH1 0x24 DUP3 ADD MSTORE PUSH32 0x5061796F75743A2053747265616D6572207472616E73666572206661696C6564 PUSH1 0x44 DUP3 ADD MSTORE PUSH1 0x64 ADD PUSH2 0x2D9 JUMP JUMPDEST PUSH1 0x40 DUP1 MLOAD DUP3 DUP2 MSTORE PUSH1 0x20 DUP2 ADD DUP5 SWAP1 MSTORE SWAP1 DUP2 ADD DUP5 SWAP1 MSTORE DUP9 SWAP1 PUSH32 0x42CE17271C51F5A58D1B95FCB0557BC1638DA4C0072FD1429BC172E35B50E215 SWAP1 PUSH1 0x60 ADD PUSH1 0x40 MLOAD DUP1 SWAP2 SUB SWAP1 LOG2 POP POP POP PUSH1 0x0 DUP6 DUP2 MSTORE PUSH1 0x2 PUSH1 0x20 DUP2 SWAP1 MSTORE PUSH1 0x40 DUP3 KECCAK256 SWAP2 DUP3 SSTORE PUSH1 0x1 DUP3 ADD DUP1 SLOAD PUSH1 0x1 PUSH1 0x1 PUSH1 0xA0 SHL SUB NOT SWAP1 DUP2 AND SWAP1 SWAP2 SSTORE SWAP1 DUP3 ADD DUP1 SLOAD SWAP1 SWAP2 AND SWAP1 SSTORE PUSH1 0x3 ADD DUP1 SLOAD PUSH1 0x1 PUSH1 0x1 PUSH1 0xA8 SHL SUB NOT AND SWAP1 SSTORE POP PUSH2 0x71F SWAP3 POP PUSH2 0x1285 SWAP2 POP POP JUMP JUMPDEST POP JUMP JUMPDEST PUSH2 0x72A PUSH2 0x125B JUMP JUMPDEST PUSH1 0x0 DUP3 DUP2 MSTORE PUSH1 0x2 PUSH1 0x20 MSTORE PUSH1 0x40 SWAP1 KECCAK256 SLOAD DUP3 SWAP1 PUSH2 0x757 JUMPI PUSH1 0x40 MLOAD PUSH3 0x461BCD PUSH1 0xE5 SHL DUP2 MSTORE PUSH1 0x4 ADD PUSH2 0x2D9 SWAP1 PUSH2 0x141B JUMP JUMPDEST PUSH1 0x0 DUP4 DUP2 MSTORE PUSH1 0x2 PUSH1 0x20 MSTORE PUSH1 0x40 SWAP1 KECCAK256 PUSH1 0x3 ADD SLOAD DUP4 SWAP1 PUSH1 0x1 PUSH1 0xA0 SHL SWAP1 DIV PUSH1 0xFF AND ISZERO PUSH2 0x792 JUMPI PUSH1 0x40 MLOAD PUSH3 0x461BCD PUSH1 0xE5 SHL DUP2 MSTORE PUSH1 0x4 ADD PUSH2 0x2D9 SWAP1 PUSH2 0x144B JUMP JUMPDEST PUSH1 0x0 DUP5 DUP2 MSTORE PUSH1 0x2 PUSH1 0x20 MSTORE PUSH1 0x40 SWAP1 KECCAK256 DUP1 SLOAD DUP5 GT PUSH2 0x7FE JUMPI PUSH1 0x40 MLOAD PUSH3 0x461BCD PUSH1 0xE5 SHL DUP2 MSTORE PUSH1 0x20 PUSH1 0x4 DUP3 ADD MSTORE PUSH1 0x25 PUSH1 0x24 DUP3 ADD MSTORE PUSH32 0x537465616C3A204E657720616D6F756E74206D75737420657863656564206375 PUSH1 0x44 DUP3 ADD MSTORE PUSH5 0x1C9C995B9D PUSH1 0xDA SHL PUSH1 0x64 DUP3 ADD MSTORE PUSH1 0x84 ADD PUSH2 0x2D9 JUMP JUMPDEST PUSH1 0x3 DUP2 ADD SLOAD PUSH1 0x1 PUSH1 0x1 PUSH1 0xA0 SHL SUB AND CALLER SUB PUSH2 0x85A JUMPI PUSH1 0x40 MLOAD PUSH3 0x461BCD PUSH1 0xE5 SHL DUP2 MSTORE PUSH1 0x20 PUSH1 0x4 DUP3 ADD MSTORE PUSH1 0x1E PUSH1 0x24 DUP3 ADD MSTORE PUSH32 0x537465616C3A2043616E6E6F7420737465616C206F776E20626F756E74790000 PUSH1 0x44 DUP3 ADD MSTORE PUSH1 0x64 ADD PUSH2 0x2D9 JUMP JUMPDEST PUSH1 0x3 DUP2 ADD SLOAD DUP2 SLOAD PUSH1 0x1 PUSH1 0x1 PUSH1 0xA0 SHL SUB SWAP1 SWAP2 AND SWAP1 PUSH1 0x0 PUSH1 0x64 PUSH2 0x87C PUSH1 0x5 DUP5 PUSH2 0x1498 JUMP JUMPDEST PUSH2 0x886 SWAP2 SWAP1 PUSH2 0x14B5 JUMP JUMPDEST SWAP1 POP PUSH1 0x0 PUSH2 0x894 DUP3 DUP5 PUSH2 0x14D7 JUMP JUMPDEST DUP9 DUP7 SSTORE PUSH1 0x3 DUP7 ADD DUP1 SLOAD PUSH1 0x1 PUSH1 0x1 PUSH1 0xA0 SHL SUB NOT AND CALLER SWAP1 DUP2 OR SWAP1 SWAP2 SSTORE PUSH1 0x40 MLOAD PUSH4 0x23B872DD PUSH1 0xE0 SHL DUP2 MSTORE PUSH1 0x4 DUP2 ADD SWAP2 SWAP1 SWAP2 MSTORE ADDRESS PUSH1 0x24 DUP3 ADD MSTORE PUSH1 0x44 DUP2 ADD DUP11 SWAP1 MSTORE SWAP1 SWAP2 POP PUSH32 0x0 PUSH1 0x1 PUSH1 0x1 PUSH1 0xA0 SHL SUB AND SWAP1 PUSH4 0x23B872DD SWAP1 PUSH1 0x64 ADD PUSH1 0x20 PUSH1 0x40 MLOAD DUP1 DUP4 SUB DUP2 PUSH1 0x0 DUP8 GAS CALL ISZERO DUP1 ISZERO PUSH2 0x926 JUMPI RETURNDATASIZE PUSH1 0x0 DUP1 RETURNDATACOPY RETURNDATASIZE PUSH1 0x0 REVERT JUMPDEST POP POP POP POP PUSH1 0x40 MLOAD RETURNDATASIZE PUSH1 0x1F NOT PUSH1 0x1F DUP3 ADD AND DUP3 ADD DUP1 PUSH1 0x40 MSTORE POP DUP2 ADD SWAP1 PUSH2 0x94A SWAP2 SWAP1 PUSH2 0x14EA JUMP JUMPDEST PUSH2 0x996 JUMPI PUSH1 0x40 MLOAD PUSH3 0x461BCD PUSH1 0xE5 SHL DUP2 MSTORE PUSH1 0x20 PUSH1 0x4 DUP3 ADD MSTORE PUSH1 0x1B PUSH1 0x24 DUP3 ADD MSTORE PUSH32 0x537465616C3A2055534443207472616E73666572206661696C65640000000000 PUSH1 0x44 DUP3 ADD MSTORE PUSH1 0x64 ADD PUSH2 0x2D9 JUMP JUMPDEST PUSH1 0x40 MLOAD PUSH4 0xA9059CBB PUSH1 0xE0 SHL DUP2 MSTORE PUSH1 0x1 PUSH1 0x1 PUSH1 0xA0 SHL SUB DUP6 DUP2 AND PUSH1 0x4 DUP4 ADD MSTORE PUSH1 0x24 DUP3 ADD DUP4 SWAP1 MSTORE PUSH32 0x0 AND SWAP1 PUSH4 0xA9059CBB SWAP1 PUSH1 0x44 ADD PUSH1 0x20 PUSH1 0x40 MLOAD DUP1 DUP4 SUB DUP2 PUSH1 0x0 DUP8 GAS CALL ISZERO DUP1 ISZERO PUSH2 0xA05 JUMPI RETURNDATASIZE PUSH1 0x0 DUP1 RETURNDATACOPY RETURNDATASIZE PUSH1 0x0 REVERT JUMPDEST POP POP POP POP PUSH1 0x40 MLOAD RETURNDATASIZE PUSH1 0x1F NOT PUSH1 0x1F DUP3 ADD AND DUP3 ADD DUP1 PUSH1 0x40 MSTORE POP DUP2 ADD SWAP1 PUSH2 0xA29 SWAP2 SWAP1 PUSH2 0x14EA JUMP JUMPDEST PUSH2 0xA75 JUMPI PUSH1 0x40 MLOAD PUSH3 0x461BCD PUSH1 0xE5 SHL DUP2 MSTORE PUSH1 0x20 PUSH1 0x4 DUP3 ADD MSTORE PUSH1 0x1D PUSH1 0x24 DUP3 ADD MSTORE PUSH32 0x537465616C3A20526566756E64207472616E73666572206661696C6564000000 PUSH1 0x44 DUP3 ADD MSTORE PUSH1 0x64 ADD PUSH2 0x2D9 JUMP JUMPDEST PUSH1 0x40 MLOAD PUSH4 0xA9059CBB PUSH1 0xE0 SHL DUP2 MSTORE PUSH1 0x1 PUSH1 0x1 PUSH1 0xA0 SHL SUB PUSH32 0x0 DUP2 AND PUSH1 0x4 DUP4 ADD MSTORE PUSH1 0x24 DUP3 ADD DUP5 SWAP1 MSTORE PUSH32 0x0 AND SWAP1 PUSH4 0xA9059CBB SWAP1 PUSH1 0x44 ADD PUSH1 0x20 PUSH1 0x40 MLOAD DUP1 DUP4 SUB DUP2 PUSH1 0x0 DUP8 GAS CALL ISZERO DUP1 ISZERO PUSH2 0xB04 JUMPI RETURNDATASIZE PUSH1 0x0 DUP1 RETURNDATACOPY RETURNDATASIZE PUSH1 0x0 REVERT JUMPDEST POP POP POP POP PUSH1 0x40 MLOAD RETURNDATASIZE PUSH1 0x1F NOT PUSH1 0x1F DUP3 ADD AND DUP3 ADD DUP1 PUSH1 0x40 MSTORE POP DUP2 ADD SWAP1 PUSH2 0xB28 SWAP2 SWAP1 PUSH2 0x14EA JUMP JUMPDEST PUSH2 0xB74 JUMPI PUSH1 0x40 MLOAD PUSH3 0x461BCD PUSH1 0xE5 SHL DUP2 MSTORE PUSH1 0x20 PUSH1 0x4 DUP3 ADD DUP2 SWAP1 MSTORE PUSH1 0x24 DUP3 ADD MSTORE PUSH32 0x537465616C3A20486F75736520666565207472616E73666572206661696C6564 PUSH1 0x44 DUP3 ADD MSTORE PUSH1 0x64 ADD PUSH2 0x2D9 JUMP JUMPDEST PUSH1 0x40 DUP1 MLOAD DUP5 DUP2 MSTORE PUSH1 0x20 DUP2 ADD DUP11 SWAP1 MSTORE SWAP1 DUP2 ADD DUP4 SWAP1 MSTORE CALLER SWAP1 PUSH1 0x1 PUSH1 0x1 PUSH1 0xA0 SHL SUB DUP7 AND SWAP1 DUP12 SWAP1 PUSH32 0xD99DABCE2BB82DF3040289DC261A836E43DFD0B3BA1EE9BD99D6B7F29C7AD5E7 SWAP1 PUSH1 0x60 ADD PUSH1 0x40 MLOAD DUP1 SWAP2 SUB SWAP1 LOG4 POP POP POP POP POP POP POP PUSH2 0xBD4 PUSH1 0x1 DUP1 SSTORE JUMP JUMPDEST POP POP JUMP JUMPDEST PUSH2 0xBE0 PUSH2 0x128B JUMP JUMPDEST PUSH2 0xBEA PUSH1 0x0 PUSH2 0x12B8 JUMP JUMPDEST JUMP JUMPDEST PUSH2 0xBF4 PUSH2 0x128B JUMP JUMPDEST PUSH32 0x0 PUSH1 0x1 PUSH1 0x1 PUSH1 0xA0 SHL SUB AND DUP3 PUSH1 0x1 PUSH1 0x1 PUSH1 0xA0 SHL SUB AND SUB PUSH2 0xC6A JUMPI PUSH1 0x40 MLOAD PUSH3 0x461BCD PUSH1 0xE5 SHL DUP2 MSTORE PUSH1 0x20 PUSH1 0x4 DUP3 ADD MSTORE PUSH1 0x12 PUSH1 0x24 DUP3 ADD MSTORE PUSH18 0x43616E6E6F74207265736375652055534443 PUSH1 0x70 SHL PUSH1 0x44 DUP3 ADD MSTORE PUSH1 0x64 ADD PUSH2 0x2D9 JUMP JUMPDEST DUP2 PUSH1 0x1 PUSH1 0x1 PUSH1 0xA0 SHL SUB AND PUSH4 0xA9059CBB PUSH2 0xC8B PUSH1 0x0 SLOAD PUSH1 0x1 PUSH1 0x1 PUSH1 0xA0 SHL SUB AND SWAP1 JUMP JUMPDEST PUSH1 0x40 MLOAD PUSH1 0x1 PUSH1 0x1 PUSH1 0xE0 SHL SUB NOT PUSH1 0xE0 DUP5 SWAP1 SHL AND DUP2 MSTORE PUSH1 0x1 PUSH1 0x1 PUSH1 0xA0 SHL SUB SWAP1 SWAP2 AND PUSH1 0x4 DUP3 ADD MSTORE PUSH1 0x24 DUP2 ADD DUP5 SWAP1 MSTORE PUSH1 0x44 ADD PUSH1 0x20 PUSH1 0x40 MLOAD DUP1 DUP4 SUB DUP2 PUSH1 0x0 DUP8 GAS CALL ISZERO DUP1 ISZERO PUSH2 0xCD8 JUMPI RETURNDATASIZE PUSH1 0x0 DUP1 RETURNDATACOPY RETURNDATASIZE PUSH1 0x0 REVERT JUMPDEST POP POP POP POP PUSH1 0x40 MLOAD RETURNDATASIZE PUSH1 0x1F NOT PUSH1 0x1F DUP3 ADD AND DUP3 ADD DUP1 PUSH1 0x40 MSTORE POP DUP2 ADD SWAP1 PUSH2 0xCFC SWAP2 SWAP1 PUSH2 0x14EA JUMP JUMPDEST POP POP POP JUMP JUMPDEST PUSH2 0xD09 PUSH2 0x128B JUMP JUMPDEST PUSH1 0x3 DUP1 SLOAD PUSH1 0x1 PUSH1 0x1 PUSH1 0xA0 SHL SUB NOT AND PUSH1 0x1 PUSH1 0x1 PUSH1 0xA0 SHL SUB SWAP3 SWAP1 SWAP3 AND SWAP2 SWAP1 SWAP2 OR SWAP1 SSTORE JUMP JUMPDEST PUSH2 0xD33 PUSH2 0x125B JUMP JUMPDEST PUSH1 0x3 SLOAD PUSH1 0x1 PUSH1 0x1 PUSH1 0xA0 SHL SUB AND CALLER EQ PUSH2 0xD8D JUMPI PUSH1 0x40 MLOAD PUSH3 0x461BCD PUSH1 0xE5 SHL DUP2 MSTORE PUSH1 0x20 PUSH1 0x4 DUP3 ADD MSTORE PUSH1 0x1A PUSH1 0x24 DUP3 ADD MSTORE PUSH32 0x426F756E74793A204E6F74207468652041492052656665726565000000000000 PUSH1 0x44 DUP3 ADD MSTORE PUSH1 0x64 ADD PUSH2 0x2D9 JUMP JUMPDEST PUSH1 0x0 DUP3 DUP2 MSTORE PUSH1 0x2 PUSH1 0x20 MSTORE PUSH1 0x40 SWAP1 KECCAK256 SLOAD DUP3 SWAP1 PUSH2 0xDBA JUMPI PUSH1 0x40 MLOAD PUSH3 0x461BCD PUSH1 0xE5 SHL DUP2 MSTORE PUSH1 0x4 ADD PUSH2 0x2D9 SWAP1 PUSH2 0x141B JUMP JUMPDEST PUSH1 0x0 DUP4 DUP2 MSTORE PUSH1 0x2 PUSH1 0x20 MSTORE PUSH1 0x40 SWAP1 KECCAK256 PUSH1 0x3 ADD SLOAD DUP4 SWAP1 PUSH1 0x1 PUSH1 0xA0 SHL SWAP1 DIV PUSH1 0xFF AND ISZERO PUSH2 0xDF5 JUMPI PUSH1 0x40 MLOAD PUSH3 0x461BCD PUSH1 0xE5 SHL DUP2 MSTORE PUSH1 0x4 ADD PUSH2 0x2D9 SWAP1 PUSH2 0x144B JUMP JUMPDEST PUSH1 0x0 DUP5 DUP2 MSTORE PUSH1 0x2 PUSH1 0x20 MSTORE PUSH1 0x40 SWAP1 DUP2 SWAP1 KECCAK256 PUSH1 0x3 DUP2 ADD DUP1 SLOAD PUSH1 0xFF PUSH1 0xA0 SHL NOT AND PUSH1 0x1 PUSH1 0xA0 SHL OR SWAP1 SSTORE DUP1 SLOAD SWAP2 MLOAD PUSH4 0xA9059CBB PUSH1 0xE0 SHL DUP2 MSTORE PUSH1 0x1 PUSH1 0x1 PUSH1 0xA0 SHL SUB DUP7 DUP2 AND PUSH1 0x4 DUP4 ADD MSTORE PUSH1 0x24 DUP3 ADD DUP5 SWAP1 MSTORE SWAP2 SWAP3 SWAP2 PUSH32 0x0 AND SWAP1 PUSH4 0xA9059CBB SWAP1 PUSH1 0x44 ADD PUSH1 0x20 PUSH1 0x40 MLOAD DUP1 DUP4 SUB DUP2 PUSH1 0x0 DUP8 GAS CALL ISZERO DUP1 ISZERO PUSH2 0xE8D JUMPI RETURNDATASIZE PUSH1 0x0 DUP1 RETURNDATACOPY RETURNDATASIZE PUSH1 0x0 REVERT JUMPDEST POP POP POP POP PUSH1 0x40 MLOAD RETURNDATASIZE PUSH1 0x1F NOT PUSH1 0x1F DUP3 ADD AND DUP3 ADD DUP1 PUSH1 0x40 MSTORE POP DUP2 ADD SWAP1 PUSH2 0xEB1 SWAP2 SWAP1 PUSH2 0x14EA JUMP JUMPDEST PUSH2 0xEFD JUMPI PUSH1 0x40 MLOAD PUSH3 0x461BCD PUSH1 0xE5 SHL DUP2 MSTORE PUSH1 0x20 PUSH1 0x4 DUP3 ADD MSTORE PUSH1 0x1E PUSH1 0x24 DUP3 ADD MSTORE PUSH32 0x526566756E643A205374616B6572207472616E73666572206661696C65640000 PUSH1 0x44 DUP3 ADD MSTORE PUSH1 0x64 ADD PUSH2 0x2D9 JUMP JUMPDEST DUP5 PUSH1 0x1 PUSH1 0x1 PUSH1 0xA0 SHL SUB AND DUP7 PUSH32 0xD383A4E526CB44A42C48AE8F227B915FAD994053B8B7C8D3D00DC263901EF426 DUP4 PUSH1 0x40 MLOAD PUSH2 0xF39 SWAP2 DUP2 MSTORE PUSH1 0x20 ADD SWAP1 JUMP JUMPDEST PUSH1 0x40 MLOAD DUP1 SWAP2 SUB SWAP1 LOG3 POP POP POP PUSH1 0x0 DUP4 DUP2 MSTORE PUSH1 0x2 PUSH1 0x20 DUP2 SWAP1 MSTORE PUSH1 0x40 DUP3 KECCAK256 SWAP2 DUP3 SSTORE PUSH1 0x1 DUP3 ADD DUP1 SLOAD PUSH1 0x1 PUSH1 0x1 PUSH1 0xA0 SHL SUB NOT SWAP1 DUP2 AND SWAP1 SWAP2 SSTORE SWAP1 DUP3 ADD DUP1 SLOAD SWAP1 SWAP2 AND SWAP1 SSTORE PUSH1 0x3 ADD DUP1 SLOAD PUSH1 0x1 PUSH1 0x1 PUSH1 0xA8 SHL SUB NOT AND SWAP1 SSTORE POP PUSH2 0xBD4 PUSH1 0x1 DUP1 SSTORE JUMP JUMPDEST PUSH2 0xF99 PUSH2 0x125B JUMP JUMPDEST PUSH1 0x0 DUP2 GT PUSH2 0xFFA JUMPI PUSH1 0x40 MLOAD PUSH3 0x461BCD PUSH1 0xE5 SHL DUP2 MSTORE PUSH1 0x20 PUSH1 0x4 DUP3 ADD MSTORE PUSH1 0x28 PUSH1 0x24 DUP3 ADD MSTORE PUSH32 0x426F756E74793A20416D6F756E74206D75737420626520677265617465722074 PUSH1 0x44 DUP3 ADD MSTORE PUSH8 0x68616E207A65726F PUSH1 0xC0 SHL PUSH1 0x64 DUP3 ADD MSTORE PUSH1 0x84 ADD PUSH2 0x2D9 JUMP JUMPDEST PUSH1 0x0 DUP5 DUP2 MSTORE PUSH1 0x2 PUSH1 0x20 MSTORE PUSH1 0x40 SWAP1 KECCAK256 SLOAD ISZERO PUSH2 0x104F JUMPI PUSH1 0x40 MLOAD PUSH3 0x461BCD PUSH1 0xE5 SHL DUP2 MSTORE PUSH1 0x20 PUSH1 0x4 DUP3 ADD MSTORE PUSH1 0x16 PUSH1 0x24 DUP3 ADD MSTORE PUSH22 0x426F756E74793A20416C726561647920657869737473 PUSH1 0x50 SHL PUSH1 0x44 DUP3 ADD MSTORE PUSH1 0x64 ADD PUSH2 0x2D9 JUMP JUMPDEST PUSH1 0x40 MLOAD PUSH4 0x23B872DD PUSH1 0xE0 SHL DUP2 MSTORE CALLER PUSH1 0x4 DUP3 ADD MSTORE ADDRESS PUSH1 0x24 DUP3 ADD MSTORE PUSH1 0x44 DUP2 ADD DUP3 SWAP1 MSTORE PUSH32 0x0 PUSH1 0x1 PUSH1 0x1 PUSH1 0xA0 SHL SUB AND SWAP1 PUSH4 0x23B872DD SWAP1 PUSH1 0x64 ADD PUSH1 0x20 PUSH1 0x40 MLOAD DUP1 DUP4 SUB DUP2 PUSH1 0x0 DUP8 GAS CALL ISZERO DUP1 ISZERO PUSH2 0x10C2 JUMPI RETURNDATASIZE PUSH1 0x0 DUP1 RETURNDATACOPY RETURNDATASIZE PUSH1 0x0 REVERT JUMPDEST POP POP POP POP PUSH1 0x40 MLOAD RETURNDATASIZE PUSH1 0x1F NOT PUSH1 0x1F DUP3 ADD AND DUP3 ADD DUP1 PUSH1 0x40 MSTORE POP DUP2 ADD SWAP1 PUSH2 0x10E6 SWAP2 SWAP1 PUSH2 0x14EA JUMP JUMPDEST PUSH2 0x1132 JUMPI PUSH1 0x40 MLOAD PUSH3 0x461BCD PUSH1 0xE5 SHL DUP2 MSTORE PUSH1 0x20 PUSH1 0x4 DUP3 ADD MSTORE PUSH1 0x1C PUSH1 0x24 DUP3 ADD MSTORE PUSH32 0x426F756E74793A2055534443207472616E73666572206661696C656400000000 PUSH1 0x44 DUP3 ADD MSTORE PUSH1 0x64 ADD PUSH2 0x2D9 JUMP JUMPDEST PUSH1 0x40 DUP1 MLOAD PUSH1 0xA0 DUP2 ADD DUP3 MSTORE DUP3 DUP2 MSTORE PUSH1 0x1 PUSH1 0x1 PUSH1 0xA0 SHL SUB DUP1 DUP7 AND PUSH1 0x20 DUP1 DUP5 ADD SWAP2 DUP3 MSTORE DUP7 DUP4 AND DUP5 DUP7 ADD SWAP1 DUP2 MSTORE CALLER PUSH1 0x60 DUP7 ADD DUP2 DUP2 MSTORE PUSH1 0x0 PUSH1 0x80 DUP9 ADD DUP2 DUP2 MSTORE DUP14 DUP3 MSTORE PUSH1 0x2 SWAP6 DUP7 SWAP1 MSTORE SWAP1 DUP10 SWAP1 KECCAK256 SWAP8 MLOAD DUP9 SSTORE SWAP5 MLOAD PUSH1 0x1 DUP9 ADD DUP1 SLOAD SWAP2 DUP9 AND PUSH1 0x1 PUSH1 0x1 PUSH1 0xA0 SHL SUB NOT SWAP3 DUP4 AND OR SWAP1 SSTORE SWAP3 MLOAD SWAP4 DUP8 ADD DUP1 SLOAD SWAP5 DUP8 AND SWAP5 SWAP1 SWAP4 AND SWAP4 SWAP1 SWAP4 OR SWAP1 SWAP2 SSTORE SWAP1 MLOAD PUSH1 0x3 SWAP1 SWAP5 ADD DUP1 SLOAD SWAP3 MLOAD ISZERO ISZERO PUSH1 0x1 PUSH1 0xA0 SHL MUL PUSH1 0x1 PUSH1 0x1 PUSH1 0xA8 SHL SUB NOT SWAP1 SWAP4 AND SWAP5 SWAP1 SWAP4 AND SWAP4 SWAP1 SWAP4 OR OR SWAP1 SSTORE SWAP1 MLOAD DUP6 SWAP1 PUSH32 0x852AED4574F121F6856219B92287DE44FDB12117C8163897BFED59E49A40BAE0 SWAP1 PUSH2 0x1209 SWAP1 DUP6 DUP2 MSTORE PUSH1 0x20 ADD SWAP1 JUMP JUMPDEST PUSH1 0x40 MLOAD DUP1 SWAP2 SUB SWAP1 LOG3 PUSH2 0x121A PUSH1 0x1 DUP1 SSTORE JUMP JUMPDEST POP POP POP POP JUMP JUMPDEST PUSH2 0x1228 PUSH2 0x128B JUMP JUMPDEST PUSH1 0x1 PUSH1 0x1 PUSH1 0xA0 SHL SUB DUP2 AND PUSH2 0x1252 JUMPI PUSH1 0x40 MLOAD PUSH4 0x1E4FBDF7 PUSH1 0xE0 SHL DUP2 MSTORE PUSH1 0x0 PUSH1 0x4 DUP3 ADD MSTORE PUSH1 0x24 ADD PUSH2 0x2D9 JUMP JUMPDEST PUSH2 0x71F DUP2 PUSH2 0x12B8 JUMP JUMPDEST PUSH1 0x2 PUSH1 0x1 SLOAD SUB PUSH2 0x127E JUMPI PUSH1 0x40 MLOAD PUSH4 0x3EE5AEB5 PUSH1 0xE0 SHL DUP2 MSTORE PUSH1 0x4 ADD PUSH1 0x40 MLOAD DUP1 SWAP2 SUB SWAP1 REVERT JUMPDEST PUSH1 0x2 PUSH1 0x1 SSTORE JUMP JUMPDEST PUSH1 0x1 DUP1 SSTORE JUMP JUMPDEST PUSH1 0x0 SLOAD PUSH1 0x1 PUSH1 0x1 PUSH1 0xA0 SHL SUB AND CALLER EQ PUSH2 0xBEA JUMPI PUSH1 0x40 MLOAD PUSH4 0x118CDAA7 PUSH1 0xE0 SHL DUP2 MSTORE CALLER PUSH1 0x4 DUP3 ADD MSTORE PUSH1 0x24 ADD PUSH2 0x2D9 JUMP JUMPDEST PUSH1 0x0 DUP1 SLOAD PUSH1 0x1 PUSH1 0x1 PUSH1 0xA0 SHL SUB DUP4 DUP2 AND PUSH1 0x1 PUSH1 0x1 PUSH1 0xA0 SHL SUB NOT DUP4 AND DUP2 OR DUP5 SSTORE PUSH1 0x40 MLOAD SWAP2 SWAP1 SWAP3 AND SWAP3 DUP4 SWAP2 PUSH32 0x8BE0079C531659141344CD1FD0A4F28419497F9722A3DAAFE3B4186F6B6457E0 SWAP2 SWAP1 LOG3 POP POP JUMP JUMPDEST PUSH1 0x0 PUSH1 0x20 DUP3 DUP5 SUB SLT ISZERO PUSH2 0x131A JUMPI PUSH1 0x0 DUP1 REVERT JUMPDEST POP CALLDATALOAD SWAP2 SWAP1 POP JUMP JUMPDEST PUSH1 0x0 DUP1 PUSH1 0x40 DUP4 DUP6 SUB SLT ISZERO PUSH2 0x1334 JUMPI PUSH1 0x0 DUP1 REVERT JUMPDEST POP POP DUP1 CALLDATALOAD SWAP3 PUSH1 0x20 SWAP1 SWAP2 ADD CALLDATALOAD SWAP2 POP JUMP JUMPDEST DUP1 CALLDATALOAD PUSH1 0x1 PUSH1 0x1 PUSH1 0xA0 SHL SUB DUP2 AND DUP2 EQ PUSH2 0x135A JUMPI PUSH1 0x0 DUP1 REVERT JUMPDEST SWAP2 SWAP1 POP JUMP JUMPDEST PUSH1 0x0 DUP1 PUSH1 0x40 DUP4 DUP6 SUB SLT ISZERO PUSH2 0x1372 JUMPI PUSH1 0x0 DUP1 REVERT JUMPDEST PUSH2 0x137B DUP4 PUSH2 0x1343 JUMP JUMPDEST SWAP5 PUSH1 0x20 SWAP4 SWAP1 SWAP4 ADD CALLDATALOAD SWAP4 POP POP POP JUMP JUMPDEST PUSH1 0x0 PUSH1 0x20 DUP3 DUP5 SUB SLT ISZERO PUSH2 0x139B JUMPI PUSH1 0x0 DUP1 REVERT JUMPDEST PUSH2 0x13A4 DUP3 PUSH2 0x1343 JUMP JUMPDEST SWAP4 SWAP3 POP POP POP JUMP JUMPDEST PUSH1 0x0 DUP1 PUSH1 0x40 DUP4 DUP6 SUB SLT ISZERO PUSH2 0x13BE JUMPI PUSH1 0x0 DUP1 REVERT JUMPDEST DUP3 CALLDATALOAD SWAP2 POP PUSH2 0x13CE PUSH1 0x20 DUP5 ADD PUSH2 0x1343 JUMP JUMPDEST SWAP1 POP SWAP3 POP SWAP3 SWAP1 POP JUMP JUMPDEST PUSH1 0x0 DUP1 PUSH1 0x0 DUP1 PUSH1 0x80 DUP6 DUP8 SUB SLT ISZERO PUSH2 0x13ED JUMPI PUSH1 0x0 DUP1 REVERT JUMPDEST DUP5 CALLDATALOAD SWAP4 POP PUSH2 0x13FD PUSH1 0x20 DUP7 ADD PUSH2 0x1343 JUMP JUMPDEST SWAP3 POP PUSH2 0x140B PUSH1 0x40 DUP7 ADD PUSH2 0x1343 JUMP JUMPDEST SWAP4 SWAP7 SWAP3 SWAP6 POP SWAP3 SWAP4 PUSH1 0x60 ADD CALLDATALOAD SWAP3 POP POP JUMP JUMPDEST PUSH1 0x20 DUP1 DUP3 MSTORE PUSH1 0x16 SWAP1 DUP3 ADD MSTORE PUSH22 0x109BDD5B9D1E4E88111BD95CC81B9BDD08195E1A5CDD PUSH1 0x52 SHL PUSH1 0x40 DUP3 ADD MSTORE PUSH1 0x60 ADD SWAP1 JUMP JUMPDEST PUSH1 0x20 DUP1 DUP3 MSTORE PUSH1 0x19 SWAP1 DUP3 ADD MSTORE PUSH32 0x426F756E74793A20416C72656164792070726F63657373656400000000000000 PUSH1 0x40 DUP3 ADD MSTORE PUSH1 0x60 ADD SWAP1 JUMP JUMPDEST PUSH4 0x4E487B71 PUSH1 0xE0 SHL PUSH1 0x0 MSTORE PUSH1 0x11 PUSH1 0x4 MSTORE PUSH1 0x24 PUSH1 0x0 REVERT JUMPDEST DUP1 DUP3 MUL DUP2 ISZERO DUP3 DUP3 DIV DUP5 EQ OR PUSH2 0x14AF JUMPI PUSH2 0x14AF PUSH2 0x1482 JUMP JUMPDEST SWAP3 SWAP2 POP POP JUMP JUMPDEST PUSH1 0x0 DUP3 PUSH2 0x14D2 JUMPI PUSH4 0x4E487B71 PUSH1 0xE0 SHL PUSH1 0x0 MSTORE PUSH1 0x12 PUSH1 0x4 MSTORE PUSH1 0x24 PUSH1 0x0 REVERT JUMPDEST POP DIV SWAP1 JUMP JUMPDEST DUP2 DUP2 SUB DUP2 DUP2 GT ISZERO PUSH2 0x14AF JUMPI PUSH2 0x14AF PUSH2 0x1482 JUMP JUMPDEST PUSH1 0x0 PUSH1 0x20 DUP3 DUP5 SUB SLT ISZERO PUSH2 0x14FC JUMPI PUSH1 0x0 DUP1 REVERT JUMPDEST DUP2 MLOAD DUP1 ISZERO ISZERO DUP2 EQ PUSH2 0x13A4 JUMPI PUSH1 0x0 DUP1 REVERT INVALID LOG2 PUSH5 0x6970667358 0x22 SLT KECCAK256 PUSH2 0x35AF DUP2 COINBASE 0x29 PUSH27 0x5DE775D87C6D84DEB8D6BAA6433F7D2EEDF3B862D528F31AD26473 PUSH16 0x6C634300081400330000000000000000 "},"methodIdentifiers":{"AI_REFEREE_ADDRESS()":"6f8f2199","HOUSE_WALLET()":"00578353","USDC()":"89a30271","bounties(uint256)":"dc2f8744","owner()":"8da5cb5b","refundStaker(uint256,address)":"d8f4eb89","renounceOwnership()":"715018a6","rescueERC20(address,uint256)":"8cd4426d","setAIRefereeAddress(address)":"9513b324","stakeBounty(uint256,address,address,uint256)":"e08b504b","stealBounty(uint256,uint256)":"61c5d0e3","transferOwnership(address)":"f2fde38b","verifyAndPayout(uint256)":"4b9a7c93"}}}}}