{
  "_format": "hh-sol-artifact-1",
  "contractName": "HashHelper",
  "sourceName": "contracts/HashHelper.sol",
  "abi": [
    {
      "inputs": [
        {
          "internalType": "string",
          "name": "input",
          "type": "string"
        }
      ],
      "name": "hashString",
      "outputs": [
        {
          "internalType": "uint256",
          "name": "",
          "type": "uint256"
        }
      ],
      "stateMutability": "pure",
      "type": "function"
    }
  ],
  "bytecode": "0x608060405234801561001057600080fd5b50610133806100206000396000f3fe6080604052348015600f57600080fd5b506004361060285760003560e01c8063766954b414602d575b600080fd5b603c60383660046080565b604e565b60405190815260200160405180910390f35b60008282604051602001606192919060ed565b60408051601f1981840301815291905280516020909101209392505050565b60008060208385031215609257600080fd5b823567ffffffffffffffff8082111560a957600080fd5b818501915085601f83011260bc57600080fd5b81358181111560ca57600080fd5b86602082850101111560db57600080fd5b60209290920196919550909350505050565b818382376000910190815291905056fea264697066735822122010d85635d9458dad470a998b383e0480cd4d840d8ae8a19b5f0b5846ab9c06ca64736f6c63430008140033",
  "linkReferences": {},
  "deployedLinkReferences": {}
}