{
  "_format": "hh-sol-artifact-1",
  "contractName": "BaseDareProtocol",
  "sourceName": "contracts/BaseDareProtocol.sol",
  "abi": [
    {
      "inputs": [
        {
          "internalType": "address",
          "name": "_oracleAddress",
          "type": "address"
        },
        {
          "internalType": "address",
          "name": "_usdcAddress",
          "type": "address"
        }
      ],
      "stateMutability": "nonpayable",
      "type": "constructor"
    },
    {
      "inputs": [],
      "name": "EnforcedPause",
      "type": "error"
    },
    {
      "inputs": [],
      "name": "ExpectedPause",
      "type": "error"
    },
    {
      "inputs": [
        {
          "internalType": "address",
          "name": "owner",
          "type": "address"
        }
      ],
      "name": "OwnableInvalidOwner",
      "type": "error"
    },
    {
      "inputs": [
        {
          "internalType": "address",
          "name": "account",
          "type": "address"
        }
      ],
      "name": "OwnableUnauthorizedAccount",
      "type": "error"
    },
    {
      "inputs": [],
      "name": "ReentrancyGuardReentrantCall",
      "type": "error"
    },
    {
      "inputs": [
        {
          "internalType": "address",
          "name": "token",
          "type": "address"
        }
      ],
      "name": "SafeERC20FailedOperation",
      "type": "error"
    },
    {
      "anonymous": false,
      "inputs": [
        {
          "indexed": true,
          "internalType": "uint256",
          "name": "dareId",
          "type": "uint256"
        },
        {
          "indexed": true,
          "internalType": "address",
          "name": "backer",
          "type": "address"
        },
        {
          "indexed": false,
          "internalType": "uint256",
          "name": "amount",
          "type": "uint256"
        }
      ],
      "name": "CapitalInjected",
      "type": "event"
    },
    {
      "anonymous": false,
      "inputs": [
        {
          "indexed": true,
          "internalType": "uint256",
          "name": "dareId",
          "type": "uint256"
        },
        {
          "indexed": true,
          "internalType": "address",
          "name": "streamer",
          "type": "address"
        },
        {
          "indexed": false,
          "internalType": "uint256",
          "name": "amount",
          "type": "uint256"
        },
        {
          "indexed": false,
          "internalType": "address",
          "name": "referrer",
          "type": "address"
        }
      ],
      "name": "DareCreated",
      "type": "event"
    },
    {
      "anonymous": false,
      "inputs": [
        {
          "indexed": true,
          "internalType": "uint256",
          "name": "dareId",
          "type": "uint256"
        },
        {
          "indexed": false,
          "internalType": "bytes",
          "name": "proof",
          "type": "bytes"
        },
        {
          "indexed": false,
          "internalType": "uint256",
          "name": "payout",
          "type": "uint256"
        }
      ],
      "name": "DareVerified",
      "type": "event"
    },
    {
      "anonymous": false,
      "inputs": [
        {
          "indexed": true,
          "internalType": "address",
          "name": "owner",
          "type": "address"
        },
        {
          "indexed": false,
          "internalType": "uint256",
          "name": "amount",
          "type": "uint256"
        }
      ],
      "name": "FeesWithdrawn",
      "type": "event"
    },
    {
      "anonymous": false,
      "inputs": [
        {
          "indexed": false,
          "internalType": "address",
          "name": "newOracle",
          "type": "address"
        }
      ],
      "name": "OracleUpdated",
      "type": "event"
    },
    {
      "anonymous": false,
      "inputs": [
        {
          "indexed": true,
          "internalType": "address",
          "name": "previousOwner",
          "type": "address"
        },
        {
          "indexed": true,
          "internalType": "address",
          "name": "newOwner",
          "type": "address"
        }
      ],
      "name": "OwnershipTransferred",
      "type": "event"
    },
    {
      "anonymous": false,
      "inputs": [
        {
          "indexed": false,
          "internalType": "address",
          "name": "account",
          "type": "address"
        }
      ],
      "name": "Paused",
      "type": "event"
    },
    {
      "anonymous": false,
      "inputs": [
        {
          "indexed": false,
          "internalType": "address",
          "name": "account",
          "type": "address"
        }
      ],
      "name": "Unpaused",
      "type": "event"
    },
    {
      "inputs": [],
      "name": "BASIS_POINTS",
      "outputs": [
        {
          "internalType": "uint256",
          "name": "",
          "type": "uint256"
        }
      ],
      "stateMutability": "view",
      "type": "function"
    },
    {
      "inputs": [],
      "name": "accumulatedFees",
      "outputs": [
        {
          "internalType": "uint256",
          "name": "",
          "type": "uint256"
        }
      ],
      "stateMutability": "view",
      "type": "function"
    },
    {
      "inputs": [
        {
          "internalType": "address",
          "name": "_streamer",
          "type": "address"
        },
        {
          "internalType": "uint256",
          "name": "_amount",
          "type": "uint256"
        },
        {
          "internalType": "address",
          "name": "_referrer",
          "type": "address"
        }
      ],
      "name": "createDare",
      "outputs": [],
      "stateMutability": "nonpayable",
      "type": "function"
    },
    {
      "inputs": [
        {
          "internalType": "uint256",
          "name": "",
          "type": "uint256"
        }
      ],
      "name": "dares",
      "outputs": [
        {
          "internalType": "uint256",
          "name": "id",
          "type": "uint256"
        },
        {
          "internalType": "address",
          "name": "creator",
          "type": "address"
        },
        {
          "internalType": "address",
          "name": "streamer",
          "type": "address"
        },
        {
          "internalType": "uint256",
          "name": "totalPot",
          "type": "uint256"
        },
        {
          "internalType": "enum BaseDareProtocol.DareStatus",
          "name": "status",
          "type": "uint8"
        },
        {
          "internalType": "bool",
          "name": "isBrandSponsored",
          "type": "bool"
        },
        {
          "internalType": "bytes",
          "name": "verificationProof",
          "type": "bytes"
        },
        {
          "internalType": "address",
          "name": "referrer",
          "type": "address"
        }
      ],
      "stateMutability": "view",
      "type": "function"
    },
    {
      "inputs": [
        {
          "internalType": "uint256",
          "name": "_dareId",
          "type": "uint256"
        },
        {
          "internalType": "uint256",
          "name": "_amount",
          "type": "uint256"
        }
      ],
      "name": "injectCapital",
      "outputs": [],
      "stateMutability": "nonpayable",
      "type": "function"
    },
    {
      "inputs": [],
      "name": "nextDareId",
      "outputs": [
        {
          "internalType": "uint256",
          "name": "",
          "type": "uint256"
        }
      ],
      "stateMutability": "view",
      "type": "function"
    },
    {
      "inputs": [],
      "name": "oracleAddress",
      "outputs": [
        {
          "internalType": "address",
          "name": "",
          "type": "address"
        }
      ],
      "stateMutability": "view",
      "type": "function"
    },
    {
      "inputs": [],
      "name": "owner",
      "outputs": [
        {
          "internalType": "address",
          "name": "",
          "type": "address"
        }
      ],
      "stateMutability": "view",
      "type": "function"
    },
    {
      "inputs": [],
      "name": "pause",
      "outputs": [],
      "stateMutability": "nonpayable",
      "type": "function"
    },
    {
      "inputs": [],
      "name": "paused",
      "outputs": [
        {
          "internalType": "bool",
          "name": "",
          "type": "bool"
        }
      ],
      "stateMutability": "view",
      "type": "function"
    },
    {
      "inputs": [],
      "name": "protocolFee",
      "outputs": [
        {
          "internalType": "uint256",
          "name": "",
          "type": "uint256"
        }
      ],
      "stateMutability": "view",
      "type": "function"
    },
    {
      "inputs": [],
      "name": "referralFee",
      "outputs": [
        {
          "internalType": "uint256",
          "name": "",
          "type": "uint256"
        }
      ],
      "stateMutability": "view",
      "type": "function"
    },
    {
      "inputs": [],
      "name": "renounceOwnership",
      "outputs": [],
      "stateMutability": "nonpayable",
      "type": "function"
    },
    {
      "inputs": [
        {
          "internalType": "address",
          "name": "_newOracle",
          "type": "address"
        }
      ],
      "name": "setOracle",
      "outputs": [],
      "stateMutability": "nonpayable",
      "type": "function"
    },
    {
      "inputs": [
        {
          "internalType": "address",
          "name": "newOwner",
          "type": "address"
        }
      ],
      "name": "transferOwnership",
      "outputs": [],
      "stateMutability": "nonpayable",
      "type": "function"
    },
    {
      "inputs": [],
      "name": "unpause",
      "outputs": [],
      "stateMutability": "nonpayable",
      "type": "function"
    },
    {
      "inputs": [],
      "name": "usdc",
      "outputs": [
        {
          "internalType": "contract IERC20",
          "name": "",
          "type": "address"
        }
      ],
      "stateMutability": "view",
      "type": "function"
    },
    {
      "inputs": [
        {
          "internalType": "uint256",
          "name": "_dareId",
          "type": "uint256"
        },
        {
          "internalType": "bytes",
          "name": "_proof",
          "type": "bytes"
        }
      ],
      "name": "verifyAndPayout",
      "outputs": [],
      "stateMutability": "nonpayable",
      "type": "function"
    },
    {
      "inputs": [],
      "name": "withdrawFees",
      "outputs": [],
      "stateMutability": "nonpayable",
      "type": "function"
    }
  ],
  "bytecode": "0x60a06040526101f460035560646004553480156200001c57600080fd5b506040516200140f3803806200140f8339810160408190526200003f916200010e565b33806200006657604051631e4fbdf760e01b81526000600482015260240160405180910390fd5b6200007181620000a1565b506001805560028054610100600160a81b0319166101006001600160a01b03948516021790551660805262000146565b600080546001600160a01b038381166001600160a01b0319831681178455604051919092169283917f8be0079c531659141344cd1fd0a4f28419497f9722a3daafe3b4186f6b6457e09190a35050565b80516001600160a01b03811681146200010957600080fd5b919050565b600080604083850312156200012257600080fd5b6200012d83620000f1565b91506200013d60208401620000f1565b90509250929050565b60805161128a6200018560003960008181610153015281816103590152818161054f015281816105c10152818161067a01526108c1015261128a6000f3fe608060405234801561001057600080fd5b50600436106101215760003560e01c80637adbf973116100ad578063a89ae4ba11610071578063a89ae4ba1461023c578063b0e21e8a14610254578063bf7c0fa21461025d578063e1f1c4a714610270578063f2fde38b1461027957600080fd5b80637adbf973146101e05780638456cb59146101f357806384ae2bc6146101fb5780638da5cb5b146102045780639b95c1731461021557600080fd5b8063476343ee116100f4578063476343ee1461019a578063587f5ed7146101a25780635c975abb146101b9578063715018a6146101cf57806372c39e07146101d757600080fd5b8063386db353146101265780633cbcb9a71461013b5780633e413bee1461014e5780633f4ba83a14610192575b600080fd5b610139610134366004610d5d565b61028c565b005b610139610149366004610d7f565b6103eb565b6101757f000000000000000000000000000000000000000000000000000000000000000081565b6040516001600160a01b0390911681526020015b60405180910390f35b610139610638565b61013961064a565b6101ab60075481565b604051908152602001610189565b60025460ff166040519015158152602001610189565b6101396106f2565b6101ab60055481565b6101396101ee366004610e17565b610704565b610139610768565b6101ab60045481565b6000546001600160a01b0316610175565b610228610223366004610e39565b610778565b604051610189989796959493929190610e68565b6002546101759061010090046001600160a01b031681565b6101ab60035481565b61013961026b366004610f2c565b610862565b6101ab61271081565b610139610287366004610e17565b610a93565b610294610ad1565b61029c610af5565b60008281526006602052604081206004015460ff1660038111156102c2576102c2610e52565b146103065760405162461bcd60e51b815260206004820152600f60248201526e44617265206e6f742061637469766560881b60448201526064015b60405180910390fd5b6000811161034c5760405162461bcd60e51b8152602060048201526013602482015272139bc818d85c1a5d185b081c1c9bdd9a591959606a1b60448201526064016102fd565b6103816001600160a01b037f000000000000000000000000000000000000000000000000000000000000000016333084610b1f565b600082815260066020526040812060030180548392906103a2908490610f7e565b9091555050604051818152339083907f3df69e08425f97ba4e789c9ce9f8f2642e9a12b2855854855aff3d954071b4f99060200160405180910390a36103e760018055565b5050565b60025461010090046001600160a01b0316331461044a5760405162461bcd60e51b815260206004820152601d60248201527f4f6e6c79205472757468204d616368696e652063616e2076657269667900000060448201526064016102fd565b610452610ad1565b61045a610af5565b600083815260066020526040812090600482015460ff16600381111561048257610482610e52565b146104c15760405162461bcd60e51b815260206004820152600f60248201526e44617265206e6f742061637469766560881b60448201526064016102fd565b60048101805460ff19166002179055600581016104df838583611035565b50600061271060035483600301546104f791906110f6565b610501919061110d565b60068301549091506000906001600160a01b03161561057857612710600454846003015461052f91906110f6565b610539919061110d565b6006840154909150610578906001600160a01b037f00000000000000000000000000000000000000000000000000000000000000008116911683610b8c565b60008183856003015461058b919061112f565b610595919061112f565b905082600760008282546105a99190610f7e565b909155505060028401546105ea906001600160a01b037f00000000000000000000000000000000000000000000000000000000000000008116911683610b8c565b867f72deb7e2c34110882a2b0f69da11703dcb5c402b686755f58ba854b051b017e287878460405161061e93929190611142565b60405180910390a25050505061063360018055565b505050565b610640610bbd565b610648610bea565b565b610652610bbd565b6007805460009091556106a16106706000546001600160a01b031690565b6001600160a01b037f0000000000000000000000000000000000000000000000000000000000000000169083610b8c565b6000546001600160a01b03166001600160a01b03167fc0819c13be868895eb93e40eaceb96de976442fa1d404e5c55f14bb65a8c489a826040516106e791815260200190565b60405180910390a250565b6106fa610bbd565b6106486000610c3c565b61070c610bbd565b60028054610100600160a81b0319166101006001600160a01b038416908102919091179091556040519081527f3df77beb5db05fcdd70a30fc8adf3f83f9501b68579455adbd100b81809403949060200160405180910390a150565b610770610bbd565b610648610c8c565b60066020526000908152604090208054600182015460028301546003840154600485015460058601805495966001600160a01b03958616969490951694929360ff80841694610100909404169291906107d090610fad565b80601f01602080910402602001604051908101604052809291908181526020018280546107fc90610fad565b80156108495780601f1061081e57610100808354040283529160200191610849565b820191906000526020600020905b81548152906001019060200180831161082c57829003601f168201915b505050600690930154919250506001600160a01b031688565b61086a610ad1565b610872610af5565b600082116108b45760405162461bcd60e51b815260206004820152600f60248201526e4d757374207374616b65205553444360881b60448201526064016102fd565b6108e96001600160a01b037f000000000000000000000000000000000000000000000000000000000000000016333085610b1f565b60058054600091826108fa8361117b565b919050559050604051806101000160405280828152602001336001600160a01b03168152602001856001600160a01b031681526020018481526020016000600381111561094957610949610e52565b815260006020808301829052604080518083018252838152818501526001600160a01b0380881660609586015286845260068352928190208551815591850151600183810180549286166001600160a01b031993841617905591860151600284018054919095169116179092559183015160038084019190915560808401516004840180549193909260ff199092169184908111156109ea576109ea610e52565b021790555060a08201516004820180549115156101000261ff001990921691909117905560c08201516005820190610a229082611194565b5060e09190910151600690910180546001600160a01b0319166001600160a01b039283161790556040805185815284831660208201529186169183917ffe715f52f3769836ae98447cbab0ec46b29dbdc33509bc0dbb23b5800099a12c910160405180910390a35061063360018055565b610a9b610bbd565b6001600160a01b038116610ac557604051631e4fbdf760e01b8152600060048201526024016102fd565b610ace81610c3c565b50565b60025460ff16156106485760405163d93c066560e01b815260040160405180910390fd5b600260015403610b1857604051633ee5aeb560e01b815260040160405180910390fd5b6002600155565b6040516001600160a01b038481166024830152838116604483015260648201839052610b869186918216906323b872dd906084015b604051602081830303815290604052915060e01b6020820180516001600160e01b038381831617835250505050610cc9565b50505050565b6040516001600160a01b0383811660248301526044820183905261063391859182169063a9059cbb90606401610b54565b6000546001600160a01b031633146106485760405163118cdaa760e01b81523360048201526024016102fd565b610bf2610d3a565b6002805460ff191690557f5db9ee0a495bf2e6ff9c91a7834c1ba4fdd244a5e8aa4e537bd38aeae4b073aa335b6040516001600160a01b03909116815260200160405180910390a1565b600080546001600160a01b038381166001600160a01b0319831681178455604051919092169283917f8be0079c531659141344cd1fd0a4f28419497f9722a3daafe3b4186f6b6457e09190a35050565b610c94610ad1565b6002805460ff191660011790557f62e78cea01bee320cd4e420270b5ea74000d11b0c9f74754ebdbfc544b05a258610c1f3390565b600080602060008451602086016000885af180610cec576040513d6000823e3d81fd5b50506000513d91508115610d04578060011415610d11565b6001600160a01b0384163b155b15610b8657604051635274afe760e01b81526001600160a01b03851660048201526024016102fd565b60025460ff1661064857604051638dfc202b60e01b815260040160405180910390fd5b60008060408385031215610d7057600080fd5b50508035926020909101359150565b600080600060408486031215610d9457600080fd5b83359250602084013567ffffffffffffffff80821115610db357600080fd5b818601915086601f830112610dc757600080fd5b813581811115610dd657600080fd5b876020828501011115610de857600080fd5b6020830194508093505050509250925092565b80356001600160a01b0381168114610e1257600080fd5b919050565b600060208284031215610e2957600080fd5b610e3282610dfb565b9392505050565b600060208284031215610e4b57600080fd5b5035919050565b634e487b7160e01b600052602160045260246000fd5b60006101008a8352602060018060a01b03808c1682860152808b1660408601525088606085015260048810610ead57634e487b7160e01b600052602160045260246000fd5b87608085015286151560a08501528160c085015285518083860152600092505b80831015610eec57868301820151858401610120015291810191610ecd565b6101209250600083828701015282601f19601f8301168601019350505050610f1f60e08301846001600160a01b03169052565b9998505050505050505050565b600080600060608486031215610f4157600080fd5b610f4a84610dfb565b925060208401359150610f5f60408501610dfb565b90509250925092565b634e487b7160e01b600052601160045260246000fd5b80820180821115610f9157610f91610f68565b92915050565b634e487b7160e01b600052604160045260246000fd5b600181811c90821680610fc157607f821691505b602082108103610fe157634e487b7160e01b600052602260045260246000fd5b50919050565b601f82111561063357600081815260208120601f850160051c8101602086101561100e5750805b601f850160051c820191505b8181101561102d5782815560010161101a565b505050505050565b67ffffffffffffffff83111561104d5761104d610f97565b6110618361105b8354610fad565b83610fe7565b6000601f841160018114611095576000851561107d5750838201355b600019600387901b1c1916600186901b1783556110ef565b600083815260209020601f19861690835b828110156110c657868501358255602094850194600190920191016110a6565b50868210156110e35760001960f88860031b161c19848701351681555b505060018560011b0183555b5050505050565b8082028115828204841417610f9157610f91610f68565b60008261112a57634e487b7160e01b600052601260045260246000fd5b500490565b81810381811115610f9157610f91610f68565b604081528260408201528284606083013760006060848301015260006060601f19601f8601168301019050826020830152949350505050565b60006001820161118d5761118d610f68565b5060010190565b815167ffffffffffffffff8111156111ae576111ae610f97565b6111c2816111bc8454610fad565b84610fe7565b602080601f8311600181146111f757600084156111df5750858301515b600019600386901b1c1916600185901b17855561102d565b600085815260208120601f198616915b8281101561122657888601518255948401946001909101908401611207565b50858210156112445787850151600019600388901b60f8161c191681555b5050505050600190811b0190555056fea2646970667358221220dbb55724f3d76f47663598d82b9a9be99331ef373ff49d1da3a1e3cfb38b88a864736f6c63430008140033",
  "linkReferences": {},
  "deployedLinkReferences": {}
}